{"abi":[{"type":"constructor","inputs":[{"name":"_ecsRegistry","type":"address","internalType":"contract ECSRegistry"}],"stateMutability":"nonpayable"},{"type":"function","name":"ADMIN_ROLE","inputs":[],"outputs":[{"name":"","type":"bytes32","internalType":"bytes32"}],"stateMutability":"view"},{"type":"function","name":"DEFAULT_ADMIN_ROLE","inputs":[],"outputs":[{"name":"","type":"bytes32","internalType":"bytes32"}],"stateMutability":"view"},{"type":"function","name":"addNextPriceForCharLength","inputs":[{"name":"charAmount","type":"uint256","internalType":"uint256"}],"outputs":[],"stateMutability":"nonpayable"},{"type":"function","name":"available","inputs":[{"name":"label","type":"string","internalType":"string"}],"outputs":[{"name":"","type":"bool","internalType":"bool"}],"stateMutability":"view"},{"type":"function","name":"charAmounts","inputs":[{"name":"","type":"uint256","internalType":"uint256"}],"outputs":[{"name":"","type":"uint256","internalType":"uint256"}],"stateMutability":"view"},{"type":"function","name":"ecsRegistry","inputs":[],"outputs":[{"name":"","type":"address","internalType":"contract ECSRegistry"}],"stateMutability":"view"},{"type":"function","name":"getLastCharIndex","inputs":[],"outputs":[{"name":"","type":"uint256","internalType":"uint256"}],"stateMutability":"view"},{"type":"function","name":"getPriceDataForLength","inputs":[{"name":"charLength","type":"uint16","internalType":"uint16"}],"outputs":[{"name":"","type":"uint256","internalType":"uint256"}],"stateMutability":"view"},{"type":"function","name":"getRoleAdmin","inputs":[{"name":"role","type":"bytes32","internalType":"bytes32"}],"outputs":[{"name":"","type":"bytes32","internalType":"bytes32"}],"stateMutability":"view"},{"type":"function","name":"grantRole","inputs":[{"name":"role","type":"bytes32","internalType":"bytes32"},{"name":"account","type":"address","internalType":"address"}],"outputs":[],"stateMutability":"nonpayable"},{"type":"function","name":"hasRole","inputs":[{"name":"role","type":"bytes32","internalType":"bytes32"},{"name":"account","type":"address","internalType":"address"}],"outputs":[{"name":"","type":"bool","internalType":"bool"}],"stateMutability":"view"},{"type":"function","name":"maxChars","inputs":[],"outputs":[{"name":"","type":"uint16","internalType":"uint16"}],"stateMutability":"view"},{"type":"function","name":"maxRegistrationDuration","inputs":[],"outputs":[{"name":"","type":"uint64","internalType":"uint64"}],"stateMutability":"view"},{"type":"function","name":"minChars","inputs":[],"outputs":[{"name":"","type":"uint16","internalType":"uint16"}],"stateMutability":"view"},{"type":"function","name":"minRegistrationDuration","inputs":[],"outputs":[{"name":"","type":"uint64","internalType":"uint64"}],"stateMutability":"view"},{"type":"function","name":"register","inputs":[{"name":"label","type":"string","internalType":"string"},{"name":"owner","type":"address","internalType":"address"},{"name":"duration","type":"uint256","internalType":"uint256"},{"name":"keys","type":"string[]","internalType":"string[]"},{"name":"values","type":"string[]","internalType":"string[]"},{"name":"coinTypes","type":"uint256[]","internalType":"uint256[]"},{"name":"addresses","type":"bytes[]","internalType":"bytes[]"},{"name":"contentHash","type":"bytes","internalType":"bytes"}],"outputs":[],"stateMutability":"payable"},{"type":"function","name":"renew","inputs":[{"name":"label","type":"string","internalType":"string"},{"name":"duration","type":"uint256","internalType":"uint256"}],"outputs":[],"stateMutability":"payable"},{"type":"function","name":"renounceRole","inputs":[{"name":"role","type":"bytes32","internalType":"bytes32"},{"name":"callerConfirmation","type":"address","internalType":"address"}],"outputs":[],"stateMutability":"nonpayable"},{"type":"function","name":"rentPrice","inputs":[{"name":"label","type":"string","internalType":"string"},{"name":"duration","type":"uint256","internalType":"uint256"}],"outputs":[{"name":"ethPrice","type":"uint256","internalType":"uint256"}],"stateMutability":"view"},{"type":"function","name":"revokeRole","inputs":[{"name":"role","type":"bytes32","internalType":"bytes32"},{"name":"account","type":"address","internalType":"address"}],"outputs":[],"stateMutability":"nonpayable"},{"type":"function","name":"setParams","inputs":[{"name":"_minRegistrationDuration","type":"uint64","internalType":"uint64"},{"name":"_maxRegistrationDuration","type":"uint64","internalType":"uint64"},{"name":"_minChars","type":"uint16","internalType":"uint16"},{"name":"_maxChars","type":"uint16","internalType":"uint16"}],"outputs":[],"stateMutability":"nonpayable"},{"type":"function","name":"setPricingForAllLengths","inputs":[{"name":"_charAmounts","type":"uint256[]","internalType":"uint256[]"}],"outputs":[],"stateMutability":"nonpayable"},{"type":"function","name":"supportsInterface","inputs":[{"name":"interfaceId","type":"bytes4","internalType":"bytes4"}],"outputs":[{"name":"","type":"bool","internalType":"bool"}],"stateMutability":"view"},{"type":"function","name":"updatePriceForCharLength","inputs":[{"name":"charLength","type":"uint16","internalType":"uint16"},{"name":"charAmount","type":"uint256","internalType":"uint256"}],"outputs":[],"stateMutability":"nonpayable"},{"type":"function","name":"withdraw","inputs":[{"name":"amount","type":"uint256","internalType":"uint256"}],"outputs":[],"stateMutability":"nonpayable"},{"type":"function","name":"withdrawAll","inputs":[],"outputs":[],"stateMutability":"nonpayable"},{"type":"event","name":"NameRegistered","inputs":[{"name":"label","type":"string","indexed":true,"internalType":"string"},{"name":"owner","type":"address","indexed":false,"internalType":"address"},{"name":"cost","type":"uint256","indexed":false,"internalType":"uint256"},{"name":"expires","type":"uint256","indexed":false,"internalType":"uint256"}],"anonymous":false},{"type":"event","name":"NameRenewed","inputs":[{"name":"label","type":"string","indexed":true,"internalType":"string"},{"name":"cost","type":"uint256","indexed":false,"internalType":"uint256"},{"name":"newExpiration","type":"uint256","indexed":false,"internalType":"uint256"}],"anonymous":false},{"type":"event","name":"RoleAdminChanged","inputs":[{"name":"role","type":"bytes32","indexed":true,"internalType":"bytes32"},{"name":"previousAdminRole","type":"bytes32","indexed":true,"internalType":"bytes32"},{"name":"newAdminRole","type":"bytes32","indexed":true,"internalType":"bytes32"}],"anonymous":false},{"type":"event","name":"RoleGranted","inputs":[{"name":"role","type":"bytes32","indexed":true,"internalType":"bytes32"},{"name":"account","type":"address","indexed":true,"internalType":"address"},{"name":"sender","type":"address","indexed":true,"internalType":"address"}],"anonymous":false},{"type":"event","name":"RoleRevoked","inputs":[{"name":"role","type":"bytes32","indexed":true,"internalType":"bytes32"},{"name":"account","type":"address","indexed":true,"internalType":"address"},{"name":"sender","type":"address","indexed":true,"internalType":"address"}],"anonymous":false},{"type":"error","name":"AccessControlBadConfirmation","inputs":[]},{"type":"error","name":"AccessControlUnauthorizedAccount","inputs":[{"name":"account","type":"address","internalType":"address"},{"name":"neededRole","type":"bytes32","internalType":"bytes32"}]},{"type":"error","name":"CannotSetNewCharLengthAmounts","inputs":[]},{"type":"error","name":"InsufficientValue","inputs":[]},{"type":"error","name":"InvalidDuration","inputs":[{"name":"duration","type":"uint256","internalType":"uint256"}]},{"type":"error","name":"WrongNumberOfChars","inputs":[{"name":"label","type":"string","internalType":"string"}]}],"bytecode":{"object":"0x60a060405234801561000f575f5ffd5b50604051612df9380380612df98339818101604052810190610031919061027d565b8073ffffffffffffffffffffffffffffffffffffffff1660808173ffffffffffffffffffffffffffffffffffffffff16815250506100775f5f1b336100af60201b60201c565b506100a87fa49807205ce4d355092ef5a8a18f56e8913cf4a201fbe287825b095693c21775336100af60201b60201c565b50506102a8565b5f6100c083836101a460201b60201c565b61019a5760015f5f8581526020019081526020015f205f015f8473ffffffffffffffffffffffffffffffffffffffff1673ffffffffffffffffffffffffffffffffffffffff1681526020019081526020015f205f6101000a81548160ff02191690831515021790555061013761020760201b60201c565b73ffffffffffffffffffffffffffffffffffffffff168273ffffffffffffffffffffffffffffffffffffffff16847f2f8788117e7eff1d82e926ec794901d17c78024a50270940304540a733656f0d60405160405180910390a46001905061019e565b5f90505b92915050565b5f5f5f8481526020019081526020015f205f015f8373ffffffffffffffffffffffffffffffffffffffff1673ffffffffffffffffffffffffffffffffffffffff1681526020019081526020015f205f9054906101000a900460ff16905092915050565b5f33905090565b5f5ffd5b5f73ffffffffffffffffffffffffffffffffffffffff82169050919050565b5f61023b82610212565b9050919050565b5f61024c82610231565b9050919050565b61025c81610242565b8114610266575f5ffd5b50565b5f8151905061027781610253565b92915050565b5f602082840312156102925761029161020e565b5b5f61029f84828501610269565b91505092915050565b608051612b1d6102dc5f395f81816106190152818161097901528181610dc001528181610f3101526110860152612b1d5ff3fe608060405260043610610180575f3560e01c8063853828b6116100d0578063aeb8ce9b11610089578063c48561fe11610063578063c48561fe14610562578063c9e871131461058a578063d547741f146105b4578063f967c88f146105dc57610180565b8063aeb8ce9b146104d6578063b77e6aa014610512578063ba8d24791461053a57610180565b8063853828b6146103d857806391d14854146103ee57806394e82a4c1461042a5780639dbd622714610454578063a217fddf14610490578063acf1a841146104ba57610180565b806336568abe1161013d5780634dc80076116101175780634dc800761461032057806375b238fc1461034a578063786930001461037457806383e7f6ff1461039c57610180565b806336568abe146102a057806338731d74146102c8578063444a2d8d146102e457610180565b806301ffc9a7146101845780630e2c600b146101c057806312ee468a146101ea578063248a9ca3146102145780632e1a7d4d146102505780632f2ff15d14610278575b5f5ffd5b34801561018f575f5ffd5b506101aa60048036038101906101a5919061175c565b610606565b6040516101b791906117a1565b60405180910390f35b3480156101cb575f5ffd5b506101d4610617565b6040516101e19190611834565b60405180910390f35b3480156101f5575f5ffd5b506101fe61063b565b60405161020b9190611865565b60405180910390f35b34801561021f575f5ffd5b5061023a600480360381019061023591906118b1565b610653565b60405161024791906118eb565b60405180910390f35b34801561025b575f5ffd5b506102766004803603810190610271919061192e565b61066f565b005b348015610283575f5ffd5b5061029e60048036038101906102999190611994565b610724565b005b3480156102ab575f5ffd5b506102c660048036038101906102c19190611994565b610746565b005b6102e260048036038101906102dd9190611e85565b6107c1565b005b3480156102ef575f5ffd5b5061030a6004803603810190610305919061192e565b610ad9565b6040516103179190611865565b60405180910390f35b34801561032b575f5ffd5b50610334610af9565b6040516103419190611ffd565b60405180910390f35b348015610355575f5ffd5b5061035e610b0d565b60405161036b91906118eb565b60405180910390f35b34801561037f575f5ffd5b5061039a60048036038101906103959190612040565b610b31565b005b3480156103a7575f5ffd5b506103c260048036038101906103bd919061207e565b610bd4565b6040516103cf9190611865565b60405180910390f35b3480156103e3575f5ffd5b506103ec610c87565b005b3480156103f9575f5ffd5b50610414600480360381019061040f9190611994565b610cfd565b60405161042191906117a1565b60405180910390f35b348015610435575f5ffd5b5061043e610d60565b60405161044b9190611ffd565b60405180910390f35b34801561045f575f5ffd5b5061047a600480360381019061047591906120d8565b610d74565b6040516104879190611865565b60405180910390f35b34801561049b575f5ffd5b506104a4610d9d565b6040516104b191906118eb565b60405180910390f35b6104d460048036038101906104cf9190612103565b610da3565b005b3480156104e1575f5ffd5b506104fc60048036038101906104f79190612160565b611068565b60405161050991906117a1565b60405180910390f35b34801561051d575f5ffd5b50610538600480360381019061053391906121e4565b611125565b005b348015610545575f5ffd5b50610560600480360381019061055b919061229d565b6111e1565b005b34801561056d575f5ffd5b506105886004803603810190610583919061192e565b61122f565b005b348015610595575f5ffd5b5061059e611283565b6040516105ab91906122f7565b60405180910390f35b3480156105bf575f5ffd5b506105da60048036038101906105d59190611994565b61129c565b005b3480156105e7575f5ffd5b506105f06112be565b6040516105fd91906122f7565b60405180910390f35b5f610610826112d8565b9050919050565b7f000000000000000000000000000000000000000000000000000000000000000081565b5f600160028054905061064e919061233d565b905090565b5f5f5f8381526020019081526020015f20600101549050919050565b7fa49807205ce4d355092ef5a8a18f56e8913cf4a201fbe287825b095693c2177561069981611351565b478211156106dc576040517f08c379a00000000000000000000000000000000000000000000000000000000081526004016106d3906123ca565b60405180910390fd5b3373ffffffffffffffffffffffffffffffffffffffff166108fc8390811502906040515f60405180830381858888f1935050505015801561071f573d5f5f3e3d5ffd5b505050565b61072d82610653565b61073681611351565b6107408383611365565b50505050565b61074e61144e565b73ffffffffffffffffffffffffffffffffffffffff168173ffffffffffffffffffffffffffffffffffffffff16146107b2576040517f6697b23200000000000000000000000000000000000000000000000000000000815260040160405180910390fd5b6107bc8282611455565b505050565b60015f9054906101000a900467ffffffffffffffff1667ffffffffffffffff1686108061080d5750600160089054906101000a900467ffffffffffffffff1667ffffffffffffffff1686115b1561084f57856040517f4ede0ebc0000000000000000000000000000000000000000000000000000000081526004016108469190611865565b60405180910390fd5b61089b89898080601f0160208091040260200160405190810160405280939291908181526020018383808284375f81840152601f19601f8201169050808301925050505050505061153e565b6108de5788886040517f7df0e7550000000000000000000000000000000000000000000000000000000081526004016108d5929190612414565b60405180910390fd5b5f61092c8a8a8080601f0160208091040260200160405190810160405280939291908181526020018383808284375f81840152601f19601f8201169050808301925050505050505088610bd4565b905080341015610968576040517f1101129400000000000000000000000000000000000000000000000000000000815260040160405180910390fd5b5f87426109759190612436565b90507f000000000000000000000000000000000000000000000000000000000000000073ffffffffffffffffffffffffffffffffffffffff16633083656c8c8c8c858c8c8c8c8c6040518a63ffffffff1660e01b81526004016109e09998979695949392919061279f565b6020604051808303815f875af11580156109fc573d5f5f3e3d5ffd5b505050506040513d601f19601f82011682018060405250810190610a20919061285b565b5081341115610a79573373ffffffffffffffffffffffffffffffffffffffff166108fc8334610a4f919061233d565b90811502906040515f60405180830381858888f19350505050158015610a77573d5f5f3e3d5ffd5b505b8a8a604051610a899291906128b4565b60405180910390207ff7ab1b84e0afb8ee4014a7fc4343c995a6eed5d4a096d59940f33ef56efc58518a8484604051610ac4939291906128cc565b60405180910390a25050505050505050505050565b60028181548110610ae8575f80fd5b905f5260205f20015f915090505481565b600160129054906101000a900461ffff1681565b7fa49807205ce4d355092ef5a8a18f56e8913cf4a201fbe287825b095693c2177581565b7fa49807205ce4d355092ef5a8a18f56e8913cf4a201fbe287825b095693c21775610b5b81611351565b6001600280549050610b6d919061233d565b8361ffff161115610baa576040517fe6dd59dc00000000000000000000000000000000000000000000000000000000815260040160405180910390fd5b8160028461ffff1681548110610bc357610bc2612901565b5b905f5260205f200181905550505050565b5f5f835190505f60028054905090505f5f821115610c645781831015610c3f5760028381548110610c0857610c07612901565b5b905f5260205f20015490505f8103610c3a5760025f81548110610c2e57610c2d612901565b5b905f5260205f20015490505b610c5f565b60025f81548110610c5357610c52612901565b5b905f5260205f20015490505b610c6f565b5f9350505050610c81565b8481610c7b919061292e565b93505050505b92915050565b7fa49807205ce4d355092ef5a8a18f56e8913cf4a201fbe287825b095693c21775610cb181611351565b5f4790503373ffffffffffffffffffffffffffffffffffffffff166108fc8290811502906040515f60405180830381858888f19350505050158015610cf8573d5f5f3e3d5ffd5b505050565b5f5f5f8481526020019081526020015f205f015f8373ffffffffffffffffffffffffffffffffffffffff1673ffffffffffffffffffffffffffffffffffffffff1681526020019081526020015f205f9054906101000a900460ff16905092915050565b600160109054906101000a900461ffff1681565b5f60028261ffff1681548110610d8d57610d8c612901565b5b905f5260205f2001549050919050565b5f5f1b81565b5f8383604051610db492919061299d565b604051809103902090507f000000000000000000000000000000000000000000000000000000000000000073ffffffffffffffffffffffffffffffffffffffff16636db2feb2826040518263ffffffff1660e01b8152600401610e1791906118eb565b602060405180830381865afa158015610e32573d5f5f3e3d5ffd5b505050506040513d601f19601f82011682018060405250810190610e5691906129df565b15610e96576040517f08c379a0000000000000000000000000000000000000000000000000000000008152600401610e8d90612a54565b60405180910390fd5b5f610ee485858080601f0160208091040260200160405190810160405280939291908181526020018383808284375f81840152601f19601f8201169050808301925050505050505084610bd4565b905080341015610f20576040517f1101129400000000000000000000000000000000000000000000000000000000815260040160405180910390fd5b5f8342610f2d9190612436565b90507f000000000000000000000000000000000000000000000000000000000000000073ffffffffffffffffffffffffffffffffffffffff16636903f9e384836040518363ffffffff1660e01b8152600401610f8a929190612a72565b5f604051808303815f87803b158015610fa1575f5ffd5b505af1158015610fb3573d5f5f3e3d5ffd5b505050508134111561100f573373ffffffffffffffffffffffffffffffffffffffff166108fc8334610fe5919061233d565b90811502906040515f60405180830381858888f1935050505015801561100d573d5f5f3e3d5ffd5b505b858560405161101f9291906128b4565b60405180910390207f983587df6b7b703c7d9c0d9fdb64ad88e85b07e5663a41f2ff95d8313abd66068383604051611058929190612a99565b60405180910390a2505050505050565b5f5f8280519060200120905061107d8361153e565b801561111d57507f000000000000000000000000000000000000000000000000000000000000000073ffffffffffffffffffffffffffffffffffffffff16636db2feb2826040518263ffffffff1660e01b81526004016110dd91906118eb565b602060405180830381865afa1580156110f8573d5f5f3e3d5ffd5b505050506040513d601f19601f8201168201806040525081019061111c91906129df565b5b915050919050565b7fa49807205ce4d355092ef5a8a18f56e8913cf4a201fbe287825b095693c2177561114f81611351565b8460015f6101000a81548167ffffffffffffffff021916908367ffffffffffffffff16021790555083600160086101000a81548167ffffffffffffffff021916908367ffffffffffffffff16021790555082600160106101000a81548161ffff021916908361ffff16021790555081600160126101000a81548161ffff021916908361ffff1602179055505050505050565b7fa49807205ce4d355092ef5a8a18f56e8913cf4a201fbe287825b095693c2177561120b81611351565b60025f6112189190611672565b828260029190611229929190611690565b50505050565b7fa49807205ce4d355092ef5a8a18f56e8913cf4a201fbe287825b095693c2177561125981611351565b600282908060018154018082558091505060019003905f5260205f20015f90919091909150555050565b60015f9054906101000a900467ffffffffffffffff1681565b6112a582610653565b6112ae81611351565b6112b88383611455565b50505050565b600160089054906101000a900467ffffffffffffffff1681565b5f7f7965db0b000000000000000000000000000000000000000000000000000000007bffffffffffffffffffffffffffffffffffffffffffffffffffffffff1916827bffffffffffffffffffffffffffffffffffffffffffffffffffffffff1916148061134a5750611349826115b8565b5b9050919050565b6113628161135d61144e565b611621565b50565b5f6113708383610cfd565b6114445760015f5f8581526020019081526020015f205f015f8473ffffffffffffffffffffffffffffffffffffffff1673ffffffffffffffffffffffffffffffffffffffff1681526020019081526020015f205f6101000a81548160ff0219169083151502179055506113e161144e565b73ffffffffffffffffffffffffffffffffffffffff168273ffffffffffffffffffffffffffffffffffffffff16847f2f8788117e7eff1d82e926ec794901d17c78024a50270940304540a733656f0d60405160405180910390a460019050611448565b5f90505b92915050565b5f33905090565b5f6114608383610cfd565b15611534575f5f5f8581526020019081526020015f205f015f8473ffffffffffffffffffffffffffffffffffffffff1673ffffffffffffffffffffffffffffffffffffffff1681526020019081526020015f205f6101000a81548160ff0219169083151502179055506114d161144e565b73ffffffffffffffffffffffffffffffffffffffff168273ffffffffffffffffffffffffffffffffffffffff16847ff6391f5c32d9c69d2a47ea670b442974b53935d1edc7fd64eb21e047a839171b60405160405180910390a460019050611538565b5f90505b92915050565b5f5f82519050600160109054906101000a900461ffff1661ffff1681106115ae575f600160129054906101000a900461ffff1661ffff16141580156115965750600160129054906101000a900461ffff1661ffff1681115b156115a4575f9150506115b3565b60019150506115b3565b5f9150505b919050565b5f7f01ffc9a7000000000000000000000000000000000000000000000000000000007bffffffffffffffffffffffffffffffffffffffffffffffffffffffff1916827bffffffffffffffffffffffffffffffffffffffffffffffffffffffff1916149050919050565b61162b8282610cfd565b61166e5780826040517fe2517d3f000000000000000000000000000000000000000000000000000000008152600401611665929190612ac0565b60405180910390fd5b5050565b5080545f8255905f5260205f209081019061168d91906116db565b50565b828054828255905f5260205f209081019282156116ca579160200282015b828111156116c95782358255916020019190600101906116ae565b5b5090506116d791906116db565b5090565b5b808211156116f2575f815f9055506001016116dc565b5090565b5f604051905090565b5f5ffd5b5f5ffd5b5f7fffffffff0000000000000000000000000000000000000000000000000000000082169050919050565b61173b81611707565b8114611745575f5ffd5b50565b5f8135905061175681611732565b92915050565b5f60208284031215611771576117706116ff565b5b5f61177e84828501611748565b91505092915050565b5f8115159050919050565b61179b81611787565b82525050565b5f6020820190506117b45f830184611792565b92915050565b5f73ffffffffffffffffffffffffffffffffffffffff82169050919050565b5f819050919050565b5f6117fc6117f76117f2846117ba565b6117d9565b6117ba565b9050919050565b5f61180d826117e2565b9050919050565b5f61181e82611803565b9050919050565b61182e81611814565b82525050565b5f6020820190506118475f830184611825565b92915050565b5f819050919050565b61185f8161184d565b82525050565b5f6020820190506118785f830184611856565b92915050565b5f819050919050565b6118908161187e565b811461189a575f5ffd5b50565b5f813590506118ab81611887565b92915050565b5f602082840312156118c6576118c56116ff565b5b5f6118d38482850161189d565b91505092915050565b6118e58161187e565b82525050565b5f6020820190506118fe5f8301846118dc565b92915050565b61190d8161184d565b8114611917575f5ffd5b50565b5f8135905061192881611904565b92915050565b5f60208284031215611943576119426116ff565b5b5f6119508482850161191a565b91505092915050565b5f611963826117ba565b9050919050565b61197381611959565b811461197d575f5ffd5b50565b5f8135905061198e8161196a565b92915050565b5f5f604083850312156119aa576119a96116ff565b5b5f6119b78582860161189d565b92505060206119c885828601611980565b9150509250929050565b5f5ffd5b5f5ffd5b5f5ffd5b5f5f83601f8401126119f3576119f26119d2565b5b8235905067ffffffffffffffff811115611a1057611a0f6119d6565b5b602083019150836001820283011115611a2c57611a2b6119da565b5b9250929050565b5f601f19601f8301169050919050565b7f4e487b71000000000000000000000000000000000000000000000000000000005f52604160045260245ffd5b611a7982611a33565b810181811067ffffffffffffffff82111715611a9857611a97611a43565b5b80604052505050565b5f611aaa6116f6565b9050611ab68282611a70565b919050565b5f67ffffffffffffffff821115611ad557611ad4611a43565b5b602082029050602081019050919050565b5f5ffd5b5f67ffffffffffffffff821115611b0457611b03611a43565b5b611b0d82611a33565b9050602081019050919050565b828183375f83830152505050565b5f611b3a611b3584611aea565b611aa1565b905082815260208101848484011115611b5657611b55611ae6565b5b611b61848285611b1a565b509392505050565b5f82601f830112611b7d57611b7c6119d2565b5b8135611b8d848260208601611b28565b91505092915050565b5f611ba8611ba384611abb565b611aa1565b90508083825260208201905060208402830185811115611bcb57611bca6119da565b5b835b81811015611c1257803567ffffffffffffffff811115611bf057611bef6119d2565b5b808601611bfd8982611b69565b85526020850194505050602081019050611bcd565b5050509392505050565b5f82601f830112611c3057611c2f6119d2565b5b8135611c40848260208601611b96565b91505092915050565b5f67ffffffffffffffff821115611c6357611c62611a43565b5b602082029050602081019050919050565b5f611c86611c8184611c49565b611aa1565b90508083825260208201905060208402830185811115611ca957611ca86119da565b5b835b81811015611cd25780611cbe888261191a565b845260208401935050602081019050611cab565b5050509392505050565b5f82601f830112611cf057611cef6119d2565b5b8135611d00848260208601611c74565b91505092915050565b5f67ffffffffffffffff821115611d2357611d22611a43565b5b602082029050602081019050919050565b5f67ffffffffffffffff821115611d4e57611d4d611a43565b5b611d5782611a33565b9050602081019050919050565b5f611d76611d7184611d34565b611aa1565b905082815260208101848484011115611d9257611d91611ae6565b5b611d9d848285611b1a565b509392505050565b5f82601f830112611db957611db86119d2565b5b8135611dc9848260208601611d64565b91505092915050565b5f611de4611ddf84611d09565b611aa1565b90508083825260208201905060208402830185811115611e0757611e066119da565b5b835b81811015611e4e57803567ffffffffffffffff811115611e2c57611e2b6119d2565b5b808601611e398982611da5565b85526020850194505050602081019050611e09565b5050509392505050565b5f82601f830112611e6c57611e6b6119d2565b5b8135611e7c848260208601611dd2565b91505092915050565b5f5f5f5f5f5f5f5f5f6101008a8c031215611ea357611ea26116ff565b5b5f8a013567ffffffffffffffff811115611ec057611ebf611703565b5b611ecc8c828d016119de565b99509950506020611edf8c828d01611980565b9750506040611ef08c828d0161191a565b96505060608a013567ffffffffffffffff811115611f1157611f10611703565b5b611f1d8c828d01611c1c565b95505060808a013567ffffffffffffffff811115611f3e57611f3d611703565b5b611f4a8c828d01611c1c565b94505060a08a013567ffffffffffffffff811115611f6b57611f6a611703565b5b611f778c828d01611cdc565b93505060c08a013567ffffffffffffffff811115611f9857611f97611703565b5b611fa48c828d01611e58565b92505060e08a013567ffffffffffffffff811115611fc557611fc4611703565b5b611fd18c828d01611da5565b9150509295985092959850929598565b5f61ffff82169050919050565b611ff781611fe1565b82525050565b5f6020820190506120105f830184611fee565b92915050565b61201f81611fe1565b8114612029575f5ffd5b50565b5f8135905061203a81612016565b92915050565b5f5f60408385031215612056576120556116ff565b5b5f6120638582860161202c565b92505060206120748582860161191a565b9150509250929050565b5f5f60408385031215612094576120936116ff565b5b5f83013567ffffffffffffffff8111156120b1576120b0611703565b5b6120bd85828601611b69565b92505060206120ce8582860161191a565b9150509250929050565b5f602082840312156120ed576120ec6116ff565b5b5f6120fa8482850161202c565b91505092915050565b5f5f5f6040848603121561211a576121196116ff565b5b5f84013567ffffffffffffffff81111561213757612136611703565b5b612143868287016119de565b935093505060206121568682870161191a565b9150509250925092565b5f60208284031215612175576121746116ff565b5b5f82013567ffffffffffffffff81111561219257612191611703565b5b61219e84828501611b69565b91505092915050565b5f67ffffffffffffffff82169050919050565b6121c3816121a7565b81146121cd575f5ffd5b50565b5f813590506121de816121ba565b92915050565b5f5f5f5f608085870312156121fc576121fb6116ff565b5b5f612209878288016121d0565b945050602061221a878288016121d0565b935050604061222b8782880161202c565b925050606061223c8782880161202c565b91505092959194509250565b5f5f83601f84011261225d5761225c6119d2565b5b8235905067ffffffffffffffff81111561227a576122796119d6565b5b602083019150836020820283011115612296576122956119da565b5b9250929050565b5f5f602083850312156122b3576122b26116ff565b5b5f83013567ffffffffffffffff8111156122d0576122cf611703565b5b6122dc85828601612248565b92509250509250929050565b6122f1816121a7565b82525050565b5f60208201905061230a5f8301846122e8565b92915050565b7f4e487b71000000000000000000000000000000000000000000000000000000005f52601160045260245ffd5b5f6123478261184d565b91506123528361184d565b925082820390508181111561236a57612369612310565b5b92915050565b5f82825260208201905092915050565b7f496e73756666696369656e7420636f6e74726163742062616c616e63650000005f82015250565b5f6123b4601d83612370565b91506123bf82612380565b602082019050919050565b5f6020820190508181035f8301526123e1816123a8565b9050919050565b5f6123f38385612370565b9350612400838584611b1a565b61240983611a33565b840190509392505050565b5f6020820190508181035f83015261242d8184866123e8565b90509392505050565b5f6124408261184d565b915061244b8361184d565b925082820190508082111561246357612462612310565b5b92915050565b61247281611959565b82525050565b5f81519050919050565b5f82825260208201905092915050565b5f819050602082019050919050565b5f81519050919050565b5f82825260208201905092915050565b8281835e5f83830152505050565b5f6124d3826124a1565b6124dd81856124ab565b93506124ed8185602086016124bb565b6124f681611a33565b840191505092915050565b5f61250c83836124c9565b905092915050565b5f602082019050919050565b5f61252a82612478565b6125348185612482565b93508360208202850161254685612492565b805f5b8581101561258157848403895281516125628582612501565b945061256d83612514565b925060208a01995050600181019050612549565b50829750879550505050505092915050565b5f81519050919050565b5f82825260208201905092915050565b5f819050602082019050919050565b6125c58161184d565b82525050565b5f6125d683836125bc565b60208301905092915050565b5f602082019050919050565b5f6125f882612593565b612602818561259d565b935061260d836125ad565b805f5b8381101561263d57815161262488826125cb565b975061262f836125e2565b925050600181019050612610565b5085935050505092915050565b5f81519050919050565b5f82825260208201905092915050565b5f819050602082019050919050565b5f81519050919050565b5f82825260208201905092915050565b5f61269782612673565b6126a1818561267d565b93506126b18185602086016124bb565b6126ba81611a33565b840191505092915050565b5f6126d0838361268d565b905092915050565b5f602082019050919050565b5f6126ee8261264a565b6126f88185612654565b93508360208202850161270a85612664565b805f5b85811015612745578484038952815161272685826126c5565b9450612731836126d8565b925060208a0199505060018101905061270d565b50829750879550505050505092915050565b5f82825260208201905092915050565b5f61277182612673565b61277b8185612757565b935061278b8185602086016124bb565b61279481611a33565b840191505092915050565b5f610100820190508181035f8301526127b9818b8d6123e8565b90506127c8602083018a612469565b6127d56040830189611856565b81810360608301526127e78188612520565b905081810360808301526127fb8187612520565b905081810360a083015261280f81866125ee565b905081810360c083015261282381856126e4565b905081810360e08301526128378184612767565b90509a9950505050505050505050565b5f8151905061285581611887565b92915050565b5f602082840312156128705761286f6116ff565b5b5f61287d84828501612847565b91505092915050565b5f81905092915050565b5f61289b8385612886565b93506128a8838584611b1a565b82840190509392505050565b5f6128c0828486612890565b91508190509392505050565b5f6060820190506128df5f830186612469565b6128ec6020830185611856565b6128f96040830184611856565b949350505050565b7f4e487b71000000000000000000000000000000000000000000000000000000005f52603260045260245ffd5b5f6129388261184d565b91506129438361184d565b92508282026129518161184d565b9150828204841483151761296857612967612310565b5b5092915050565b5f81905092915050565b5f612984838561296f565b9350612991838584611b1a565b82840190509392505050565b5f6129a9828486612979565b91508190509392505050565b6129be81611787565b81146129c8575f5ffd5b50565b5f815190506129d9816129b5565b92915050565b5f602082840312156129f4576129f36116ff565b5b5f612a01848285016129cb565b91505092915050565b7f4e616d65206973206578706972656400000000000000000000000000000000005f82015250565b5f612a3e600f83612370565b9150612a4982612a0a565b602082019050919050565b5f6020820190508181035f830152612a6b81612a32565b9050919050565b5f604082019050612a855f8301856118dc565b612a926020830184611856565b9392505050565b5f604082019050612aac5f830185611856565b612ab96020830184611856565b9392505050565b5f604082019050612ad35f830185612469565b612ae060208301846118dc565b939250505056fea26469706673582212203b2ec0f9547f3a7819c3d13b3be5ffc9fe7420c687bcb4559e94e9f3e9fff50664736f6c634300081e0033","linkReferences":{}},"methodIdentifiers":{"ADMIN_ROLE()":"75b238fc","DEFAULT_ADMIN_ROLE()":"a217fddf","addNextPriceForCharLength(uint256)":"c48561fe","available(string)":"aeb8ce9b","charAmounts(uint256)":"444a2d8d","ecsRegistry()":"0e2c600b","getLastCharIndex()":"12ee468a","getPriceDataForLength(uint16)":"9dbd6227","getRoleAdmin(bytes32)":"248a9ca3","grantRole(bytes32,address)":"2f2ff15d","hasRole(bytes32,address)":"91d14854","maxChars()":"4dc80076","maxRegistrationDuration()":"f967c88f","minChars()":"94e82a4c","minRegistrationDuration()":"c9e87113","register(string,address,uint256,string[],string[],uint256[],bytes[],bytes)":"38731d74","renew(string,uint256)":"acf1a841","renounceRole(bytes32,address)":"36568abe","rentPrice(string,uint256)":"83e7f6ff","revokeRole(bytes32,address)":"d547741f","setParams(uint64,uint64,uint16,uint16)":"b77e6aa0","setPricingForAllLengths(uint256[])":"ba8d2479","supportsInterface(bytes4)":"01ffc9a7","updatePriceForCharLength(uint16,uint256)":"78693000","withdraw(uint256)":"2e1a7d4d","withdrawAll()":"853828b6"},"id":5}