{"abi":[{"type":"constructor","inputs":[{"name":"_ecsRegistry","type":"address","internalType":"contract ECSRegistry"}],"stateMutability":"nonpayable"},{"type":"function","name":"ADMIN_ROLE","inputs":[],"outputs":[{"name":"","type":"bytes32","internalType":"bytes32"}],"stateMutability":"view"},{"type":"function","name":"DEFAULT_ADMIN_ROLE","inputs":[],"outputs":[{"name":"","type":"bytes32","internalType":"bytes32"}],"stateMutability":"view"},{"type":"function","name":"MIN_COMMITMENT_AGE","inputs":[],"outputs":[{"name":"","type":"uint256","internalType":"uint256"}],"stateMutability":"view"},{"type":"function","name":"addNextPriceForCharLength","inputs":[{"name":"charAmount","type":"uint256","internalType":"uint256"}],"outputs":[],"stateMutability":"nonpayable"},{"type":"function","name":"available","inputs":[{"name":"label","type":"string","internalType":"string"}],"outputs":[{"name":"","type":"bool","internalType":"bool"}],"stateMutability":"view"},{"type":"function","name":"charAmounts","inputs":[{"name":"","type":"uint256","internalType":"uint256"}],"outputs":[{"name":"","type":"uint256","internalType":"uint256"}],"stateMutability":"view"},{"type":"function","name":"commit","inputs":[{"name":"commitment","type":"bytes32","internalType":"bytes32"}],"outputs":[],"stateMutability":"nonpayable"},{"type":"function","name":"commitments","inputs":[{"name":"","type":"bytes32","internalType":"bytes32"}],"outputs":[{"name":"","type":"uint256","internalType":"uint256"}],"stateMutability":"view"},{"type":"function","name":"createCommitment","inputs":[{"name":"label","type":"string","internalType":"string"},{"name":"owner","type":"address","internalType":"address"},{"name":"resolver","type":"address","internalType":"address"},{"name":"duration","type":"uint256","internalType":"uint256"},{"name":"secret","type":"bytes32","internalType":"bytes32"}],"outputs":[{"name":"","type":"bytes32","internalType":"bytes32"}],"stateMutability":"pure"},{"type":"function","name":"ecsRegistry","inputs":[],"outputs":[{"name":"","type":"address","internalType":"contract ECSRegistry"}],"stateMutability":"view"},{"type":"function","name":"getLastCharIndex","inputs":[],"outputs":[{"name":"","type":"uint256","internalType":"uint256"}],"stateMutability":"view"},{"type":"function","name":"getPriceDataForLength","inputs":[{"name":"charLength","type":"uint16","internalType":"uint16"}],"outputs":[{"name":"","type":"uint256","internalType":"uint256"}],"stateMutability":"view"},{"type":"function","name":"getRoleAdmin","inputs":[{"name":"role","type":"bytes32","internalType":"bytes32"}],"outputs":[{"name":"","type":"bytes32","internalType":"bytes32"}],"stateMutability":"view"},{"type":"function","name":"grantRole","inputs":[{"name":"role","type":"bytes32","internalType":"bytes32"},{"name":"account","type":"address","internalType":"address"}],"outputs":[],"stateMutability":"nonpayable"},{"type":"function","name":"hasRole","inputs":[{"name":"role","type":"bytes32","internalType":"bytes32"},{"name":"account","type":"address","internalType":"address"}],"outputs":[{"name":"","type":"bool","internalType":"bool"}],"stateMutability":"view"},{"type":"function","name":"maxChars","inputs":[],"outputs":[{"name":"","type":"uint16","internalType":"uint16"}],"stateMutability":"view"},{"type":"function","name":"maxRegistrationDuration","inputs":[],"outputs":[{"name":"","type":"uint64","internalType":"uint64"}],"stateMutability":"view"},{"type":"function","name":"minChars","inputs":[],"outputs":[{"name":"","type":"uint16","internalType":"uint16"}],"stateMutability":"view"},{"type":"function","name":"minRegistrationDuration","inputs":[],"outputs":[{"name":"","type":"uint64","internalType":"uint64"}],"stateMutability":"view"},{"type":"function","name":"register","inputs":[{"name":"label","type":"string","internalType":"string"},{"name":"owner","type":"address","internalType":"address"},{"name":"resolver","type":"address","internalType":"address"},{"name":"duration","type":"uint256","internalType":"uint256"},{"name":"secret","type":"bytes32","internalType":"bytes32"}],"outputs":[],"stateMutability":"payable"},{"type":"function","name":"renew","inputs":[{"name":"label","type":"string","internalType":"string"},{"name":"duration","type":"uint256","internalType":"uint256"}],"outputs":[],"stateMutability":"payable"},{"type":"function","name":"renounceRole","inputs":[{"name":"role","type":"bytes32","internalType":"bytes32"},{"name":"callerConfirmation","type":"address","internalType":"address"}],"outputs":[],"stateMutability":"nonpayable"},{"type":"function","name":"rentPrice","inputs":[{"name":"label","type":"string","internalType":"string"},{"name":"duration","type":"uint256","internalType":"uint256"}],"outputs":[{"name":"ethPrice","type":"uint256","internalType":"uint256"}],"stateMutability":"view"},{"type":"function","name":"revokeRole","inputs":[{"name":"role","type":"bytes32","internalType":"bytes32"},{"name":"account","type":"address","internalType":"address"}],"outputs":[],"stateMutability":"nonpayable"},{"type":"function","name":"setParams","inputs":[{"name":"_minRegistrationDuration","type":"uint64","internalType":"uint64"},{"name":"_maxRegistrationDuration","type":"uint64","internalType":"uint64"},{"name":"_minChars","type":"uint16","internalType":"uint16"},{"name":"_maxChars","type":"uint16","internalType":"uint16"}],"outputs":[],"stateMutability":"nonpayable"},{"type":"function","name":"setPricingForAllLengths","inputs":[{"name":"_charAmounts","type":"uint256[]","internalType":"uint256[]"}],"outputs":[],"stateMutability":"nonpayable"},{"type":"function","name":"supportsInterface","inputs":[{"name":"interfaceId","type":"bytes4","internalType":"bytes4"}],"outputs":[{"name":"","type":"bool","internalType":"bool"}],"stateMutability":"view"},{"type":"function","name":"updatePriceForCharLength","inputs":[{"name":"charLength","type":"uint16","internalType":"uint16"},{"name":"charAmount","type":"uint256","internalType":"uint256"}],"outputs":[],"stateMutability":"nonpayable"},{"type":"function","name":"withdraw","inputs":[{"name":"amount","type":"uint256","internalType":"uint256"}],"outputs":[],"stateMutability":"nonpayable"},{"type":"function","name":"withdrawAll","inputs":[],"outputs":[],"stateMutability":"nonpayable"},{"type":"event","name":"NameRegistered","inputs":[{"name":"label","type":"string","indexed":true,"internalType":"string"},{"name":"owner","type":"address","indexed":false,"internalType":"address"},{"name":"cost","type":"uint256","indexed":false,"internalType":"uint256"},{"name":"expires","type":"uint256","indexed":false,"internalType":"uint256"}],"anonymous":false},{"type":"event","name":"NameRenewed","inputs":[{"name":"label","type":"string","indexed":true,"internalType":"string"},{"name":"cost","type":"uint256","indexed":false,"internalType":"uint256"},{"name":"newExpiration","type":"uint256","indexed":false,"internalType":"uint256"}],"anonymous":false},{"type":"event","name":"RoleAdminChanged","inputs":[{"name":"role","type":"bytes32","indexed":true,"internalType":"bytes32"},{"name":"previousAdminRole","type":"bytes32","indexed":true,"internalType":"bytes32"},{"name":"newAdminRole","type":"bytes32","indexed":true,"internalType":"bytes32"}],"anonymous":false},{"type":"event","name":"RoleGranted","inputs":[{"name":"role","type":"bytes32","indexed":true,"internalType":"bytes32"},{"name":"account","type":"address","indexed":true,"internalType":"address"},{"name":"sender","type":"address","indexed":true,"internalType":"address"}],"anonymous":false},{"type":"event","name":"RoleRevoked","inputs":[{"name":"role","type":"bytes32","indexed":true,"internalType":"bytes32"},{"name":"account","type":"address","indexed":true,"internalType":"address"},{"name":"sender","type":"address","indexed":true,"internalType":"address"}],"anonymous":false},{"type":"error","name":"AccessControlBadConfirmation","inputs":[]},{"type":"error","name":"AccessControlUnauthorizedAccount","inputs":[{"name":"account","type":"address","internalType":"address"},{"name":"neededRole","type":"bytes32","internalType":"bytes32"}]},{"type":"error","name":"CannotSetNewCharLengthAmounts","inputs":[]},{"type":"error","name":"CommitmentAlreadyExists","inputs":[{"name":"commitment","type":"bytes32","internalType":"bytes32"}]},{"type":"error","name":"CommitmentNotFound","inputs":[{"name":"commitment","type":"bytes32","internalType":"bytes32"}]},{"type":"error","name":"CommitmentTooNew","inputs":[{"name":"commitment","type":"bytes32","internalType":"bytes32"}]},{"type":"error","name":"InsufficientValue","inputs":[]},{"type":"error","name":"InvalidDuration","inputs":[{"name":"duration","type":"uint256","internalType":"uint256"}]},{"type":"error","name":"WrongNumberOfChars","inputs":[{"name":"label","type":"string","internalType":"string"}]}],"bytecode":{"object":"0x60a060405234801561000f575f5ffd5b50604051612ee4380380612ee48339818101604052810190610031919061027d565b8073ffffffffffffffffffffffffffffffffffffffff1660808173ffffffffffffffffffffffffffffffffffffffff16815250506100775f5f1b336100af60201b60201c565b506100a87fa49807205ce4d355092ef5a8a18f56e8913cf4a201fbe287825b095693c21775336100af60201b60201c565b50506102a8565b5f6100c083836101a460201b60201c565b61019a5760015f5f8581526020019081526020015f205f015f8473ffffffffffffffffffffffffffffffffffffffff1673ffffffffffffffffffffffffffffffffffffffff1681526020019081526020015f205f6101000a81548160ff02191690831515021790555061013761020760201b60201c565b73ffffffffffffffffffffffffffffffffffffffff168273ffffffffffffffffffffffffffffffffffffffff16847f2f8788117e7eff1d82e926ec794901d17c78024a50270940304540a733656f0d60405160405180910390a46001905061019e565b5f90505b92915050565b5f5f5f8481526020019081526020015f205f015f8373ffffffffffffffffffffffffffffffffffffffff1673ffffffffffffffffffffffffffffffffffffffff1681526020019081526020015f205f9054906101000a900460ff16905092915050565b5f33905090565b5f5ffd5b5f73ffffffffffffffffffffffffffffffffffffffff82169050919050565b5f61023b82610212565b9050919050565b5f61024c82610231565b9050919050565b61025c81610242565b8114610266575f5ffd5b50565b5f8151905061027781610253565b92915050565b5f602082840312156102925761029161020e565b5b5f61029f84828501610269565b91505092915050565b608051612c016102e35f395f818161072f01528181610cdd01528181610e4001528181610ee9015281816110a401526114550152612c015ff3fe6080604052600436106101cc575f3560e01c8063853828b6116100f6578063b77e6aa011610094578063c9e8711311610063578063c9e8711314610678578063d547741f146106a2578063f14fcbc8146106ca578063f967c88f146106f2576101cc565b8063b77e6aa0146105e4578063ba8d24791461060c578063c2d180a414610634578063c48561fe14610650576101cc565b80639dbd6227116100d05780639dbd622714610526578063a217fddf14610562578063acf1a8411461058c578063aeb8ce9b146105a8576101cc565b8063853828b6146104aa57806391d14854146104c057806394e82a4c146104fc576101cc565b806336568abe1161016e57806375b238fc1161013d57806375b238fc146103e0578063786930001461040a578063839df9451461043257806383e7f6ff1461046e576101cc565b806336568abe14610316578063444a2d8d1461033e5780634dc800761461037a57806353ba22f6146103a4576101cc565b8063248a9ca3116101aa578063248a9ca3146102605780632e1a7d4d1461029c5780632e4f692a146102c45780632f2ff15d146102ee576101cc565b806301ffc9a7146101d05780630e2c600b1461020c57806312ee468a14610236575b5f5ffd5b3480156101db575f5ffd5b506101f660048036038101906101f19190611ca3565b61071c565b6040516102039190611ce8565b60405180910390f35b348015610217575f5ffd5b5061022061072d565b60405161022d9190611d7b565b60405180910390f35b348015610241575f5ffd5b5061024a610751565b6040516102579190611dac565b60405180910390f35b34801561026b575f5ffd5b5061028660048036038101906102819190611df8565b610769565b6040516102939190611e32565b60405180910390f35b3480156102a7575f5ffd5b506102c260048036038101906102bd9190611e75565b610785565b005b3480156102cf575f5ffd5b506102d861089f565b6040516102e59190611dac565b60405180910390f35b3480156102f9575f5ffd5b50610314600480360381019061030f9190611edb565b6108a4565b005b348015610321575f5ffd5b5061033c60048036038101906103379190611edb565b6108c6565b005b348015610349575f5ffd5b50610364600480360381019061035f9190611e75565b610941565b6040516103719190611dac565b60405180910390f35b348015610385575f5ffd5b5061038e610961565b60405161039b9190611f35565b60405180910390f35b3480156103af575f5ffd5b506103ca60048036038101906103c5919061208a565b610975565b6040516103d79190611e32565b60405180910390f35b3480156103eb575f5ffd5b506103f46109b0565b6040516104019190611e32565b60405180910390f35b348015610415575f5ffd5b50610430600480360381019061042b9190612147565b6109d4565b005b34801561043d575f5ffd5b5061045860048036038101906104539190611df8565b610a77565b6040516104659190611dac565b60405180910390f35b348015610479575f5ffd5b50610494600480360381019061048f9190612185565b610a8c565b6040516104a19190611dac565b60405180910390f35b3480156104b5575f5ffd5b506104be610b3f565b005b3480156104cb575f5ffd5b506104e660048036038101906104e19190611edb565b610c1a565b6040516104f39190611ce8565b60405180910390f35b348015610507575f5ffd5b50610510610c7d565b60405161051d9190611f35565b60405180910390f35b348015610531575f5ffd5b5061054c600480360381019061054791906121df565b610c91565b6040516105599190611dac565b60405180910390f35b34801561056d575f5ffd5b50610576610cba565b6040516105839190611e32565b60405180910390f35b6105a660048036038101906105a19190612267565b610cc0565b005b3480156105b3575f5ffd5b506105ce60048036038101906105c991906122c4565b611086565b6040516105db9190611ce8565b60405180910390f35b3480156105ef575f5ffd5b5061060a60048036038101906106059190612348565b611143565b005b348015610617575f5ffd5b50610632600480360381019061062d9190612401565b6111ff565b005b61064e6004803603810190610649919061244c565b61124d565b005b34801561065b575f5ffd5b5061067660048036038101906106719190611e75565b61160f565b005b348015610683575f5ffd5b5061068c611663565b60405161069991906124f1565b60405180910390f35b3480156106ad575f5ffd5b506106c860048036038101906106c39190611edb565b61167c565b005b3480156106d5575f5ffd5b506106f060048036038101906106eb9190611df8565b61169e565b005b3480156106fd575f5ffd5b5061070661170c565b60405161071391906124f1565b60405180910390f35b5f61072682611726565b9050919050565b7f000000000000000000000000000000000000000000000000000000000000000081565b5f60016003805490506107649190612537565b905090565b5f5f5f8381526020019081526020015f20600101549050919050565b7fa49807205ce4d355092ef5a8a18f56e8913cf4a201fbe287825b095693c217756107af8161179f565b478211156107f2576040517f08c379a00000000000000000000000000000000000000000000000000000000081526004016107e9906125c4565b60405180910390fd5b5f3373ffffffffffffffffffffffffffffffffffffffff16836040516108179061260f565b5f6040518083038185875af1925050503d805f8114610851576040519150601f19603f3d011682016040523d82523d5f602084013e610856565b606091505b505090508061089a576040517f08c379a00000000000000000000000000000000000000000000000000000000081526004016108919061266d565b60405180910390fd5b505050565b603c81565b6108ad82610769565b6108b68161179f565b6108c083836117b3565b50505050565b6108ce61189c565b73ffffffffffffffffffffffffffffffffffffffff168173ffffffffffffffffffffffffffffffffffffffff1614610932576040517f6697b23200000000000000000000000000000000000000000000000000000000815260040160405180910390fd5b61093c82826118a3565b505050565b60038181548110610950575f80fd5b905f5260205f20015f915090505481565b600260129054906101000a900461ffff1681565b5f858585858560405160200161098f959493929190612762565b60405160208183030381529060405280519060200120905095945050505050565b7fa49807205ce4d355092ef5a8a18f56e8913cf4a201fbe287825b095693c2177581565b7fa49807205ce4d355092ef5a8a18f56e8913cf4a201fbe287825b095693c217756109fe8161179f565b6001600380549050610a109190612537565b8361ffff161115610a4d576040517fe6dd59dc00000000000000000000000000000000000000000000000000000000815260040160405180910390fd5b8160038461ffff1681548110610a6657610a656127bc565b5b905f5260205f200181905550505050565b6001602052805f5260405f205f915090505481565b5f5f835190505f60038054905090505f5f821115610b1c5781831015610af75760038381548110610ac057610abf6127bc565b5b905f5260205f20015490505f8103610af25760035f81548110610ae657610ae56127bc565b5b905f5260205f20015490505b610b17565b60035f81548110610b0b57610b0a6127bc565b5b905f5260205f20015490505b610b27565b5f9350505050610b39565b8481610b3391906127e9565b93505050505b92915050565b7fa49807205ce4d355092ef5a8a18f56e8913cf4a201fbe287825b095693c21775610b698161179f565b5f4790505f3373ffffffffffffffffffffffffffffffffffffffff1682604051610b929061260f565b5f6040518083038185875af1925050503d805f8114610bcc576040519150601f19603f3d011682016040523d82523d5f602084013e610bd1565b606091505b5050905080610c15576040517f08c379a0000000000000000000000000000000000000000000000000000000008152600401610c0c9061266d565b60405180910390fd5b505050565b5f5f5f8481526020019081526020015f205f015f8373ffffffffffffffffffffffffffffffffffffffff1673ffffffffffffffffffffffffffffffffffffffff1681526020019081526020015f205f9054906101000a900460ff16905092915050565b600260109054906101000a900461ffff1681565b5f60038261ffff1681548110610caa57610ca96127bc565b5b905f5260205f2001549050919050565b5f5f1b81565b5f8383604051610cd192919061284e565b604051809103902090507f000000000000000000000000000000000000000000000000000000000000000073ffffffffffffffffffffffffffffffffffffffff16636db2feb2826040518263ffffffff1660e01b8152600401610d349190611e32565b602060405180830381865afa158015610d4f573d5f5f3e3d5ffd5b505050506040513d601f19601f82011682018060405250810190610d739190612890565b15610db3576040517f08c379a0000000000000000000000000000000000000000000000000000000008152600401610daa90612905565b60405180910390fd5b5f610e0185858080601f0160208091040260200160405190810160405280939291908181526020018383808284375f81840152601f19601f8201169050808301925050505050505084610a8c565b905080341015610e3d576040517f1101129400000000000000000000000000000000000000000000000000000000815260040160405180910390fd5b5f7f000000000000000000000000000000000000000000000000000000000000000073ffffffffffffffffffffffffffffffffffffffff1663ef1590b8846040518263ffffffff1660e01b8152600401610e979190611e32565b602060405180830381865afa158015610eb2573d5f5f3e3d5ffd5b505050506040513d601f19601f82011682018060405250810190610ed69190612937565b90505f8482610ee59190612962565b90507f000000000000000000000000000000000000000000000000000000000000000073ffffffffffffffffffffffffffffffffffffffff16636903f9e385836040518363ffffffff1660e01b8152600401610f42929190612995565b5f604051808303815f87803b158015610f59575f5ffd5b505af1158015610f6b573d5f5f3e3d5ffd5b505050508234111561102c575f3373ffffffffffffffffffffffffffffffffffffffff168434610f9b9190612537565b604051610fa79061260f565b5f6040518083038185875af1925050503d805f8114610fe1576040519150601f19603f3d011682016040523d82523d5f602084013e610fe6565b606091505b505090508061102a576040517f08c379a000000000000000000000000000000000000000000000000000000000815260040161102190612a06565b60405180910390fd5b505b868660405161103c929190612a48565b60405180910390207f983587df6b7b703c7d9c0d9fdb64ad88e85b07e5663a41f2ff95d8313abd66068483604051611075929190612a60565b60405180910390a250505050505050565b5f5f8280519060200120905061109b8361198c565b801561113b57507f000000000000000000000000000000000000000000000000000000000000000073ffffffffffffffffffffffffffffffffffffffff16636db2feb2826040518263ffffffff1660e01b81526004016110fb9190611e32565b602060405180830381865afa158015611116573d5f5f3e3d5ffd5b505050506040513d601f19601f8201168201806040525081019061113a9190612890565b5b915050919050565b7fa49807205ce4d355092ef5a8a18f56e8913cf4a201fbe287825b095693c2177561116d8161179f565b8460025f6101000a81548167ffffffffffffffff021916908367ffffffffffffffff16021790555083600260086101000a81548167ffffffffffffffff021916908367ffffffffffffffff16021790555082600260106101000a81548161ffff021916908361ffff16021790555081600260126101000a81548161ffff021916908361ffff1602179055505050505050565b7fa49807205ce4d355092ef5a8a18f56e8913cf4a201fbe287825b095693c217756112298161179f565b60035f6112369190611bb9565b828260039190611247929190611bd7565b50505050565b61129d86868080601f0160208091040260200160405190810160405280939291908181526020018383808284375f81840152601f19601f8201169050808301925050505050505085858585611a06565b60025f9054906101000a900467ffffffffffffffff1667ffffffffffffffff168210806112e95750600260089054906101000a900467ffffffffffffffff1667ffffffffffffffff1682115b1561132b57816040517f4ede0ebc0000000000000000000000000000000000000000000000000000000081526004016113229190611dac565b60405180910390fd5b61137786868080601f0160208091040260200160405190810160405280939291908181526020018383808284375f81840152601f19601f8201169050808301925050505050505061198c565b6113ba5785856040517f7df0e7550000000000000000000000000000000000000000000000000000000081526004016113b1929190612ab3565b60405180910390fd5b5f61140887878080601f0160208091040260200160405190810160405280939291908181526020018383808284375f81840152601f19601f8201169050808301925050505050505084610a8c565b905080341015611444576040517f1101129400000000000000000000000000000000000000000000000000000000815260040160405180910390fd5b5f83426114519190612962565b90507f000000000000000000000000000000000000000000000000000000000000000073ffffffffffffffffffffffffffffffffffffffff1663124313d989898989866040518663ffffffff1660e01b81526004016114b4959493929190612ae4565b6020604051808303815f875af11580156114d0573d5f5f3e3d5ffd5b505050506040513d601f19601f820116820180604052508101906114f49190612b44565b50813411156115b2575f3373ffffffffffffffffffffffffffffffffffffffff1683346115219190612537565b60405161152d9061260f565b5f6040518083038185875af1925050503d805f8114611567576040519150601f19603f3d011682016040523d82523d5f602084013e61156c565b606091505b50509050806115b0576040517f08c379a00000000000000000000000000000000000000000000000000000000081526004016115a790612a06565b60405180910390fd5b505b87876040516115c2929190612a48565b60405180910390207ff7ab1b84e0afb8ee4014a7fc4343c995a6eed5d4a096d59940f33ef56efc58518784846040516115fd93929190612b6f565b60405180910390a25050505050505050565b7fa49807205ce4d355092ef5a8a18f56e8913cf4a201fbe287825b095693c217756116398161179f565b600382908060018154018082558091505060019003905f5260205f20015f90919091909150555050565b60025f9054906101000a900467ffffffffffffffff1681565b61168582610769565b61168e8161179f565b61169883836118a3565b50505050565b5f60015f8381526020019081526020015f2054146116f357806040517fc5f89f050000000000000000000000000000000000000000000000000000000081526004016116ea9190611e32565b60405180910390fd5b4260015f8381526020019081526020015f208190555050565b600260089054906101000a900467ffffffffffffffff1681565b5f7f7965db0b000000000000000000000000000000000000000000000000000000007bffffffffffffffffffffffffffffffffffffffffffffffffffffffff1916827bffffffffffffffffffffffffffffffffffffffffffffffffffffffff19161480611798575061179782611aff565b5b9050919050565b6117b0816117ab61189c565b611b68565b50565b5f6117be8383610c1a565b6118925760015f5f8581526020019081526020015f205f015f8473ffffffffffffffffffffffffffffffffffffffff1673ffffffffffffffffffffffffffffffffffffffff1681526020019081526020015f205f6101000a81548160ff02191690831515021790555061182f61189c565b73ffffffffffffffffffffffffffffffffffffffff168273ffffffffffffffffffffffffffffffffffffffff16847f2f8788117e7eff1d82e926ec794901d17c78024a50270940304540a733656f0d60405160405180910390a460019050611896565b5f90505b92915050565b5f33905090565b5f6118ae8383610c1a565b15611982575f5f5f8581526020019081526020015f205f015f8473ffffffffffffffffffffffffffffffffffffffff1673ffffffffffffffffffffffffffffffffffffffff1681526020019081526020015f205f6101000a81548160ff02191690831515021790555061191f61189c565b73ffffffffffffffffffffffffffffffffffffffff168273ffffffffffffffffffffffffffffffffffffffff16847ff6391f5c32d9c69d2a47ea670b442974b53935d1edc7fd64eb21e047a839171b60405160405180910390a460019050611986565b5f90505b92915050565b5f5f82519050600260109054906101000a900461ffff1661ffff1681106119fc575f600260129054906101000a900461ffff1661ffff16141580156119e45750600260129054906101000a900461ffff1661ffff1681115b156119f2575f915050611a01565b6001915050611a01565b5f9150505b919050565b5f8585858585604051602001611a20959493929190612762565b6040516020818303038152906040528051906020012090505f60015f8381526020019081526020015f205490505f8103611a9157816040517f836588c9000000000000000000000000000000000000000000000000000000008152600401611a889190611e32565b60405180910390fd5b603c81611a9e9190612962565b421015611ae257816040517f5320bcf9000000000000000000000000000000000000000000000000000000008152600401611ad99190611e32565b60405180910390fd5b60015f8381526020019081526020015f205f905550505050505050565b5f7f01ffc9a7000000000000000000000000000000000000000000000000000000007bffffffffffffffffffffffffffffffffffffffffffffffffffffffff1916827bffffffffffffffffffffffffffffffffffffffffffffffffffffffff1916149050919050565b611b728282610c1a565b611bb55780826040517fe2517d3f000000000000000000000000000000000000000000000000000000008152600401611bac929190612ba4565b60405180910390fd5b5050565b5080545f8255905f5260205f2090810190611bd49190611c22565b50565b828054828255905f5260205f20908101928215611c11579160200282015b82811115611c10578235825591602001919060010190611bf5565b5b509050611c1e9190611c22565b5090565b5b80821115611c39575f815f905550600101611c23565b5090565b5f604051905090565b5f5ffd5b5f5ffd5b5f7fffffffff0000000000000000000000000000000000000000000000000000000082169050919050565b611c8281611c4e565b8114611c8c575f5ffd5b50565b5f81359050611c9d81611c79565b92915050565b5f60208284031215611cb857611cb7611c46565b5b5f611cc584828501611c8f565b91505092915050565b5f8115159050919050565b611ce281611cce565b82525050565b5f602082019050611cfb5f830184611cd9565b92915050565b5f73ffffffffffffffffffffffffffffffffffffffff82169050919050565b5f819050919050565b5f611d43611d3e611d3984611d01565b611d20565b611d01565b9050919050565b5f611d5482611d29565b9050919050565b5f611d6582611d4a565b9050919050565b611d7581611d5b565b82525050565b5f602082019050611d8e5f830184611d6c565b92915050565b5f819050919050565b611da681611d94565b82525050565b5f602082019050611dbf5f830184611d9d565b92915050565b5f819050919050565b611dd781611dc5565b8114611de1575f5ffd5b50565b5f81359050611df281611dce565b92915050565b5f60208284031215611e0d57611e0c611c46565b5b5f611e1a84828501611de4565b91505092915050565b611e2c81611dc5565b82525050565b5f602082019050611e455f830184611e23565b92915050565b611e5481611d94565b8114611e5e575f5ffd5b50565b5f81359050611e6f81611e4b565b92915050565b5f60208284031215611e8a57611e89611c46565b5b5f611e9784828501611e61565b91505092915050565b5f611eaa82611d01565b9050919050565b611eba81611ea0565b8114611ec4575f5ffd5b50565b5f81359050611ed581611eb1565b92915050565b5f5f60408385031215611ef157611ef0611c46565b5b5f611efe85828601611de4565b9250506020611f0f85828601611ec7565b9150509250929050565b5f61ffff82169050919050565b611f2f81611f19565b82525050565b5f602082019050611f485f830184611f26565b92915050565b5f5ffd5b5f5ffd5b5f601f19601f8301169050919050565b7f4e487b71000000000000000000000000000000000000000000000000000000005f52604160045260245ffd5b611f9c82611f56565b810181811067ffffffffffffffff82111715611fbb57611fba611f66565b5b80604052505050565b5f611fcd611c3d565b9050611fd98282611f93565b919050565b5f67ffffffffffffffff821115611ff857611ff7611f66565b5b61200182611f56565b9050602081019050919050565b828183375f83830152505050565b5f61202e61202984611fde565b611fc4565b90508281526020810184848401111561204a57612049611f52565b5b61205584828561200e565b509392505050565b5f82601f83011261207157612070611f4e565b5b813561208184826020860161201c565b91505092915050565b5f5f5f5f5f60a086880312156120a3576120a2611c46565b5b5f86013567ffffffffffffffff8111156120c0576120bf611c4a565b5b6120cc8882890161205d565b95505060206120dd88828901611ec7565b94505060406120ee88828901611ec7565b93505060606120ff88828901611e61565b925050608061211088828901611de4565b9150509295509295909350565b61212681611f19565b8114612130575f5ffd5b50565b5f813590506121418161211d565b92915050565b5f5f6040838503121561215d5761215c611c46565b5b5f61216a85828601612133565b925050602061217b85828601611e61565b9150509250929050565b5f5f6040838503121561219b5761219a611c46565b5b5f83013567ffffffffffffffff8111156121b8576121b7611c4a565b5b6121c48582860161205d565b92505060206121d585828601611e61565b9150509250929050565b5f602082840312156121f4576121f3611c46565b5b5f61220184828501612133565b91505092915050565b5f5ffd5b5f5ffd5b5f5f83601f84011261222757612226611f4e565b5b8235905067ffffffffffffffff8111156122445761224361220a565b5b6020830191508360018202830111156122605761225f61220e565b5b9250929050565b5f5f5f6040848603121561227e5761227d611c46565b5b5f84013567ffffffffffffffff81111561229b5761229a611c4a565b5b6122a786828701612212565b935093505060206122ba86828701611e61565b9150509250925092565b5f602082840312156122d9576122d8611c46565b5b5f82013567ffffffffffffffff8111156122f6576122f5611c4a565b5b6123028482850161205d565b91505092915050565b5f67ffffffffffffffff82169050919050565b6123278161230b565b8114612331575f5ffd5b50565b5f813590506123428161231e565b92915050565b5f5f5f5f608085870312156123605761235f611c46565b5b5f61236d87828801612334565b945050602061237e87828801612334565b935050604061238f87828801612133565b92505060606123a087828801612133565b91505092959194509250565b5f5f83601f8401126123c1576123c0611f4e565b5b8235905067ffffffffffffffff8111156123de576123dd61220a565b5b6020830191508360208202830111156123fa576123f961220e565b5b9250929050565b5f5f6020838503121561241757612416611c46565b5b5f83013567ffffffffffffffff81111561243457612433611c4a565b5b612440858286016123ac565b92509250509250929050565b5f5f5f5f5f5f60a0878903121561246657612465611c46565b5b5f87013567ffffffffffffffff81111561248357612482611c4a565b5b61248f89828a01612212565b965096505060206124a289828a01611ec7565b94505060406124b389828a01611ec7565b93505060606124c489828a01611e61565b92505060806124d589828a01611de4565b9150509295509295509295565b6124eb8161230b565b82525050565b5f6020820190506125045f8301846124e2565b92915050565b7f4e487b71000000000000000000000000000000000000000000000000000000005f52601160045260245ffd5b5f61254182611d94565b915061254c83611d94565b92508282039050818111156125645761256361250a565b5b92915050565b5f82825260208201905092915050565b7f496e73756666696369656e7420636f6e74726163742062616c616e63650000005f82015250565b5f6125ae601d8361256a565b91506125b98261257a565b602082019050919050565b5f6020820190508181035f8301526125db816125a2565b9050919050565b5f81905092915050565b50565b5f6125fa5f836125e2565b9150612605826125ec565b5f82019050919050565b5f612619826125ef565b9150819050919050565b7f5472616e73666572206661696c656400000000000000000000000000000000005f82015250565b5f612657600f8361256a565b915061266282612623565b602082019050919050565b5f6020820190508181035f8301526126848161264b565b9050919050565b5f81519050919050565b5f81905092915050565b8281835e5f83830152505050565b5f6126b78261268b565b6126c18185612695565b93506126d181856020860161269f565b80840191505092915050565b5f8160601b9050919050565b5f6126f3826126dd565b9050919050565b5f612704826126e9565b9050919050565b61271c61271782611ea0565b6126fa565b82525050565b5f819050919050565b61273c61273782611d94565b612722565b82525050565b5f819050919050565b61275c61275782611dc5565b612742565b82525050565b5f61276d82886126ad565b9150612779828761270b565b601482019150612789828661270b565b601482019150612799828561272b565b6020820191506127a9828461274b565b6020820191508190509695505050505050565b7f4e487b71000000000000000000000000000000000000000000000000000000005f52603260045260245ffd5b5f6127f382611d94565b91506127fe83611d94565b925082820261280c81611d94565b915082820484148315176128235761282261250a565b5b5092915050565b5f61283583856125e2565b935061284283858461200e565b82840190509392505050565b5f61285a82848661282a565b91508190509392505050565b61286f81611cce565b8114612879575f5ffd5b50565b5f8151905061288a81612866565b92915050565b5f602082840312156128a5576128a4611c46565b5b5f6128b28482850161287c565b91505092915050565b7f4e616d65206973206578706972656400000000000000000000000000000000005f82015250565b5f6128ef600f8361256a565b91506128fa826128bb565b602082019050919050565b5f6020820190508181035f83015261291c816128e3565b9050919050565b5f8151905061293181611e4b565b92915050565b5f6020828403121561294c5761294b611c46565b5b5f61295984828501612923565b91505092915050565b5f61296c82611d94565b915061297783611d94565b925082820190508082111561298f5761298e61250a565b5b92915050565b5f6040820190506129a85f830185611e23565b6129b56020830184611d9d565b9392505050565b7f526566756e64206661696c6564000000000000000000000000000000000000005f82015250565b5f6129f0600d8361256a565b91506129fb826129bc565b602082019050919050565b5f6020820190508181035f830152612a1d816129e4565b9050919050565b5f612a2f8385612695565b9350612a3c83858461200e565b82840190509392505050565b5f612a54828486612a24565b91508190509392505050565b5f604082019050612a735f830185611d9d565b612a806020830184611d9d565b9392505050565b5f612a92838561256a565b9350612a9f83858461200e565b612aa883611f56565b840190509392505050565b5f6020820190508181035f830152612acc818486612a87565b90509392505050565b612ade81611ea0565b82525050565b5f6080820190508181035f830152612afd818789612a87565b9050612b0c6020830186612ad5565b612b196040830185612ad5565b612b266060830184611d9d565b9695505050505050565b5f81519050612b3e81611dce565b92915050565b5f60208284031215612b5957612b58611c46565b5b5f612b6684828501612b30565b91505092915050565b5f606082019050612b825f830186612ad5565b612b8f6020830185611d9d565b612b9c6040830184611d9d565b949350505050565b5f604082019050612bb75f830185612ad5565b612bc46020830184611e23565b939250505056fea26469706673582212208187978963e45a74f3147d08c8f5f0d7ad1c0773340b70a81f77fc5ee3a3d6f464736f6c634300081e0033","linkReferences":{}},"methodIdentifiers":{"ADMIN_ROLE()":"75b238fc","DEFAULT_ADMIN_ROLE()":"a217fddf","MIN_COMMITMENT_AGE()":"2e4f692a","addNextPriceForCharLength(uint256)":"c48561fe","available(string)":"aeb8ce9b","charAmounts(uint256)":"444a2d8d","commit(bytes32)":"f14fcbc8","commitments(bytes32)":"839df945","createCommitment(string,address,address,uint256,bytes32)":"53ba22f6","ecsRegistry()":"0e2c600b","getLastCharIndex()":"12ee468a","getPriceDataForLength(uint16)":"9dbd6227","getRoleAdmin(bytes32)":"248a9ca3","grantRole(bytes32,address)":"2f2ff15d","hasRole(bytes32,address)":"91d14854","maxChars()":"4dc80076","maxRegistrationDuration()":"f967c88f","minChars()":"94e82a4c","minRegistrationDuration()":"c9e87113","register(string,address,address,uint256,bytes32)":"c2d180a4","renew(string,uint256)":"acf1a841","renounceRole(bytes32,address)":"36568abe","rentPrice(string,uint256)":"83e7f6ff","revokeRole(bytes32,address)":"d547741f","setParams(uint64,uint64,uint16,uint16)":"b77e6aa0","setPricingForAllLengths(uint256[])":"ba8d2479","supportsInterface(bytes4)":"01ffc9a7","updatePriceForCharLength(uint16,uint256)":"78693000","withdraw(uint256)":"2e1a7d4d","withdrawAll()":"853828b6"},"id":24}