{"abi":[{"type":"constructor","inputs":[],"stateMutability":"nonpayable"},{"type":"function","name":"ADMIN_ROLE","inputs":[],"outputs":[{"name":"","type":"bytes32","internalType":"bytes32"}],"stateMutability":"view"},{"type":"function","name":"DEFAULT_ADMIN_ROLE","inputs":[],"outputs":[{"name":"","type":"bytes32","internalType":"bytes32"}],"stateMutability":"view"},{"type":"function","name":"MIN_COMMITMENT_AGE","inputs":[],"outputs":[{"name":"","type":"uint256","internalType":"uint256"}],"stateMutability":"view"},{"type":"function","name":"REGISTRAR_ROLE","inputs":[],"outputs":[{"name":"","type":"bytes32","internalType":"bytes32"}],"stateMutability":"view"},{"type":"function","name":"approvals","inputs":[{"name":"owner","type":"address","internalType":"address"},{"name":"approved","type":"address","internalType":"address"}],"outputs":[{"name":"","type":"bool","internalType":"bool"}],"stateMutability":"view"},{"type":"function","name":"commit","inputs":[{"name":"commitment","type":"bytes32","internalType":"bytes32"}],"outputs":[],"stateMutability":"nonpayable"},{"type":"function","name":"commitments","inputs":[{"name":"","type":"bytes32","internalType":"bytes32"}],"outputs":[{"name":"","type":"uint256","internalType":"uint256"}],"stateMutability":"view"},{"type":"function","name":"createCommitment","inputs":[{"name":"labelhash","type":"bytes32","internalType":"bytes32"},{"name":"owner","type":"address","internalType":"address"},{"name":"resolver","type":"address","internalType":"address"},{"name":"secret","type":"bytes32","internalType":"bytes32"}],"outputs":[{"name":"","type":"bytes32","internalType":"bytes32"}],"stateMutability":"pure"},{"type":"function","name":"extendExpiration","inputs":[{"name":"labelhash","type":"bytes32","internalType":"bytes32"},{"name":"newExpiration","type":"uint256","internalType":"uint256"}],"outputs":[],"stateMutability":"nonpayable"},{"type":"function","name":"getExpiration","inputs":[{"name":"labelhash","type":"bytes32","internalType":"bytes32"}],"outputs":[{"name":"","type":"uint256","internalType":"uint256"}],"stateMutability":"view"},{"type":"function","name":"getLabel","inputs":[{"name":"labelhash","type":"bytes32","internalType":"bytes32"}],"outputs":[{"name":"","type":"string","internalType":"string"}],"stateMutability":"view"},{"type":"function","name":"getLabelByResolver","inputs":[{"name":"resolver_","type":"address","internalType":"address"}],"outputs":[{"name":"","type":"string","internalType":"string"}],"stateMutability":"view"},{"type":"function","name":"getRoleAdmin","inputs":[{"name":"role","type":"bytes32","internalType":"bytes32"}],"outputs":[{"name":"","type":"bytes32","internalType":"bytes32"}],"stateMutability":"view"},{"type":"function","name":"grantRole","inputs":[{"name":"role","type":"bytes32","internalType":"bytes32"},{"name":"account","type":"address","internalType":"address"}],"outputs":[],"stateMutability":"nonpayable"},{"type":"function","name":"hasRole","inputs":[{"name":"role","type":"bytes32","internalType":"bytes32"},{"name":"account","type":"address","internalType":"address"}],"outputs":[{"name":"","type":"bool","internalType":"bool"}],"stateMutability":"view"},{"type":"function","name":"isExpired","inputs":[{"name":"labelhash","type":"bytes32","internalType":"bytes32"}],"outputs":[{"name":"","type":"bool","internalType":"bool"}],"stateMutability":"view"},{"type":"function","name":"owner","inputs":[{"name":"labelhash","type":"bytes32","internalType":"bytes32"}],"outputs":[{"name":"","type":"address","internalType":"address"}],"stateMutability":"view"},{"type":"function","name":"renounceRole","inputs":[{"name":"role","type":"bytes32","internalType":"bytes32"},{"name":"callerConfirmation","type":"address","internalType":"address"}],"outputs":[],"stateMutability":"nonpayable"},{"type":"function","name":"resolver","inputs":[{"name":"labelhash","type":"bytes32","internalType":"bytes32"}],"outputs":[{"name":"","type":"address","internalType":"address"}],"stateMutability":"view"},{"type":"function","name":"resolverToLabelhash","inputs":[{"name":"resolver","type":"address","internalType":"address"}],"outputs":[{"name":"labelhash","type":"bytes32","internalType":"bytes32"}],"stateMutability":"view"},{"type":"function","name":"revokeRole","inputs":[{"name":"role","type":"bytes32","internalType":"bytes32"},{"name":"account","type":"address","internalType":"address"}],"outputs":[],"stateMutability":"nonpayable"},{"type":"function","name":"setApprovalForAll","inputs":[{"name":"operator","type":"address","internalType":"address"},{"name":"approved","type":"bool","internalType":"bool"}],"outputs":[],"stateMutability":"nonpayable"},{"type":"function","name":"setLabelhashRecord","inputs":[{"name":"label","type":"string","internalType":"string"},{"name":"newOwner","type":"address","internalType":"address"},{"name":"resolver_","type":"address","internalType":"address"},{"name":"expiration","type":"uint256","internalType":"uint256"}],"outputs":[{"name":"","type":"bytes32","internalType":"bytes32"}],"stateMutability":"nonpayable"},{"type":"function","name":"setOwner","inputs":[{"name":"labelhash","type":"bytes32","internalType":"bytes32"},{"name":"newOwner","type":"address","internalType":"address"}],"outputs":[],"stateMutability":"nonpayable"},{"type":"function","name":"setRecord","inputs":[{"name":"labelhash","type":"bytes32","internalType":"bytes32"},{"name":"newOwner","type":"address","internalType":"address"},{"name":"resolver_","type":"address","internalType":"address"},{"name":"secret","type":"bytes32","internalType":"bytes32"}],"outputs":[],"stateMutability":"nonpayable"},{"type":"function","name":"setResolver","inputs":[{"name":"labelhash","type":"bytes32","internalType":"bytes32"},{"name":"resolver_","type":"address","internalType":"address"},{"name":"secret","type":"bytes32","internalType":"bytes32"}],"outputs":[],"stateMutability":"nonpayable"},{"type":"function","name":"supportsInterface","inputs":[{"name":"interfaceId","type":"bytes4","internalType":"bytes4"}],"outputs":[{"name":"","type":"bool","internalType":"bool"}],"stateMutability":"view"},{"type":"event","name":"ApprovalForAll","inputs":[{"name":"owner","type":"address","indexed":true,"internalType":"address"},{"name":"operator","type":"address","indexed":true,"internalType":"address"},{"name":"approved","type":"bool","indexed":false,"internalType":"bool"}],"anonymous":false},{"type":"event","name":"ExpirationExtended","inputs":[{"name":"labelhash","type":"bytes32","indexed":true,"internalType":"bytes32"},{"name":"newExpiration","type":"uint256","indexed":false,"internalType":"uint256"}],"anonymous":false},{"type":"event","name":"NewLabelhashOwner","inputs":[{"name":"labelhash","type":"bytes32","indexed":true,"internalType":"bytes32"},{"name":"label","type":"string","indexed":true,"internalType":"string"},{"name":"owner","type":"address","indexed":false,"internalType":"address"}],"anonymous":false},{"type":"event","name":"ResolverChanged","inputs":[{"name":"labelhash","type":"bytes32","indexed":true,"internalType":"bytes32"},{"name":"resolver","type":"address","indexed":false,"internalType":"address"}],"anonymous":false},{"type":"event","name":"RoleAdminChanged","inputs":[{"name":"role","type":"bytes32","indexed":true,"internalType":"bytes32"},{"name":"previousAdminRole","type":"bytes32","indexed":true,"internalType":"bytes32"},{"name":"newAdminRole","type":"bytes32","indexed":true,"internalType":"bytes32"}],"anonymous":false},{"type":"event","name":"RoleGranted","inputs":[{"name":"role","type":"bytes32","indexed":true,"internalType":"bytes32"},{"name":"account","type":"address","indexed":true,"internalType":"address"},{"name":"sender","type":"address","indexed":true,"internalType":"address"}],"anonymous":false},{"type":"event","name":"RoleRevoked","inputs":[{"name":"role","type":"bytes32","indexed":true,"internalType":"bytes32"},{"name":"account","type":"address","indexed":true,"internalType":"address"},{"name":"sender","type":"address","indexed":true,"internalType":"address"}],"anonymous":false},{"type":"event","name":"Transfer","inputs":[{"name":"labelhash","type":"bytes32","indexed":true,"internalType":"bytes32"},{"name":"owner","type":"address","indexed":false,"internalType":"address"}],"anonymous":false},{"type":"event","name":"labelhashRentalSet","inputs":[{"name":"labelhash","type":"bytes32","indexed":true,"internalType":"bytes32"},{"name":"expiration","type":"uint256","indexed":false,"internalType":"uint256"}],"anonymous":false},{"type":"error","name":"AccessControlBadConfirmation","inputs":[]},{"type":"error","name":"AccessControlUnauthorizedAccount","inputs":[{"name":"account","type":"address","internalType":"address"},{"name":"neededRole","type":"bytes32","internalType":"bytes32"}]},{"type":"error","name":"CannotReduceExpirationTime","inputs":[{"name":"currentExpiration","type":"uint256","internalType":"uint256"},{"name":"newExpiration","type":"uint256","internalType":"uint256"}]},{"type":"error","name":"CoinTypesArrayLengthMismatch","inputs":[{"name":"coinTypesLength","type":"uint256","internalType":"uint256"},{"name":"addressesLength","type":"uint256","internalType":"uint256"}]},{"type":"error","name":"CommitmentAlreadyExists","inputs":[{"name":"commitment","type":"bytes32","internalType":"bytes32"}]},{"type":"error","name":"CommitmentNotFound","inputs":[{"name":"commitment","type":"bytes32","internalType":"bytes32"}]},{"type":"error","name":"CommitmentTooNew","inputs":[{"name":"commitment","type":"bytes32","internalType":"bytes32"}]},{"type":"error","name":"KeysArrayLengthMismatch","inputs":[{"name":"keysLength","type":"uint256","internalType":"uint256"},{"name":"valuesLength","type":"uint256","internalType":"uint256"}]},{"type":"error","name":"NotAuthorised","inputs":[{"name":"labelhash","type":"bytes32","internalType":"bytes32"},{"name":"caller","type":"address","internalType":"address"}]},{"type":"error","name":"NotRegistrar","inputs":[{"name":"labelhash","type":"bytes32","internalType":"bytes32"},{"name":"caller","type":"address","internalType":"address"}]},{"type":"error","name":"ResolverAlreadyInUse","inputs":[{"name":"resolver","type":"address","internalType":"address"},{"name":"labelhash","type":"bytes32","internalType":"bytes32"}]},{"type":"error","name":"labelhashDoesNotExist","inputs":[{"name":"labelhash","type":"bytes32","internalType":"bytes32"}]},{"type":"error","name":"labelhashNotExpired","inputs":[{"name":"labelhash","type":"bytes32","internalType":"bytes32"},{"name":"expiration","type":"uint256","internalType":"uint256"}]},{"type":"error","name":"labelhashNotSet","inputs":[{"name":"labelhash","type":"bytes32","internalType":"bytes32"}]}],"bytecode":{"object":"0x608060405234801561000f575f5ffd5b506100225f5f1b3361005960201b60201c565b506100537fa49807205ce4d355092ef5a8a18f56e8913cf4a201fbe287825b095693c217753361005960201b60201c565b506101b8565b5f61006a838361014e60201b60201c565b6101445760015f5f8581526020019081526020015f205f015f8473ffffffffffffffffffffffffffffffffffffffff1673ffffffffffffffffffffffffffffffffffffffff1681526020019081526020015f205f6101000a81548160ff0219169083151502179055506100e16101b160201b60201c565b73ffffffffffffffffffffffffffffffffffffffff168273ffffffffffffffffffffffffffffffffffffffff16847f2f8788117e7eff1d82e926ec794901d17c78024a50270940304540a733656f0d60405160405180910390a460019050610148565b5f90505b92915050565b5f5f5f8481526020019081526020015f205f015f8373ffffffffffffffffffffffffffffffffffffffff1673ffffffffffffffffffffffffffffffffffffffff1681526020019081526020015f205f9054906101000a900460ff16905092915050565b5f33905090565b612658806101c55f395ff3fe608060405234801561000f575f5ffd5b50600436106101a7575f3560e01c80636db2feb2116100f7578063a22cb46511610095578063d547741f1161006f578063d547741f14610539578063ef1590b814610555578063f14fcbc814610585578063f68e9553146105a1576101a7565b8063a22cb465146104bd578063a32ce11e146104d9578063caf4037914610509576101a7565b80638963063e116100d15780638963063e1461043757806391d14854146104535780639d2c2f9814610483578063a217fddf1461049f576101a7565b80636db2feb2146103b957806375b238fc146103e9578063839df94514610407576101a7565b8063248a9ca31161016457806336568abe1161013e57806336568abe146103355780635330c1b5146103515780635b0fc9c3146103815780636903f9e31461039d576101a7565b8063248a9ca3146102cb5780632e4f692a146102fb5780632f2ff15d14610319576101a7565b80630178b8bf146101ab57806301ffc9a7146101db57806302571be31461020b578063052091c31461023b578063124313d91461026b57806318c170f31461029b575b5f5ffd5b6101c560048036038101906101c09190611b38565b6105bf565b6040516101d29190611ba2565b60405180910390f35b6101f560048036038101906101f09190611c10565b6105fb565b6040516102029190611c55565b60405180910390f35b61022560048036038101906102209190611b38565b61060c565b6040516102329190611ba2565b60405180910390f35b61025560048036038101906102509190611c98565b61064c565b6040516102629190611d33565b60405180910390f35b61028560048036038101906102809190611eb2565b610753565b6040516102929190611f41565b60405180910390f35b6102b560048036038101906102b09190611c98565b61094d565b6040516102c29190611f41565b60405180910390f35b6102e560048036038101906102e09190611b38565b610962565b6040516102f29190611f41565b60405180910390f35b61030361097e565b6040516103109190611f69565b60405180910390f35b610333600480360381019061032e9190611f82565b610983565b005b61034f600480360381019061034a9190611f82565b6109a5565b005b61036b60048036038101906103669190611b38565b610a20565b6040516103789190611d33565b60405180910390f35b61039b60048036038101906103969190611f82565b610ac4565b005b6103b760048036038101906103b29190611fc0565b610c8c565b005b6103d360048036038101906103ce9190611b38565b610d7e565b6040516103e09190611c55565b60405180910390f35b6103f1610d9d565b6040516103fe9190611f41565b60405180910390f35b610421600480360381019061041c9190611b38565b610dc1565b60405161042e9190611f69565b60405180910390f35b610451600480360381019061044c9190611ffe565b610dd6565b005b61046d60048036038101906104689190611f82565b610f5e565b60405161047a9190611c55565b60405180910390f35b61049d6004803603810190610498919061204e565b610fc1565b005b6104a7611207565b6040516104b49190611f41565b60405180910390f35b6104d760048036038101906104d291906120dc565b61120d565b005b6104f360048036038101906104ee919061211a565b611305565b6040516105009190611c55565b60405180910390f35b610523600480360381019061051e919061204e565b61132f565b6040516105309190611f41565b60405180910390f35b610553600480360381019061054e9190611f82565b611367565b005b61056f600480360381019061056a9190611b38565b611389565b60405161057c9190611f69565b60405180910390f35b61059f600480360381019061059a9190611b38565b6113a6565b005b6105a9611414565b6040516105b69190611f41565b60405180910390f35b5f60045f8381526020019081526020015f206001015f9054906101000a900473ffffffffffffffffffffffffffffffffffffffff169050919050565b5f61060582611438565b9050919050565b5f5f60045f8481526020019081526020015f205f015f9054906101000a900473ffffffffffffffffffffffffffffffffffffffff16905080915050919050565b60605f60025f8473ffffffffffffffffffffffffffffffffffffffff1673ffffffffffffffffffffffffffffffffffffffff1681526020019081526020015f205490505f5f1b81036106af5760405180602001604052805f81525091505061074e565b60045f8281526020019081526020015f2060020180546106ce90612185565b80601f01602080910402602001604051908101604052809291908181526020018280546106fa90612185565b80156107455780601f1061071c57610100808354040283529160200191610745565b820191905f5260205f20905b81548152906001019060200180831161072857829003601f168201915b50505050509150505b919050565b5f7fedcc084d3dcd65a1f7f23c65c46722faca6953d28e43150a467cf43e5c30923861077e816114b1565b5f8680519060200120905060045f8281526020019081526020015f20600301544210158160045f8481526020019081526020015f206003015490916107fa576040517f9f1274d50000000000000000000000000000000000000000000000000000000081526004016107f19291906121b5565b60405180910390fd5b50508560045f8381526020019081526020015f205f015f6101000a81548173ffffffffffffffffffffffffffffffffffffffff021916908373ffffffffffffffffffffffffffffffffffffffff1602179055508360045f8381526020019081526020015f206003018190555061087081866114c5565b807fd4735d920b0f87494915f556dd9b54c8f309026070caea5c737245152564d266876040516108a09190611ba2565b60405180910390a2866040516108b69190612216565b6040518091039020817f146e3790409df1dc417f64b868c40288aa687364c5788dbc47e847eab0fdc9cf886040516108ee9190611ba2565b60405180910390a35f60045f8381526020019081526020015f20600201805461091690612185565b905003610940578660045f8381526020019081526020015f20600201908161093e91906123cc565b505b8092505050949350505050565b6002602052805f5260405f205f915090505481565b5f5f5f8381526020019081526020015f20600101549050919050565b603c81565b61098c82610962565b610995816114b1565b61099f838361176b565b50505050565b6109ad611854565b73ffffffffffffffffffffffffffffffffffffffff168173ffffffffffffffffffffffffffffffffffffffff1614610a11576040517f6697b23200000000000000000000000000000000000000000000000000000000815260040160405180910390fd5b610a1b828261185b565b505050565b606060045f8381526020019081526020015f206002018054610a4190612185565b80601f0160208091040260200160405190810160405280929190818152602001828054610a6d90612185565b8015610ab85780601f10610a8f57610100808354040283529160200191610ab8565b820191905f5260205f20905b815481529060010190602001808311610a9b57829003601f168201915b50505050509050919050565b815f60045f8381526020019081526020015f205f015f9054906101000a900473ffffffffffffffffffffffffffffffffffffffff1690503373ffffffffffffffffffffffffffffffffffffffff168173ffffffffffffffffffffffffffffffffffffffff161480610bb6575060015f8273ffffffffffffffffffffffffffffffffffffffff1673ffffffffffffffffffffffffffffffffffffffff1681526020019081526020015f205f3373ffffffffffffffffffffffffffffffffffffffff1673ffffffffffffffffffffffffffffffffffffffff1681526020019081526020015f205f9054906101000a900460ff165b82339091610bfb576040517f14c417b5000000000000000000000000000000000000000000000000000000008152600401610bf292919061249b565b60405180910390fd5b50508260045f8681526020019081526020015f205f015f6101000a81548173ffffffffffffffffffffffffffffffffffffffff021916908373ffffffffffffffffffffffffffffffffffffffff160217905550837fd4735d920b0f87494915f556dd9b54c8f309026070caea5c737245152564d26684604051610c7e9190611ba2565b60405180910390a250505050565b7fedcc084d3dcd65a1f7f23c65c46722faca6953d28e43150a467cf43e5c309238610cb6816114b1565b60045f8481526020019081526020015f2060030154821160045f8581526020019081526020015f2060030154839091610d26576040517fb15f6d99000000000000000000000000000000000000000000000000000000008152600401610d1d9291906124c2565b60405180910390fd5b50508160045f8581526020019081526020015f2060030181905550827fe5e05bd62ea8b19b4a28de8e7a63d720f3eafeee49040a6a7c20cdb5b45aec4e83604051610d719190611f69565b60405180910390a2505050565b5f60045f8381526020019081526020015f206003015442119050919050565b7fa49807205ce4d355092ef5a8a18f56e8913cf4a201fbe287825b095693c2177581565b6003602052805f5260405f205f915090505481565b825f60045f8381526020019081526020015f205f015f9054906101000a900473ffffffffffffffffffffffffffffffffffffffff1690503373ffffffffffffffffffffffffffffffffffffffff168173ffffffffffffffffffffffffffffffffffffffff161480610ec8575060015f8273ffffffffffffffffffffffffffffffffffffffff1673ffffffffffffffffffffffffffffffffffffffff1681526020019081526020015f205f3373ffffffffffffffffffffffffffffffffffffffff1673ffffffffffffffffffffffffffffffffffffffff1681526020019081526020015f205f9054906101000a900460ff165b82339091610f0d576040517f14c417b5000000000000000000000000000000000000000000000000000000008152600401610f0492919061249b565b60405180910390fd5b5050610f4d8560045f8881526020019081526020015f205f015f9054906101000a900473ffffffffffffffffffffffffffffffffffffffff168686611944565b610f5785856114c5565b5050505050565b5f5f5f8481526020019081526020015f205f015f8373ffffffffffffffffffffffffffffffffffffffff1673ffffffffffffffffffffffffffffffffffffffff1681526020019081526020015f205f9054906101000a900460ff16905092915050565b835f60045f8381526020019081526020015f205f015f9054906101000a900473ffffffffffffffffffffffffffffffffffffffff1690503373ffffffffffffffffffffffffffffffffffffffff168173ffffffffffffffffffffffffffffffffffffffff1614806110b3575060015f8273ffffffffffffffffffffffffffffffffffffffff1673ffffffffffffffffffffffffffffffffffffffff1681526020019081526020015f205f3373ffffffffffffffffffffffffffffffffffffffff1673ffffffffffffffffffffffffffffffffffffffff1681526020019081526020015f205f9054906101000a900460ff165b823390916110f8576040517f14c417b50000000000000000000000000000000000000000000000000000000081526004016110ef92919061249b565b60405180910390fd5b505061110686868686611944565b5f60045f8881526020019081526020015f20600201805461112690612185565b905011869061116b576040517f0909494b0000000000000000000000000000000000000000000000000000000081526004016111629190611f41565b60405180910390fd5b508460045f8881526020019081526020015f205f015f6101000a81548173ffffffffffffffffffffffffffffffffffffffff021916908373ffffffffffffffffffffffffffffffffffffffff160217905550857fd4735d920b0f87494915f556dd9b54c8f309026070caea5c737245152564d266866040516111ed9190611ba2565b60405180910390a26111ff86856114c5565b505050505050565b5f5f1b81565b8060015f3373ffffffffffffffffffffffffffffffffffffffff1673ffffffffffffffffffffffffffffffffffffffff1681526020019081526020015f205f8473ffffffffffffffffffffffffffffffffffffffff1673ffffffffffffffffffffffffffffffffffffffff1681526020019081526020015f205f6101000a81548160ff0219169083151502179055508173ffffffffffffffffffffffffffffffffffffffff163373ffffffffffffffffffffffffffffffffffffffff167f17307eab39ab6107e8899845ad3d59bd9653f200f220920489ca2b5937696c31836040516112f99190611c55565b60405180910390a35050565b6001602052815f5260405f20602052805f5260405f205f915091509054906101000a900460ff1681565b5f84848484604051602001611347949392919061254e565b604051602081830303815290604052805190602001209050949350505050565b61137082610962565b611379816114b1565b611383838361185b565b50505050565b5f60045f8381526020019081526020015f20600301549050919050565b5f60035f8381526020019081526020015f2054146113fb57806040517fc5f89f050000000000000000000000000000000000000000000000000000000081526004016113f29190611f41565b60405180910390fd5b4260035f8381526020019081526020015f208190555050565b7fedcc084d3dcd65a1f7f23c65c46722faca6953d28e43150a467cf43e5c30923881565b5f7f7965db0b000000000000000000000000000000000000000000000000000000007bffffffffffffffffffffffffffffffffffffffffffffffffffffffff1916827bffffffffffffffffffffffffffffffffffffffffffffffffffffffff191614806114aa57506114a982611a3a565b5b9050919050565b6114c2816114bd611854565b611aa3565b50565b5f60045f8481526020019081526020015f206001015f9054906101000a900473ffffffffffffffffffffffffffffffffffffffff1690508173ffffffffffffffffffffffffffffffffffffffff168173ffffffffffffffffffffffffffffffffffffffff1614611766575f73ffffffffffffffffffffffffffffffffffffffff168173ffffffffffffffffffffffffffffffffffffffff16146115a35760025f8273ffffffffffffffffffffffffffffffffffffffff1673ffffffffffffffffffffffffffffffffffffffff1681526020019081526020015f205f90555b5f73ffffffffffffffffffffffffffffffffffffffff168273ffffffffffffffffffffffffffffffffffffffff16146116db575f5f1b60025f8473ffffffffffffffffffffffffffffffffffffffff1673ffffffffffffffffffffffffffffffffffffffff1681526020019081526020015f205414611698578160025f8473ffffffffffffffffffffffffffffffffffffffff1673ffffffffffffffffffffffffffffffffffffffff1681526020019081526020015f20546040517f0b7b9f4300000000000000000000000000000000000000000000000000000000815260040161168f92919061259b565b60405180910390fd5b8260025f8473ffffffffffffffffffffffffffffffffffffffff1673ffffffffffffffffffffffffffffffffffffffff1681526020019081526020015f20819055505b8160045f8581526020019081526020015f206001015f6101000a81548173ffffffffffffffffffffffffffffffffffffffff021916908373ffffffffffffffffffffffffffffffffffffffff160217905550827f9536641548723c985801eef80fb38603b837722ccd8b61d42f6247c28afd33598360405161175d9190611ba2565b60405180910390a25b505050565b5f6117768383610f5e565b61184a5760015f5f8581526020019081526020015f205f015f8473ffffffffffffffffffffffffffffffffffffffff1673ffffffffffffffffffffffffffffffffffffffff1681526020019081526020015f205f6101000a81548160ff0219169083151502179055506117e7611854565b73ffffffffffffffffffffffffffffffffffffffff168273ffffffffffffffffffffffffffffffffffffffff16847f2f8788117e7eff1d82e926ec794901d17c78024a50270940304540a733656f0d60405160405180910390a46001905061184e565b5f90505b92915050565b5f33905090565b5f6118668383610f5e565b1561193a575f5f5f8581526020019081526020015f205f015f8473ffffffffffffffffffffffffffffffffffffffff1673ffffffffffffffffffffffffffffffffffffffff1681526020019081526020015f205f6101000a81548160ff0219169083151502179055506118d7611854565b73ffffffffffffffffffffffffffffffffffffffff168273ffffffffffffffffffffffffffffffffffffffff16847ff6391f5c32d9c69d2a47ea670b442974b53935d1edc7fd64eb21e047a839171b60405160405180910390a46001905061193e565b5f90505b92915050565b5f8484848460405160200161195c949392919061254e565b6040516020818303038152906040528051906020012090505f60035f8381526020019081526020015f205490505f81036119cd57816040517f836588c90000000000000000000000000000000000000000000000000000000081526004016119c49190611f41565b60405180910390fd5b603c816119da91906125ef565b421015611a1e57816040517f5320bcf9000000000000000000000000000000000000000000000000000000008152600401611a159190611f41565b60405180910390fd5b60035f8381526020019081526020015f205f9055505050505050565b5f7f01ffc9a7000000000000000000000000000000000000000000000000000000007bffffffffffffffffffffffffffffffffffffffffffffffffffffffff1916827bffffffffffffffffffffffffffffffffffffffffffffffffffffffff1916149050919050565b611aad8282610f5e565b611af05780826040517fe2517d3f000000000000000000000000000000000000000000000000000000008152600401611ae792919061259b565b60405180910390fd5b5050565b5f604051905090565b5f5ffd5b5f5ffd5b5f819050919050565b611b1781611b05565b8114611b21575f5ffd5b50565b5f81359050611b3281611b0e565b92915050565b5f60208284031215611b4d57611b4c611afd565b5b5f611b5a84828501611b24565b91505092915050565b5f73ffffffffffffffffffffffffffffffffffffffff82169050919050565b5f611b8c82611b63565b9050919050565b611b9c81611b82565b82525050565b5f602082019050611bb55f830184611b93565b92915050565b5f7fffffffff0000000000000000000000000000000000000000000000000000000082169050919050565b611bef81611bbb565b8114611bf9575f5ffd5b50565b5f81359050611c0a81611be6565b92915050565b5f60208284031215611c2557611c24611afd565b5b5f611c3284828501611bfc565b91505092915050565b5f8115159050919050565b611c4f81611c3b565b82525050565b5f602082019050611c685f830184611c46565b92915050565b611c7781611b82565b8114611c81575f5ffd5b50565b5f81359050611c9281611c6e565b92915050565b5f60208284031215611cad57611cac611afd565b5b5f611cba84828501611c84565b91505092915050565b5f81519050919050565b5f82825260208201905092915050565b8281835e5f83830152505050565b5f601f19601f8301169050919050565b5f611d0582611cc3565b611d0f8185611ccd565b9350611d1f818560208601611cdd565b611d2881611ceb565b840191505092915050565b5f6020820190508181035f830152611d4b8184611cfb565b905092915050565b5f5ffd5b5f5ffd5b7f4e487b71000000000000000000000000000000000000000000000000000000005f52604160045260245ffd5b611d9182611ceb565b810181811067ffffffffffffffff82111715611db057611daf611d5b565b5b80604052505050565b5f611dc2611af4565b9050611dce8282611d88565b919050565b5f67ffffffffffffffff821115611ded57611dec611d5b565b5b611df682611ceb565b9050602081019050919050565b828183375f83830152505050565b5f611e23611e1e84611dd3565b611db9565b905082815260208101848484011115611e3f57611e3e611d57565b5b611e4a848285611e03565b509392505050565b5f82601f830112611e6657611e65611d53565b5b8135611e76848260208601611e11565b91505092915050565b5f819050919050565b611e9181611e7f565b8114611e9b575f5ffd5b50565b5f81359050611eac81611e88565b92915050565b5f5f5f5f60808587031215611eca57611ec9611afd565b5b5f85013567ffffffffffffffff811115611ee757611ee6611b01565b5b611ef387828801611e52565b9450506020611f0487828801611c84565b9350506040611f1587828801611c84565b9250506060611f2687828801611e9e565b91505092959194509250565b611f3b81611b05565b82525050565b5f602082019050611f545f830184611f32565b92915050565b611f6381611e7f565b82525050565b5f602082019050611f7c5f830184611f5a565b92915050565b5f5f60408385031215611f9857611f97611afd565b5b5f611fa585828601611b24565b9250506020611fb685828601611c84565b9150509250929050565b5f5f60408385031215611fd657611fd5611afd565b5b5f611fe385828601611b24565b9250506020611ff485828601611e9e565b9150509250929050565b5f5f5f6060848603121561201557612014611afd565b5b5f61202286828701611b24565b935050602061203386828701611c84565b925050604061204486828701611b24565b9150509250925092565b5f5f5f5f6080858703121561206657612065611afd565b5b5f61207387828801611b24565b945050602061208487828801611c84565b935050604061209587828801611c84565b92505060606120a687828801611b24565b91505092959194509250565b6120bb81611c3b565b81146120c5575f5ffd5b50565b5f813590506120d6816120b2565b92915050565b5f5f604083850312156120f2576120f1611afd565b5b5f6120ff85828601611c84565b9250506020612110858286016120c8565b9150509250929050565b5f5f604083850312156121305761212f611afd565b5b5f61213d85828601611c84565b925050602061214e85828601611c84565b9150509250929050565b7f4e487b71000000000000000000000000000000000000000000000000000000005f52602260045260245ffd5b5f600282049050600182168061219c57607f821691505b6020821081036121af576121ae612158565b5b50919050565b5f6040820190506121c85f830185611f32565b6121d56020830184611f5a565b9392505050565b5f81905092915050565b5f6121f082611cc3565b6121fa81856121dc565b935061220a818560208601611cdd565b80840191505092915050565b5f61222182846121e6565b915081905092915050565b5f819050815f5260205f209050919050565b5f6020601f8301049050919050565b5f82821b905092915050565b5f600883026122887fffffffffffffffffffffffffffffffffffffffffffffffffffffffffffffffff8261224d565b612292868361224d565b95508019841693508086168417925050509392505050565b5f819050919050565b5f6122cd6122c86122c384611e7f565b6122aa565b611e7f565b9050919050565b5f819050919050565b6122e6836122b3565b6122fa6122f2826122d4565b848454612259565b825550505050565b5f5f905090565b612311612302565b61231c8184846122dd565b505050565b5b8181101561233f576123345f82612309565b600181019050612322565b5050565b601f821115612384576123558161222c565b61235e8461223e565b8101602085101561236d578190505b6123816123798561223e565b830182612321565b50505b505050565b5f82821c905092915050565b5f6123a45f1984600802612389565b1980831691505092915050565b5f6123bc8383612395565b9150826002028217905092915050565b6123d582611cc3565b67ffffffffffffffff8111156123ee576123ed611d5b565b5b6123f88254612185565b612403828285612343565b5f60209050601f831160018114612434575f8415612422578287015190505b61242c85826123b1565b865550612493565b601f1984166124428661222c565b5f5b8281101561246957848901518255600182019150602085019450602081019050612444565b868310156124865784890151612482601f891682612395565b8355505b6001600288020188555050505b505050505050565b5f6040820190506124ae5f830185611f32565b6124bb6020830184611b93565b9392505050565b5f6040820190506124d55f830185611f5a565b6124e26020830184611f5a565b9392505050565b5f819050919050565b6125036124fe82611b05565b6124e9565b82525050565b5f8160601b9050919050565b5f61251f82612509565b9050919050565b5f61253082612515565b9050919050565b61254861254382611b82565b612526565b82525050565b5f61255982876124f2565b6020820191506125698286612537565b6014820191506125798285612537565b60148201915061258982846124f2565b60208201915081905095945050505050565b5f6040820190506125ae5f830185611b93565b6125bb6020830184611f32565b9392505050565b7f4e487b71000000000000000000000000000000000000000000000000000000005f52601160045260245ffd5b5f6125f982611e7f565b915061260483611e7f565b925082820190508082111561261c5761261b6125c2565b5b9291505056fea2646970667358221220aae61721bb094ef6c5af8a1f179ba9eb82e6080630e741e9b048dd8831f404ac64736f6c634300081e0033","linkReferences":{}},"methodIdentifiers":{"ADMIN_ROLE()":"75b238fc","DEFAULT_ADMIN_ROLE()":"a217fddf","MIN_COMMITMENT_AGE()":"2e4f692a","REGISTRAR_ROLE()":"f68e9553","approvals(address,address)":"a32ce11e","commit(bytes32)":"f14fcbc8","commitments(bytes32)":"839df945","createCommitment(bytes32,address,address,bytes32)":"caf40379","extendExpiration(bytes32,uint256)":"6903f9e3","getExpiration(bytes32)":"ef1590b8","getLabel(bytes32)":"5330c1b5","getLabelByResolver(address)":"052091c3","getRoleAdmin(bytes32)":"248a9ca3","grantRole(bytes32,address)":"2f2ff15d","hasRole(bytes32,address)":"91d14854","isExpired(bytes32)":"6db2feb2","owner(bytes32)":"02571be3","renounceRole(bytes32,address)":"36568abe","resolver(bytes32)":"0178b8bf","resolverToLabelhash(address)":"18c170f3","revokeRole(bytes32,address)":"d547741f","setApprovalForAll(address,bool)":"a22cb465","setLabelhashRecord(string,address,address,uint256)":"124313d9","setOwner(bytes32,address)":"5b0fc9c3","setRecord(bytes32,address,address,bytes32)":"9d2c2f98","setResolver(bytes32,address,bytes32)":"8963063e","supportsInterface(bytes4)":"01ffc9a7"},"id":25}