{"abi":[{"type":"constructor","inputs":[],"stateMutability":"nonpayable"},{"type":"function","name":"ADMIN_ROLE","inputs":[],"outputs":[{"name":"","type":"bytes32","internalType":"bytes32"}],"stateMutability":"view"},{"type":"function","name":"DEFAULT_ADMIN_ROLE","inputs":[],"outputs":[{"name":"","type":"bytes32","internalType":"bytes32"}],"stateMutability":"view"},{"type":"function","name":"REGISTRAR_ROLE","inputs":[],"outputs":[{"name":"","type":"bytes32","internalType":"bytes32"}],"stateMutability":"view"},{"type":"function","name":"addr","inputs":[{"name":"labelhash","type":"bytes32","internalType":"bytes32"}],"outputs":[{"name":"","type":"address","internalType":"address payable"}],"stateMutability":"view"},{"type":"function","name":"addr","inputs":[{"name":"labelhash","type":"bytes32","internalType":"bytes32"},{"name":"coinType","type":"uint256","internalType":"uint256"}],"outputs":[{"name":"","type":"bytes","internalType":"bytes"}],"stateMutability":"view"},{"type":"function","name":"approvals","inputs":[{"name":"owner","type":"address","internalType":"address"},{"name":"approved","type":"address","internalType":"address"}],"outputs":[{"name":"","type":"bool","internalType":"bool"}],"stateMutability":"view"},{"type":"function","name":"contenthash","inputs":[{"name":"labelhash","type":"bytes32","internalType":"bytes32"}],"outputs":[{"name":"","type":"bytes","internalType":"bytes"}],"stateMutability":"view"},{"type":"function","name":"extendExpiration","inputs":[{"name":"labelhash","type":"bytes32","internalType":"bytes32"},{"name":"newExpiration","type":"uint256","internalType":"uint256"}],"outputs":[],"stateMutability":"nonpayable"},{"type":"function","name":"getExpiration","inputs":[{"name":"labelhash","type":"bytes32","internalType":"bytes32"}],"outputs":[{"name":"","type":"uint256","internalType":"uint256"}],"stateMutability":"view"},{"type":"function","name":"getLabel","inputs":[{"name":"labelhash","type":"bytes32","internalType":"bytes32"}],"outputs":[{"name":"","type":"string","internalType":"string"}],"stateMutability":"view"},{"type":"function","name":"getRoleAdmin","inputs":[{"name":"role","type":"bytes32","internalType":"bytes32"}],"outputs":[{"name":"","type":"bytes32","internalType":"bytes32"}],"stateMutability":"view"},{"type":"function","name":"grantRole","inputs":[{"name":"role","type":"bytes32","internalType":"bytes32"},{"name":"account","type":"address","internalType":"address"}],"outputs":[],"stateMutability":"nonpayable"},{"type":"function","name":"hasRole","inputs":[{"name":"role","type":"bytes32","internalType":"bytes32"},{"name":"account","type":"address","internalType":"address"}],"outputs":[{"name":"","type":"bool","internalType":"bool"}],"stateMutability":"view"},{"type":"function","name":"isApprovedForAll","inputs":[{"name":"labelhashOwner","type":"address","internalType":"address"},{"name":"operator","type":"address","internalType":"address"}],"outputs":[{"name":"","type":"bool","internalType":"bool"}],"stateMutability":"view"},{"type":"function","name":"isExpired","inputs":[{"name":"labelhash","type":"bytes32","internalType":"bytes32"}],"outputs":[{"name":"","type":"bool","internalType":"bool"}],"stateMutability":"view"},{"type":"function","name":"owner","inputs":[{"name":"labelhash","type":"bytes32","internalType":"bytes32"}],"outputs":[{"name":"","type":"address","internalType":"address"}],"stateMutability":"view"},{"type":"function","name":"renounceRole","inputs":[{"name":"role","type":"bytes32","internalType":"bytes32"},{"name":"callerConfirmation","type":"address","internalType":"address"}],"outputs":[],"stateMutability":"nonpayable"},{"type":"function","name":"revokeRole","inputs":[{"name":"role","type":"bytes32","internalType":"bytes32"},{"name":"account","type":"address","internalType":"address"}],"outputs":[],"stateMutability":"nonpayable"},{"type":"function","name":"setAddr","inputs":[{"name":"labelhash","type":"bytes32","internalType":"bytes32"},{"name":"coinType","type":"uint256","internalType":"uint256"},{"name":"address_","type":"bytes","internalType":"bytes"}],"outputs":[],"stateMutability":"nonpayable"},{"type":"function","name":"setAddr","inputs":[{"name":"labelhash","type":"bytes32","internalType":"bytes32"},{"name":"address_","type":"address","internalType":"address"}],"outputs":[],"stateMutability":"nonpayable"},{"type":"function","name":"setApprovalForAll","inputs":[{"name":"operator","type":"address","internalType":"address"},{"name":"approved","type":"bool","internalType":"bool"}],"outputs":[],"stateMutability":"nonpayable"},{"type":"function","name":"setContenthash","inputs":[{"name":"labelhash","type":"bytes32","internalType":"bytes32"},{"name":"contentHash","type":"bytes","internalType":"bytes"}],"outputs":[],"stateMutability":"nonpayable"},{"type":"function","name":"setLabelhashRecord","inputs":[{"name":"label","type":"string","internalType":"string"},{"name":"newOwner","type":"address","internalType":"address"},{"name":"expiration","type":"uint256","internalType":"uint256"},{"name":"keys","type":"string[]","internalType":"string[]"},{"name":"values","type":"string[]","internalType":"string[]"},{"name":"coinTypes","type":"uint256[]","internalType":"uint256[]"},{"name":"addresses","type":"bytes[]","internalType":"bytes[]"},{"name":"contentHash","type":"bytes","internalType":"bytes"}],"outputs":[{"name":"","type":"bytes32","internalType":"bytes32"}],"stateMutability":"nonpayable"},{"type":"function","name":"setOwner","inputs":[{"name":"labelhash","type":"bytes32","internalType":"bytes32"},{"name":"newOwner","type":"address","internalType":"address"}],"outputs":[],"stateMutability":"nonpayable"},{"type":"function","name":"setRecord","inputs":[{"name":"labelhash","type":"bytes32","internalType":"bytes32"},{"name":"newOwner_s","type":"address[]","internalType":"address[]"},{"name":"expiration_s","type":"uint256[]","internalType":"uint256[]"},{"name":"keys","type":"string[]","internalType":"string[]"},{"name":"values","type":"string[]","internalType":"string[]"},{"name":"coinTypes","type":"uint256[]","internalType":"uint256[]"},{"name":"addresses","type":"bytes[]","internalType":"bytes[]"},{"name":"contentHash_s","type":"bytes[]","internalType":"bytes[]"}],"outputs":[],"stateMutability":"nonpayable"},{"type":"function","name":"setText","inputs":[{"name":"labelhash","type":"bytes32","internalType":"bytes32"},{"name":"key","type":"string","internalType":"string"},{"name":"value","type":"string","internalType":"string"}],"outputs":[],"stateMutability":"nonpayable"},{"type":"function","name":"supportsInterface","inputs":[{"name":"interfaceId","type":"bytes4","internalType":"bytes4"}],"outputs":[{"name":"","type":"bool","internalType":"bool"}],"stateMutability":"view"},{"type":"function","name":"text","inputs":[{"name":"labelhash","type":"bytes32","internalType":"bytes32"},{"name":"key","type":"string","internalType":"string"}],"outputs":[{"name":"","type":"string","internalType":"string"}],"stateMutability":"view"},{"type":"event","name":"AddressChanged","inputs":[{"name":"labelhash","type":"bytes32","indexed":true,"internalType":"bytes32"},{"name":"coinType","type":"uint256","indexed":false,"internalType":"uint256"},{"name":"newAddress","type":"bytes","indexed":false,"internalType":"bytes"}],"anonymous":false},{"type":"event","name":"ContenthashChanged","inputs":[{"name":"labelhash","type":"bytes32","indexed":true,"internalType":"bytes32"},{"name":"hash","type":"bytes","indexed":false,"internalType":"bytes"}],"anonymous":false},{"type":"event","name":"ExpirationExtended","inputs":[{"name":"labelhash","type":"bytes32","indexed":true,"internalType":"bytes32"},{"name":"newExpiration","type":"uint256","indexed":false,"internalType":"uint256"}],"anonymous":false},{"type":"event","name":"NewLabelhashOwner","inputs":[{"name":"labelhash","type":"bytes32","indexed":true,"internalType":"bytes32"},{"name":"label","type":"string","indexed":true,"internalType":"string"},{"name":"owner","type":"address","indexed":false,"internalType":"address"}],"anonymous":false},{"type":"event","name":"RoleAdminChanged","inputs":[{"name":"role","type":"bytes32","indexed":true,"internalType":"bytes32"},{"name":"previousAdminRole","type":"bytes32","indexed":true,"internalType":"bytes32"},{"name":"newAdminRole","type":"bytes32","indexed":true,"internalType":"bytes32"}],"anonymous":false},{"type":"event","name":"RoleGranted","inputs":[{"name":"role","type":"bytes32","indexed":true,"internalType":"bytes32"},{"name":"account","type":"address","indexed":true,"internalType":"address"},{"name":"sender","type":"address","indexed":true,"internalType":"address"}],"anonymous":false},{"type":"event","name":"RoleRevoked","inputs":[{"name":"role","type":"bytes32","indexed":true,"internalType":"bytes32"},{"name":"account","type":"address","indexed":true,"internalType":"address"},{"name":"sender","type":"address","indexed":true,"internalType":"address"}],"anonymous":false},{"type":"event","name":"TextChanged","inputs":[{"name":"labelhash","type":"bytes32","indexed":true,"internalType":"bytes32"},{"name":"key","type":"string","indexed":false,"internalType":"string"},{"name":"value","type":"string","indexed":false,"internalType":"string"}],"anonymous":false},{"type":"event","name":"Transfer","inputs":[{"name":"labelhash","type":"bytes32","indexed":true,"internalType":"bytes32"},{"name":"owner","type":"address","indexed":false,"internalType":"address"}],"anonymous":false},{"type":"event","name":"labelhashRentalSet","inputs":[{"name":"labelhash","type":"bytes32","indexed":true,"internalType":"bytes32"},{"name":"expiration","type":"uint256","indexed":false,"internalType":"uint256"}],"anonymous":false},{"type":"error","name":"AccessControlBadConfirmation","inputs":[]},{"type":"error","name":"AccessControlUnauthorizedAccount","inputs":[{"name":"account","type":"address","internalType":"address"},{"name":"neededRole","type":"bytes32","internalType":"bytes32"}]},{"type":"error","name":"CannotReduceExpirationTime","inputs":[{"name":"currentExpiration","type":"uint256","internalType":"uint256"},{"name":"newExpiration","type":"uint256","internalType":"uint256"}]},{"type":"error","name":"CoinTypesArrayLengthMismatch","inputs":[{"name":"coinTypesLength","type":"uint256","internalType":"uint256"},{"name":"addressesLength","type":"uint256","internalType":"uint256"}]},{"type":"error","name":"KeysArrayLengthMismatch","inputs":[{"name":"keysLength","type":"uint256","internalType":"uint256"},{"name":"valuesLength","type":"uint256","internalType":"uint256"}]},{"type":"error","name":"NotAuthorised","inputs":[{"name":"labelhash","type":"bytes32","internalType":"bytes32"},{"name":"caller","type":"address","internalType":"address"}]},{"type":"error","name":"NotRegistrar","inputs":[{"name":"labelhash","type":"bytes32","internalType":"bytes32"},{"name":"caller","type":"address","internalType":"address"}]},{"type":"error","name":"labelhashDoesNotExist","inputs":[{"name":"labelhash","type":"bytes32","internalType":"bytes32"}]},{"type":"error","name":"labelhashNotExpired","inputs":[{"name":"labelhash","type":"bytes32","internalType":"bytes32"},{"name":"expiration","type":"uint256","internalType":"uint256"}]},{"type":"error","name":"labelhashNotSet","inputs":[{"name":"labelhash","type":"bytes32","internalType":"bytes32"}]}],"bytecode":{"object":"0x608060405234801561000f575f5ffd5b506100225f5f1b3361005960201b60201c565b506100537fa49807205ce4d355092ef5a8a18f56e8913cf4a201fbe287825b095693c217753361005960201b60201c565b506101b8565b5f61006a838361014e60201b60201c565b6101445760015f5f8581526020019081526020015f205f015f8473ffffffffffffffffffffffffffffffffffffffff1673ffffffffffffffffffffffffffffffffffffffff1681526020019081526020015f205f6101000a81548160ff0219169083151502179055506100e16101b160201b60201c565b73ffffffffffffffffffffffffffffffffffffffff168273ffffffffffffffffffffffffffffffffffffffff16847f2f8788117e7eff1d82e926ec794901d17c78024a50270940304540a733656f0d60405160405180910390a460019050610148565b5f90505b92915050565b5f5f5f8481526020019081526020015f205f015f8373ffffffffffffffffffffffffffffffffffffffff1673ffffffffffffffffffffffffffffffffffffffff1681526020019081526020015f205f9054906101000a900460ff16905092915050565b5f33905090565b613dc5806101c55f395ff3fe608060405234801561000f575f5ffd5b50600436106101c2575f3560e01c80636db2feb2116100f7578063bc1c58d111610095578063e985e9c51161006f578063e985e9c514610546578063ef1590b814610576578063f1cb7e06146105a6578063f68e9553146105d6576101c2565b8063bc1c58d1146104de578063d547741f1461050e578063d5fa2b001461052a576101c2565b806391d14854116100d157806391d1485414610444578063a217fddf14610474578063a22cb46514610492578063a32ce11e146104ae576101c2565b80636db2feb2146103da57806375b238fc1461040a5780638b95dd7114610428576101c2565b806336568abe1161016457806359d1d43c1161013e57806359d1d43c146103565780635b0fc9c3146103865780635d60399a146103a25780636903f9e3146103be576101c2565b806336568abe146102da5780633b3b57de146102f65780635330c1b514610326576101c2565b8063248a9ca3116101a0578063248a9ca3146102425780632f2ff15d14610272578063304e6ade1461028e5780633083656c146102aa576101c2565b806301ffc9a7146101c657806302571be3146101f657806310f13a8c14610226575b5f5ffd5b6101e060048036038101906101db919061266f565b6105f4565b6040516101ed91906126b4565b60405180910390f35b610210600480360381019061020b9190612700565b610605565b60405161021d919061276a565b60405180910390f35b610240600480360381019061023b91906128bf565b610645565b005b61025c60048036038101906102579190612700565b6107fd565b6040516102699190612956565b60405180910390f35b61028c60048036038101906102879190612999565b610819565b005b6102a860048036038101906102a39190612a75565b61083b565b005b6102c460048036038101906102bf9190612d82565b6109d4565b6040516102d19190612956565b60405180910390f35b6102f460048036038101906102ef9190612999565b610fe1565b005b610310600480360381019061030b9190612700565b61105c565b60405161031d9190612efb565b60405180910390f35b610340600480360381019061033b9190612700565b611094565b60405161034d9190612f74565b60405180910390f35b610370600480360381019061036b9190612f94565b611138565b60405161037d9190612f74565b60405180910390f35b6103a0600480360381019061039b9190612999565b6111f9565b005b6103bc60048036038101906103b791906130ae565b6113c1565b005b6103d860048036038101906103d39190613223565b611ab0565b005b6103f460048036038101906103ef9190612700565b611ba2565b60405161040191906126b4565b60405180910390f35b610412611bc1565b60405161041f9190612956565b60405180910390f35b610442600480360381019061043d9190613261565b611be5565b005b61045e60048036038101906104599190612999565b611d90565b60405161046b91906126b4565b60405180910390f35b61047c611df3565b6040516104899190612956565b60405180910390f35b6104ac60048036038101906104a791906132f7565b611df9565b005b6104c860048036038101906104c39190613335565b611e8c565b6040516104d591906126b4565b60405180910390f35b6104f860048036038101906104f39190612700565b611eb6565b60405161050591906133c5565b60405180910390f35b61052860048036038101906105239190612999565b611f5a565b005b610544600480360381019061053f9190612999565b611f7c565b005b610560600480360381019061055b9190613335565b612166565b60405161056d91906126b4565b60405180910390f35b610590600480360381019061058b9190612700565b6121f4565b60405161059d91906133f4565b60405180910390f35b6105c060048036038101906105bb9190613223565b612211565b6040516105cd91906133c5565b60405180910390f35b6105de6122c5565b6040516105eb9190612956565b60405180910390f35b5f6105fe826122e9565b9050919050565b5f5f60025f8481526020019081526020015f205f015f9054906101000a900473ffffffffffffffffffffffffffffffffffffffff16905080915050919050565b825f60025f8381526020019081526020015f205f015f9054906101000a900473ffffffffffffffffffffffffffffffffffffffff1690503373ffffffffffffffffffffffffffffffffffffffff168173ffffffffffffffffffffffffffffffffffffffff161480610737575060015f8273ffffffffffffffffffffffffffffffffffffffff1673ffffffffffffffffffffffffffffffffffffffff1681526020019081526020015f205f3373ffffffffffffffffffffffffffffffffffffffff1673ffffffffffffffffffffffffffffffffffffffff1681526020019081526020015f205f9054906101000a900460ff165b8233909161077c576040517f14c417b500000000000000000000000000000000000000000000000000000000815260040161077392919061340d565b60405180910390fd5b50508260025f8781526020019081526020015f20600301856040516107a1919061346e565b908152602001604051809103902090816107bb9190613681565b50847fd8c9334b1a9c2f9da342a0a2b32629c1a229b6445dad78947f674b44444a755085856040516107ee929190613750565b60405180910390a25050505050565b5f5f5f8381526020019081526020015f20600101549050919050565b610822826107fd565b61082b81612362565b6108358383612376565b50505050565b815f60025f8381526020019081526020015f205f015f9054906101000a900473ffffffffffffffffffffffffffffffffffffffff1690503373ffffffffffffffffffffffffffffffffffffffff168173ffffffffffffffffffffffffffffffffffffffff16148061092d575060015f8273ffffffffffffffffffffffffffffffffffffffff1673ffffffffffffffffffffffffffffffffffffffff1681526020019081526020015f205f3373ffffffffffffffffffffffffffffffffffffffff1673ffffffffffffffffffffffffffffffffffffffff1681526020019081526020015f205f9054906101000a900460ff165b82339091610972576040517f14c417b500000000000000000000000000000000000000000000000000000000815260040161096992919061340d565b60405180910390fd5b50508260025f8681526020019081526020015f20600501908161099591906137dd565b50837fe379c1624ed7e714cc0937528a32359d69d5281337765313dba4e081b72d7578846040516109c691906133c5565b60405180910390a250505050565b5f7fedcc084d3dcd65a1f7f23c65c46722faca6953d28e43150a467cf43e5c3092386109ff81612362565b5f8a8051906020012090508651885114885188519091610a56576040517f112f9113000000000000000000000000000000000000000000000000000000008152600401610a4d9291906138ac565b60405180910390fd5b50508451865114865186519091610aa4576040517f95a3ea73000000000000000000000000000000000000000000000000000000008152600401610a9b9291906138ac565b60405180910390fd5b505060025f8281526020019081526020015f20600201544210158160025f8481526020019081526020015f20600201549091610b17576040517f9f1274d5000000000000000000000000000000000000000000000000000000008152600401610b0e9291906138d3565b60405180910390fd5b50508960025f8381526020019081526020015f205f015f6101000a81548173ffffffffffffffffffffffffffffffffffffffff021916908373ffffffffffffffffffffffffffffffffffffffff1602179055508860025f8381526020019081526020015f2060020181905550807fd4735d920b0f87494915f556dd9b54c8f309026070caea5c737245152564d2668b604051610bb3919061276a565b60405180910390a28a604051610bc9919061346e565b6040518091039020817f146e3790409df1dc417f64b868c40288aa687364c5788dbc47e847eab0fdc9cf8c604051610c01919061276a565b60405180910390a35f60025f8381526020019081526020015f206001018054610c29906134b1565b905003610c53578a60025f8381526020019081526020015f206001019081610c519190613681565b505b5f5f90505b8851811015610dd557878181518110610c7457610c736138fa565b5b60200260200101518051906020012060025f8481526020019081526020015f206003018a8381518110610caa57610ca96138fa565b5b6020026020010151604051610cbf919061346e565b9081526020016040518091039020604051610cda91906139c3565b604051809103902014610dc857878181518110610cfa57610cf96138fa565b5b602002602001015160025f8481526020019081526020015f206003018a8381518110610d2957610d286138fa565b5b6020026020010151604051610d3e919061346e565b90815260200160405180910390209081610d589190613681565b50817fd8c9334b1a9c2f9da342a0a2b32629c1a229b6445dad78947f674b44444a75508a8381518110610d8e57610d8d6138fa565b5b60200260200101518a8481518110610da957610da86138fa565b5b6020026020010151604051610dbf929190613750565b60405180910390a25b8080600101915050610c58565b505f5f90505b8651811015610f3e57858181518110610df757610df66138fa565b5b60200260200101518051906020012060025f8481526020019081526020015f206004015f898481518110610e2e57610e2d6138fa565b5b602002602001015181526020019081526020015f20604051610e509190613a59565b604051809103902014610f3157858181518110610e7057610e6f6138fa565b5b602002602001015160025f8481526020019081526020015f206004015f898481518110610ea057610e9f6138fa565b5b602002602001015181526020019081526020015f209081610ec191906137dd565b50817f65412581168e88a1e60c6459d7f44ae83ad0832e670826c05a4e2476b57af752888381518110610ef757610ef66138fa565b5b6020026020010151888481518110610f1257610f116138fa565b5b6020026020010151604051610f28929190613a6f565b60405180910390a25b8080600101915050610ddb565b50838051906020012060025f8381526020019081526020015f20600501604051610f689190613a59565b604051809103902014610fd0578360025f8381526020019081526020015f206005019081610f9691906137dd565b50807fe379c1624ed7e714cc0937528a32359d69d5281337765313dba4e081b72d757885604051610fc791906133c5565b60405180910390a25b809250505098975050505050505050565b610fe961245f565b73ffffffffffffffffffffffffffffffffffffffff168173ffffffffffffffffffffffffffffffffffffffff161461104d576040517f6697b23200000000000000000000000000000000000000000000000000000000815260040160405180910390fd5b6110578282612466565b505050565b5f60025f8381526020019081526020015f206004015f603c81526020019081526020015f2061108a90613b06565b60601c9050919050565b606060025f8381526020019081526020015f2060010180546110b5906134b1565b80601f01602080910402602001604051908101604052809291908181526020018280546110e1906134b1565b801561112c5780601f106111035761010080835404028352916020019161112c565b820191905f5260205f20905b81548152906001019060200180831161110f57829003601f168201915b50505050509050919050565b606060025f8481526020019081526020015f206003018260405161115c919061346e565b90815260200160405180910390208054611175906134b1565b80601f01602080910402602001604051908101604052809291908181526020018280546111a1906134b1565b80156111ec5780601f106111c3576101008083540402835291602001916111ec565b820191905f5260205f20905b8154815290600101906020018083116111cf57829003601f168201915b5050505050905092915050565b815f60025f8381526020019081526020015f205f015f9054906101000a900473ffffffffffffffffffffffffffffffffffffffff1690503373ffffffffffffffffffffffffffffffffffffffff168173ffffffffffffffffffffffffffffffffffffffff1614806112eb575060015f8273ffffffffffffffffffffffffffffffffffffffff1673ffffffffffffffffffffffffffffffffffffffff1681526020019081526020015f205f3373ffffffffffffffffffffffffffffffffffffffff1673ffffffffffffffffffffffffffffffffffffffff1681526020019081526020015f205f9054906101000a900460ff165b82339091611330576040517f14c417b500000000000000000000000000000000000000000000000000000000815260040161132792919061340d565b60405180910390fd5b50508260025f8681526020019081526020015f205f015f6101000a81548173ffffffffffffffffffffffffffffffffffffffff021916908373ffffffffffffffffffffffffffffffffffffffff160217905550837fd4735d920b0f87494915f556dd9b54c8f309026070caea5c737245152564d266846040516113b3919061276a565b60405180910390a250505050565b875f60025f8381526020019081526020015f205f015f9054906101000a900473ffffffffffffffffffffffffffffffffffffffff1690503373ffffffffffffffffffffffffffffffffffffffff168173ffffffffffffffffffffffffffffffffffffffff1614806114b3575060015f8273ffffffffffffffffffffffffffffffffffffffff1673ffffffffffffffffffffffffffffffffffffffff1681526020019081526020015f205f3373ffffffffffffffffffffffffffffffffffffffff1673ffffffffffffffffffffffffffffffffffffffff1681526020019081526020015f205f9054906101000a900460ff165b823390916114f8576040517f14c417b50000000000000000000000000000000000000000000000000000000081526004016114ef92919061340d565b60405180910390fd5b50505f60025f8c81526020019081526020015f20600101805461151a906134b1565b9050118a9061155f576040517f0909494b0000000000000000000000000000000000000000000000000000000081526004016115569190612956565b60405180910390fd5b5085518751148751875190916115ac576040517f112f91130000000000000000000000000000000000000000000000000000000081526004016115a39291906138ac565b60405180910390fd5b505083518551148551855190916115fa576040517f95a3ea730000000000000000000000000000000000000000000000000000000081526004016115f19291906138ac565b60405180910390fd5b5050600189511115611641576040517f08c379a000000000000000000000000000000000000000000000000000000000815260040161163890613bc0565b60405180910390fd5b600188511115611686576040517f08c379a000000000000000000000000000000000000000000000000000000000815260040161167d90613c28565b60405180910390fd5b6001835111156116cb576040517f08c379a00000000000000000000000000000000000000000000000000000000081526004016116c290613c90565b60405180910390fd5b600189510361179257885f815181106116e7576116e66138fa565b5b602002602001015160025f8c81526020019081526020015f205f015f6101000a81548173ffffffffffffffffffffffffffffffffffffffff021916908373ffffffffffffffffffffffffffffffffffffffff160217905550897fd4735d920b0f87494915f556dd9b54c8f309026070caea5c737245152564d2668a5f81518110611774576117736138fa565b5b6020026020010151604051611789919061276a565b60405180910390a25b600188510361182157875f815181106117ae576117ad6138fa565b5b602002602001015160025f8c81526020019081526020015f2060020181905550897fe5e05bd62ea8b19b4a28de8e7a63d720f3eafeee49040a6a7c20cdb5b45aec4e895f81518110611803576118026138fa565b5b602002602001015160405161181891906133f4565b60405180910390a25b5f5f90505b875181101561191c57868181518110611842576118416138fa565b5b602002602001015160025f8d81526020019081526020015f20600301898381518110611871576118706138fa565b5b6020026020010151604051611886919061346e565b908152602001604051809103902090816118a09190613681565b508a7fd8c9334b1a9c2f9da342a0a2b32629c1a229b6445dad78947f674b44444a75508983815181106118d6576118d56138fa565b5b60200260200101518984815181106118f1576118f06138fa565b5b6020026020010151604051611907929190613750565b60405180910390a28080600101915050611826565b505f5f90505b8551811015611a0b5784818151811061193e5761193d6138fa565b5b602002602001015160025f8d81526020019081526020015f206004015f88848151811061196e5761196d6138fa565b5b602002602001015181526020019081526020015f20908161198f91906137dd565b508a7f65412581168e88a1e60c6459d7f44ae83ad0832e670826c05a4e2476b57af7528783815181106119c5576119c46138fa565b5b60200260200101518784815181106119e0576119df6138fa565b5b60200260200101516040516119f6929190613a6f565b60405180910390a28080600101915050611922565b506001835103611aa457825f81518110611a2857611a276138fa565b5b602002602001015160025f8c81526020019081526020015f206005019081611a5091906137dd565b50897fe379c1624ed7e714cc0937528a32359d69d5281337765313dba4e081b72d7578845f81518110611a8657611a856138fa565b5b6020026020010151604051611a9b91906133c5565b60405180910390a25b50505050505050505050565b7fedcc084d3dcd65a1f7f23c65c46722faca6953d28e43150a467cf43e5c309238611ada81612362565b60025f8481526020019081526020015f2060020154821160025f8581526020019081526020015f2060020154839091611b4a576040517fb15f6d99000000000000000000000000000000000000000000000000000000008152600401611b419291906138ac565b60405180910390fd5b50508160025f8581526020019081526020015f2060020181905550827fe5e05bd62ea8b19b4a28de8e7a63d720f3eafeee49040a6a7c20cdb5b45aec4e83604051611b9591906133f4565b60405180910390a2505050565b5f60025f8381526020019081526020015f206002015442119050919050565b7fa49807205ce4d355092ef5a8a18f56e8913cf4a201fbe287825b095693c2177581565b825f60025f8381526020019081526020015f205f015f9054906101000a900473ffffffffffffffffffffffffffffffffffffffff1690503373ffffffffffffffffffffffffffffffffffffffff168173ffffffffffffffffffffffffffffffffffffffff161480611cd7575060015f8273ffffffffffffffffffffffffffffffffffffffff1673ffffffffffffffffffffffffffffffffffffffff1681526020019081526020015f205f3373ffffffffffffffffffffffffffffffffffffffff1673ffffffffffffffffffffffffffffffffffffffff1681526020019081526020015f205f9054906101000a900460ff165b82339091611d1c576040517f14c417b5000000000000000000000000000000000000000000000000000000008152600401611d1392919061340d565b60405180910390fd5b50508260025f8781526020019081526020015f206004015f8681526020019081526020015f209081611d4e91906137dd565b50847f65412581168e88a1e60c6459d7f44ae83ad0832e670826c05a4e2476b57af7528585604051611d81929190613a6f565b60405180910390a25050505050565b5f5f5f8481526020019081526020015f205f015f8373ffffffffffffffffffffffffffffffffffffffff1673ffffffffffffffffffffffffffffffffffffffff1681526020019081526020015f205f9054906101000a900460ff16905092915050565b5f5f1b81565b8060015f3373ffffffffffffffffffffffffffffffffffffffff1673ffffffffffffffffffffffffffffffffffffffff1681526020019081526020015f205f8473ffffffffffffffffffffffffffffffffffffffff1673ffffffffffffffffffffffffffffffffffffffff1681526020019081526020015f205f6101000a81548160ff0219169083151502179055505050565b6001602052815f5260405f20602052805f5260405f205f915091509054906101000a900460ff1681565b606060025f8381526020019081526020015f206005018054611ed7906134b1565b80601f0160208091040260200160405190810160405280929190818152602001828054611f03906134b1565b8015611f4e5780601f10611f2557610100808354040283529160200191611f4e565b820191905f5260205f20905b815481529060010190602001808311611f3157829003601f168201915b50505050509050919050565b611f63826107fd565b611f6c81612362565b611f768383612466565b50505050565b815f60025f8381526020019081526020015f205f015f9054906101000a900473ffffffffffffffffffffffffffffffffffffffff1690503373ffffffffffffffffffffffffffffffffffffffff168173ffffffffffffffffffffffffffffffffffffffff16148061206e575060015f8273ffffffffffffffffffffffffffffffffffffffff1673ffffffffffffffffffffffffffffffffffffffff1681526020019081526020015f205f3373ffffffffffffffffffffffffffffffffffffffff1673ffffffffffffffffffffffffffffffffffffffff1681526020019081526020015f205f9054906101000a900460ff165b823390916120b3576040517f14c417b50000000000000000000000000000000000000000000000000000000081526004016120aa92919061340d565b60405180910390fd5b5050826040516020016120c69190613ce7565b60405160208183030381529060405260025f8681526020019081526020015f206004015f603c81526020019081526020015f20908161210591906137dd565b50837f65412581168e88a1e60c6459d7f44ae83ad0832e670826c05a4e2476b57af752603c8560405160200161213b9190613ce7565b604051602081830303815290604052604051612158929190613d3a565b60405180910390a250505050565b5f60015f8473ffffffffffffffffffffffffffffffffffffffff1673ffffffffffffffffffffffffffffffffffffffff1681526020019081526020015f205f8373ffffffffffffffffffffffffffffffffffffffff1673ffffffffffffffffffffffffffffffffffffffff1681526020019081526020015f205f9054906101000a900460ff16905092915050565b5f60025f8381526020019081526020015f20600201549050919050565b606060025f8481526020019081526020015f206004015f8381526020019081526020015f208054612241906134b1565b80601f016020809104026020016040519081016040528092919081815260200182805461226d906134b1565b80156122b85780601f1061228f576101008083540402835291602001916122b8565b820191905f5260205f20905b81548152906001019060200180831161229b57829003601f168201915b5050505050905092915050565b7fedcc084d3dcd65a1f7f23c65c46722faca6953d28e43150a467cf43e5c30923881565b5f7f7965db0b000000000000000000000000000000000000000000000000000000007bffffffffffffffffffffffffffffffffffffffffffffffffffffffff1916827bffffffffffffffffffffffffffffffffffffffffffffffffffffffff1916148061235b575061235a8261254f565b5b9050919050565b6123738161236e61245f565b6125b8565b50565b5f6123818383611d90565b6124555760015f5f8581526020019081526020015f205f015f8473ffffffffffffffffffffffffffffffffffffffff1673ffffffffffffffffffffffffffffffffffffffff1681526020019081526020015f205f6101000a81548160ff0219169083151502179055506123f261245f565b73ffffffffffffffffffffffffffffffffffffffff168273ffffffffffffffffffffffffffffffffffffffff16847f2f8788117e7eff1d82e926ec794901d17c78024a50270940304540a733656f0d60405160405180910390a460019050612459565b5f90505b92915050565b5f33905090565b5f6124718383611d90565b15612545575f5f5f8581526020019081526020015f205f015f8473ffffffffffffffffffffffffffffffffffffffff1673ffffffffffffffffffffffffffffffffffffffff1681526020019081526020015f205f6101000a81548160ff0219169083151502179055506124e261245f565b73ffffffffffffffffffffffffffffffffffffffff168273ffffffffffffffffffffffffffffffffffffffff16847ff6391f5c32d9c69d2a47ea670b442974b53935d1edc7fd64eb21e047a839171b60405160405180910390a460019050612549565b5f90505b92915050565b5f7f01ffc9a7000000000000000000000000000000000000000000000000000000007bffffffffffffffffffffffffffffffffffffffffffffffffffffffff1916827bffffffffffffffffffffffffffffffffffffffffffffffffffffffff1916149050919050565b6125c28282611d90565b6126055780826040517fe2517d3f0000000000000000000000000000000000000000000000000000000081526004016125fc929190613d68565b60405180910390fd5b5050565b5f604051905090565b5f5ffd5b5f5ffd5b5f7fffffffff0000000000000000000000000000000000000000000000000000000082169050919050565b61264e8161261a565b8114612658575f5ffd5b50565b5f8135905061266981612645565b92915050565b5f6020828403121561268457612683612612565b5b5f6126918482850161265b565b91505092915050565b5f8115159050919050565b6126ae8161269a565b82525050565b5f6020820190506126c75f8301846126a5565b92915050565b5f819050919050565b6126df816126cd565b81146126e9575f5ffd5b50565b5f813590506126fa816126d6565b92915050565b5f6020828403121561271557612714612612565b5b5f612722848285016126ec565b91505092915050565b5f73ffffffffffffffffffffffffffffffffffffffff82169050919050565b5f6127548261272b565b9050919050565b6127648161274a565b82525050565b5f60208201905061277d5f83018461275b565b92915050565b5f5ffd5b5f5ffd5b5f601f19601f8301169050919050565b7f4e487b71000000000000000000000000000000000000000000000000000000005f52604160045260245ffd5b6127d18261278b565b810181811067ffffffffffffffff821117156127f0576127ef61279b565b5b80604052505050565b5f612802612609565b905061280e82826127c8565b919050565b5f67ffffffffffffffff82111561282d5761282c61279b565b5b6128368261278b565b9050602081019050919050565b828183375f83830152505050565b5f61286361285e84612813565b6127f9565b90508281526020810184848401111561287f5761287e612787565b5b61288a848285612843565b509392505050565b5f82601f8301126128a6576128a5612783565b5b81356128b6848260208601612851565b91505092915050565b5f5f5f606084860312156128d6576128d5612612565b5b5f6128e3868287016126ec565b935050602084013567ffffffffffffffff81111561290457612903612616565b5b61291086828701612892565b925050604084013567ffffffffffffffff81111561293157612930612616565b5b61293d86828701612892565b9150509250925092565b612950816126cd565b82525050565b5f6020820190506129695f830184612947565b92915050565b6129788161274a565b8114612982575f5ffd5b50565b5f813590506129938161296f565b92915050565b5f5f604083850312156129af576129ae612612565b5b5f6129bc858286016126ec565b92505060206129cd85828601612985565b9150509250929050565b5f67ffffffffffffffff8211156129f1576129f061279b565b5b6129fa8261278b565b9050602081019050919050565b5f612a19612a14846129d7565b6127f9565b905082815260208101848484011115612a3557612a34612787565b5b612a40848285612843565b509392505050565b5f82601f830112612a5c57612a5b612783565b5b8135612a6c848260208601612a07565b91505092915050565b5f5f60408385031215612a8b57612a8a612612565b5b5f612a98858286016126ec565b925050602083013567ffffffffffffffff811115612ab957612ab8612616565b5b612ac585828601612a48565b9150509250929050565b5f819050919050565b612ae181612acf565b8114612aeb575f5ffd5b50565b5f81359050612afc81612ad8565b92915050565b5f67ffffffffffffffff821115612b1c57612b1b61279b565b5b602082029050602081019050919050565b5f5ffd5b5f612b43612b3e84612b02565b6127f9565b90508083825260208201905060208402830185811115612b6657612b65612b2d565b5b835b81811015612bad57803567ffffffffffffffff811115612b8b57612b8a612783565b5b808601612b988982612892565b85526020850194505050602081019050612b68565b5050509392505050565b5f82601f830112612bcb57612bca612783565b5b8135612bdb848260208601612b31565b91505092915050565b5f67ffffffffffffffff821115612bfe57612bfd61279b565b5b602082029050602081019050919050565b5f612c21612c1c84612be4565b6127f9565b90508083825260208201905060208402830185811115612c4457612c43612b2d565b5b835b81811015612c6d5780612c598882612aee565b845260208401935050602081019050612c46565b5050509392505050565b5f82601f830112612c8b57612c8a612783565b5b8135612c9b848260208601612c0f565b91505092915050565b5f67ffffffffffffffff821115612cbe57612cbd61279b565b5b602082029050602081019050919050565b5f612ce1612cdc84612ca4565b6127f9565b90508083825260208201905060208402830185811115612d0457612d03612b2d565b5b835b81811015612d4b57803567ffffffffffffffff811115612d2957612d28612783565b5b808601612d368982612a48565b85526020850194505050602081019050612d06565b5050509392505050565b5f82601f830112612d6957612d68612783565b5b8135612d79848260208601612ccf565b91505092915050565b5f5f5f5f5f5f5f5f610100898b031215612d9f57612d9e612612565b5b5f89013567ffffffffffffffff811115612dbc57612dbb612616565b5b612dc88b828c01612892565b9850506020612dd98b828c01612985565b9750506040612dea8b828c01612aee565b965050606089013567ffffffffffffffff811115612e0b57612e0a612616565b5b612e178b828c01612bb7565b955050608089013567ffffffffffffffff811115612e3857612e37612616565b5b612e448b828c01612bb7565b94505060a089013567ffffffffffffffff811115612e6557612e64612616565b5b612e718b828c01612c77565b93505060c089013567ffffffffffffffff811115612e9257612e91612616565b5b612e9e8b828c01612d55565b92505060e089013567ffffffffffffffff811115612ebf57612ebe612616565b5b612ecb8b828c01612a48565b9150509295985092959890939650565b5f612ee58261272b565b9050919050565b612ef581612edb565b82525050565b5f602082019050612f0e5f830184612eec565b92915050565b5f81519050919050565b5f82825260208201905092915050565b8281835e5f83830152505050565b5f612f4682612f14565b612f508185612f1e565b9350612f60818560208601612f2e565b612f698161278b565b840191505092915050565b5f6020820190508181035f830152612f8c8184612f3c565b905092915050565b5f5f60408385031215612faa57612fa9612612565b5b5f612fb7858286016126ec565b925050602083013567ffffffffffffffff811115612fd857612fd7612616565b5b612fe485828601612892565b9150509250929050565b5f67ffffffffffffffff8211156130085761300761279b565b5b602082029050602081019050919050565b5f61302b61302684612fee565b6127f9565b9050808382526020820190506020840283018581111561304e5761304d612b2d565b5b835b8181101561307757806130638882612985565b845260208401935050602081019050613050565b5050509392505050565b5f82601f83011261309557613094612783565b5b81356130a5848260208601613019565b91505092915050565b5f5f5f5f5f5f5f5f610100898b0312156130cb576130ca612612565b5b5f6130d88b828c016126ec565b985050602089013567ffffffffffffffff8111156130f9576130f8612616565b5b6131058b828c01613081565b975050604089013567ffffffffffffffff81111561312657613125612616565b5b6131328b828c01612c77565b965050606089013567ffffffffffffffff81111561315357613152612616565b5b61315f8b828c01612bb7565b955050608089013567ffffffffffffffff8111156131805761317f612616565b5b61318c8b828c01612bb7565b94505060a089013567ffffffffffffffff8111156131ad576131ac612616565b5b6131b98b828c01612c77565b93505060c089013567ffffffffffffffff8111156131da576131d9612616565b5b6131e68b828c01612d55565b92505060e089013567ffffffffffffffff81111561320757613206612616565b5b6132138b828c01612d55565b9150509295985092959890939650565b5f5f6040838503121561323957613238612612565b5b5f613246858286016126ec565b925050602061325785828601612aee565b9150509250929050565b5f5f5f6060848603121561327857613277612612565b5b5f613285868287016126ec565b935050602061329686828701612aee565b925050604084013567ffffffffffffffff8111156132b7576132b6612616565b5b6132c386828701612a48565b9150509250925092565b6132d68161269a565b81146132e0575f5ffd5b50565b5f813590506132f1816132cd565b92915050565b5f5f6040838503121561330d5761330c612612565b5b5f61331a85828601612985565b925050602061332b858286016132e3565b9150509250929050565b5f5f6040838503121561334b5761334a612612565b5b5f61335885828601612985565b925050602061336985828601612985565b9150509250929050565b5f81519050919050565b5f82825260208201905092915050565b5f61339782613373565b6133a1818561337d565b93506133b1818560208601612f2e565b6133ba8161278b565b840191505092915050565b5f6020820190508181035f8301526133dd818461338d565b905092915050565b6133ee81612acf565b82525050565b5f6020820190506134075f8301846133e5565b92915050565b5f6040820190506134205f830185612947565b61342d602083018461275b565b9392505050565b5f81905092915050565b5f61344882612f14565b6134528185613434565b9350613462818560208601612f2e565b80840191505092915050565b5f613479828461343e565b915081905092915050565b7f4e487b71000000000000000000000000000000000000000000000000000000005f52602260045260245ffd5b5f60028204905060018216806134c857607f821691505b6020821081036134db576134da613484565b5b50919050565b5f819050815f5260205f209050919050565b5f6020601f8301049050919050565b5f82821b905092915050565b5f6008830261353d7fffffffffffffffffffffffffffffffffffffffffffffffffffffffffffffffff82613502565b6135478683613502565b95508019841693508086168417925050509392505050565b5f819050919050565b5f61358261357d61357884612acf565b61355f565b612acf565b9050919050565b5f819050919050565b61359b83613568565b6135af6135a782613589565b84845461350e565b825550505050565b5f5f905090565b6135c66135b7565b6135d1818484613592565b505050565b5b818110156135f4576135e95f826135be565b6001810190506135d7565b5050565b601f8211156136395761360a816134e1565b613613846134f3565b81016020851015613622578190505b61363661362e856134f3565b8301826135d6565b50505b505050565b5f82821c905092915050565b5f6136595f198460080261363e565b1980831691505092915050565b5f613671838361364a565b9150826002028217905092915050565b61368a82612f14565b67ffffffffffffffff8111156136a3576136a261279b565b5b6136ad82546134b1565b6136b88282856135f8565b5f60209050601f8311600181146136e9575f84156136d7578287015190505b6136e18582613666565b865550613748565b601f1984166136f7866134e1565b5f5b8281101561371e578489015182556001820191506020850194506020810190506136f9565b8683101561373b5784890151613737601f89168261364a565b8355505b6001600288020188555050505b505050505050565b5f6040820190508181035f8301526137688185612f3c565b9050818103602083015261377c8184612f3c565b90509392505050565b5f819050815f5260205f209050919050565b601f8211156137d8576137a981613785565b6137b2846134f3565b810160208510156137c1578190505b6137d56137cd856134f3565b8301826135d6565b50505b505050565b6137e682613373565b67ffffffffffffffff8111156137ff576137fe61279b565b5b61380982546134b1565b613814828285613797565b5f60209050601f831160018114613845575f8415613833578287015190505b61383d8582613666565b8655506138a4565b601f19841661385386613785565b5f5b8281101561387a57848901518255600182019150602085019450602081019050613855565b868310156138975784890151613893601f89168261364a565b8355505b6001600288020188555050505b505050505050565b5f6040820190506138bf5f8301856133e5565b6138cc60208301846133e5565b9392505050565b5f6040820190506138e65f830185612947565b6138f360208301846133e5565b9392505050565b7f4e487b71000000000000000000000000000000000000000000000000000000005f52603260045260245ffd5b5f81905092915050565b5f819050815f5260205f209050919050565b5f815461394f816134b1565b6139598186613927565b9450600182165f81146139735760018114613988576139ba565b60ff19831686528115158202860193506139ba565b61399185613931565b5f5b838110156139b257815481890152600182019150602081019050613993565b838801955050505b50505092915050565b5f6139ce8284613943565b915081905092915050565b5f81546139e5816134b1565b6139ef8186613927565b9450600182165f8114613a095760018114613a1e57613a50565b60ff1983168652811515820286019350613a50565b613a2785613785565b5f5b83811015613a4857815481890152600182019150602081019050613a29565b838801955050505b50505092915050565b5f613a6482846139d9565b915081905092915050565b5f604082019050613a825f8301856133e5565b8181036020830152613a94818461338d565b90509392505050565b5f81549050613aab816134b1565b9050919050565b5f8160601c9050919050565b5f8160601b9050919050565b5f613ad482613abe565b9050919050565b5f613aed613ae883613ab2565b613aca565b9050919050565b5f613aff8254613adb565b9050919050565b5f613b1082613a9d565b82601f821115613b2657613b2384613785565b90505b613b2f81613af4565b92506014821015613b6f57613b6a7fffffffffffffffffffffffffffffffffffffffff00000000000000000000000083601403600802613502565b831692505b5050919050565b7f4f6e6c79206f6e65206f776e65722063616e20626520736574000000000000005f82015250565b5f613baa601983612f1e565b9150613bb582613b76565b602082019050919050565b5f6020820190508181035f830152613bd781613b9e565b9050919050565b7f4f6e6c79206f6e652065787069726174696f6e2063616e2062652073657400005f82015250565b5f613c12601e83612f1e565b9150613c1d82613bde565b602082019050919050565b5f6020820190508181035f830152613c3f81613c06565b9050919050565b7f4f6e6c79206f6e6520636f6e74656e74686173682063616e20626520736574005f82015250565b5f613c7a601f83612f1e565b9150613c8582613c46565b602082019050919050565b5f6020820190508181035f830152613ca781613c6e565b9050919050565b5f613cb882613abe565b9050919050565b5f613cc982613cae565b9050919050565b613ce1613cdc8261274a565b613cbf565b82525050565b5f613cf28284613cd0565b60148201915081905092915050565b5f819050919050565b5f613d24613d1f613d1a84613d01565b61355f565b612acf565b9050919050565b613d3481613d0a565b82525050565b5f604082019050613d4d5f830185613d2b565b8181036020830152613d5f818461338d565b90509392505050565b5f604082019050613d7b5f83018561275b565b613d886020830184612947565b939250505056fea2646970667358221220159a36fd17d216a9ed9dcac20cc081d5402138008b0d5bc064f9cb76f7cb680864736f6c634300081e0033","linkReferences":{}},"methodIdentifiers":{"ADMIN_ROLE()":"75b238fc","DEFAULT_ADMIN_ROLE()":"a217fddf","REGISTRAR_ROLE()":"f68e9553","addr(bytes32)":"3b3b57de","addr(bytes32,uint256)":"f1cb7e06","approvals(address,address)":"a32ce11e","contenthash(bytes32)":"bc1c58d1","extendExpiration(bytes32,uint256)":"6903f9e3","getExpiration(bytes32)":"ef1590b8","getLabel(bytes32)":"5330c1b5","getRoleAdmin(bytes32)":"248a9ca3","grantRole(bytes32,address)":"2f2ff15d","hasRole(bytes32,address)":"91d14854","isApprovedForAll(address,address)":"e985e9c5","isExpired(bytes32)":"6db2feb2","owner(bytes32)":"02571be3","renounceRole(bytes32,address)":"36568abe","revokeRole(bytes32,address)":"d547741f","setAddr(bytes32,address)":"d5fa2b00","setAddr(bytes32,uint256,bytes)":"8b95dd71","setApprovalForAll(address,bool)":"a22cb465","setContenthash(bytes32,bytes)":"304e6ade","setLabelhashRecord(string,address,uint256,string[],string[],uint256[],bytes[],bytes)":"3083656c","setOwner(bytes32,address)":"5b0fc9c3","setRecord(bytes32,address[],uint256[],string[],string[],uint256[],bytes[],bytes[])":"5d60399a","setText(bytes32,string,string)":"10f13a8c","supportsInterface(bytes4)":"01ffc9a7","text(bytes32,string)":"59d1d43c"},"id":6}