{"abi":[{"type":"constructor","inputs":[],"stateMutability":"nonpayable"},{"type":"function","name":"ADMIN_ROLE","inputs":[],"outputs":[{"name":"","type":"bytes32","internalType":"bytes32"}],"stateMutability":"view"},{"type":"function","name":"DEFAULT_ADMIN_ROLE","inputs":[],"outputs":[{"name":"","type":"bytes32","internalType":"bytes32"}],"stateMutability":"view"},{"type":"function","name":"MIN_COMMITMENT_AGE","inputs":[],"outputs":[{"name":"","type":"uint256","internalType":"uint256"}],"stateMutability":"view"},{"type":"function","name":"REGISTRAR_ROLE","inputs":[],"outputs":[{"name":"","type":"bytes32","internalType":"bytes32"}],"stateMutability":"view"},{"type":"function","name":"approvals","inputs":[{"name":"owner","type":"address","internalType":"address"},{"name":"approved","type":"address","internalType":"address"}],"outputs":[{"name":"","type":"bool","internalType":"bool"}],"stateMutability":"view"},{"type":"function","name":"commit","inputs":[{"name":"commitment","type":"bytes32","internalType":"bytes32"}],"outputs":[],"stateMutability":"nonpayable"},{"type":"function","name":"commitments","inputs":[{"name":"","type":"bytes32","internalType":"bytes32"}],"outputs":[{"name":"","type":"uint256","internalType":"uint256"}],"stateMutability":"view"},{"type":"function","name":"createCommitment","inputs":[{"name":"labelhash","type":"bytes32","internalType":"bytes32"},{"name":"owner","type":"address","internalType":"address"},{"name":"resolver","type":"address","internalType":"address"},{"name":"secret","type":"bytes32","internalType":"bytes32"}],"outputs":[{"name":"","type":"bytes32","internalType":"bytes32"}],"stateMutability":"pure"},{"type":"function","name":"extendExpiration","inputs":[{"name":"labelhash","type":"bytes32","internalType":"bytes32"},{"name":"newExpiration","type":"uint256","internalType":"uint256"}],"outputs":[],"stateMutability":"nonpayable"},{"type":"function","name":"getExpiration","inputs":[{"name":"labelhash","type":"bytes32","internalType":"bytes32"}],"outputs":[{"name":"","type":"uint256","internalType":"uint256"}],"stateMutability":"view"},{"type":"function","name":"getLabel","inputs":[{"name":"labelhash","type":"bytes32","internalType":"bytes32"}],"outputs":[{"name":"","type":"string","internalType":"string"}],"stateMutability":"view"},{"type":"function","name":"getRoleAdmin","inputs":[{"name":"role","type":"bytes32","internalType":"bytes32"}],"outputs":[{"name":"","type":"bytes32","internalType":"bytes32"}],"stateMutability":"view"},{"type":"function","name":"grantRole","inputs":[{"name":"role","type":"bytes32","internalType":"bytes32"},{"name":"account","type":"address","internalType":"address"}],"outputs":[],"stateMutability":"nonpayable"},{"type":"function","name":"hasRole","inputs":[{"name":"role","type":"bytes32","internalType":"bytes32"},{"name":"account","type":"address","internalType":"address"}],"outputs":[{"name":"","type":"bool","internalType":"bool"}],"stateMutability":"view"},{"type":"function","name":"isExpired","inputs":[{"name":"labelhash","type":"bytes32","internalType":"bytes32"}],"outputs":[{"name":"","type":"bool","internalType":"bool"}],"stateMutability":"view"},{"type":"function","name":"owner","inputs":[{"name":"labelhash","type":"bytes32","internalType":"bytes32"}],"outputs":[{"name":"","type":"address","internalType":"address"}],"stateMutability":"view"},{"type":"function","name":"renounceRole","inputs":[{"name":"role","type":"bytes32","internalType":"bytes32"},{"name":"callerConfirmation","type":"address","internalType":"address"}],"outputs":[],"stateMutability":"nonpayable"},{"type":"function","name":"resolver","inputs":[{"name":"labelhash","type":"bytes32","internalType":"bytes32"}],"outputs":[{"name":"","type":"address","internalType":"address"}],"stateMutability":"view"},{"type":"function","name":"resolverToLabelhash","inputs":[{"name":"resolver","type":"address","internalType":"address"}],"outputs":[{"name":"labelhash","type":"bytes32","internalType":"bytes32"}],"stateMutability":"view"},{"type":"function","name":"revokeRole","inputs":[{"name":"role","type":"bytes32","internalType":"bytes32"},{"name":"account","type":"address","internalType":"address"}],"outputs":[],"stateMutability":"nonpayable"},{"type":"function","name":"setApprovalForAll","inputs":[{"name":"operator","type":"address","internalType":"address"},{"name":"approved","type":"bool","internalType":"bool"}],"outputs":[],"stateMutability":"nonpayable"},{"type":"function","name":"setLabelhashRecord","inputs":[{"name":"label","type":"string","internalType":"string"},{"name":"newOwner","type":"address","internalType":"address"},{"name":"resolver_","type":"address","internalType":"address"},{"name":"expiration","type":"uint256","internalType":"uint256"}],"outputs":[{"name":"","type":"bytes32","internalType":"bytes32"}],"stateMutability":"nonpayable"},{"type":"function","name":"setOwner","inputs":[{"name":"labelhash","type":"bytes32","internalType":"bytes32"},{"name":"newOwner","type":"address","internalType":"address"}],"outputs":[],"stateMutability":"nonpayable"},{"type":"function","name":"setRecord","inputs":[{"name":"labelhash","type":"bytes32","internalType":"bytes32"},{"name":"newOwner","type":"address","internalType":"address"},{"name":"resolver_","type":"address","internalType":"address"},{"name":"secret","type":"bytes32","internalType":"bytes32"}],"outputs":[],"stateMutability":"nonpayable"},{"type":"function","name":"setResolver","inputs":[{"name":"labelhash","type":"bytes32","internalType":"bytes32"},{"name":"resolver_","type":"address","internalType":"address"},{"name":"secret","type":"bytes32","internalType":"bytes32"}],"outputs":[],"stateMutability":"nonpayable"},{"type":"function","name":"supportsInterface","inputs":[{"name":"interfaceId","type":"bytes4","internalType":"bytes4"}],"outputs":[{"name":"","type":"bool","internalType":"bool"}],"stateMutability":"view"},{"type":"event","name":"ApprovalForAll","inputs":[{"name":"owner","type":"address","indexed":true,"internalType":"address"},{"name":"operator","type":"address","indexed":true,"internalType":"address"},{"name":"approved","type":"bool","indexed":false,"internalType":"bool"}],"anonymous":false},{"type":"event","name":"ExpirationExtended","inputs":[{"name":"labelhash","type":"bytes32","indexed":true,"internalType":"bytes32"},{"name":"newExpiration","type":"uint256","indexed":false,"internalType":"uint256"}],"anonymous":false},{"type":"event","name":"NewLabelhashOwner","inputs":[{"name":"labelhash","type":"bytes32","indexed":true,"internalType":"bytes32"},{"name":"label","type":"string","indexed":true,"internalType":"string"},{"name":"owner","type":"address","indexed":false,"internalType":"address"}],"anonymous":false},{"type":"event","name":"ResolverChanged","inputs":[{"name":"labelhash","type":"bytes32","indexed":true,"internalType":"bytes32"},{"name":"resolver","type":"address","indexed":false,"internalType":"address"}],"anonymous":false},{"type":"event","name":"RoleAdminChanged","inputs":[{"name":"role","type":"bytes32","indexed":true,"internalType":"bytes32"},{"name":"previousAdminRole","type":"bytes32","indexed":true,"internalType":"bytes32"},{"name":"newAdminRole","type":"bytes32","indexed":true,"internalType":"bytes32"}],"anonymous":false},{"type":"event","name":"RoleGranted","inputs":[{"name":"role","type":"bytes32","indexed":true,"internalType":"bytes32"},{"name":"account","type":"address","indexed":true,"internalType":"address"},{"name":"sender","type":"address","indexed":true,"internalType":"address"}],"anonymous":false},{"type":"event","name":"RoleRevoked","inputs":[{"name":"role","type":"bytes32","indexed":true,"internalType":"bytes32"},{"name":"account","type":"address","indexed":true,"internalType":"address"},{"name":"sender","type":"address","indexed":true,"internalType":"address"}],"anonymous":false},{"type":"event","name":"Transfer","inputs":[{"name":"labelhash","type":"bytes32","indexed":true,"internalType":"bytes32"},{"name":"owner","type":"address","indexed":false,"internalType":"address"}],"anonymous":false},{"type":"event","name":"labelhashRentalSet","inputs":[{"name":"labelhash","type":"bytes32","indexed":true,"internalType":"bytes32"},{"name":"expiration","type":"uint256","indexed":false,"internalType":"uint256"}],"anonymous":false},{"type":"error","name":"AccessControlBadConfirmation","inputs":[]},{"type":"error","name":"AccessControlUnauthorizedAccount","inputs":[{"name":"account","type":"address","internalType":"address"},{"name":"neededRole","type":"bytes32","internalType":"bytes32"}]},{"type":"error","name":"CannotReduceExpirationTime","inputs":[{"name":"currentExpiration","type":"uint256","internalType":"uint256"},{"name":"newExpiration","type":"uint256","internalType":"uint256"}]},{"type":"error","name":"CoinTypesArrayLengthMismatch","inputs":[{"name":"coinTypesLength","type":"uint256","internalType":"uint256"},{"name":"addressesLength","type":"uint256","internalType":"uint256"}]},{"type":"error","name":"CommitmentAlreadyExists","inputs":[{"name":"commitment","type":"bytes32","internalType":"bytes32"}]},{"type":"error","name":"CommitmentNotFound","inputs":[{"name":"commitment","type":"bytes32","internalType":"bytes32"}]},{"type":"error","name":"CommitmentTooNew","inputs":[{"name":"commitment","type":"bytes32","internalType":"bytes32"}]},{"type":"error","name":"KeysArrayLengthMismatch","inputs":[{"name":"keysLength","type":"uint256","internalType":"uint256"},{"name":"valuesLength","type":"uint256","internalType":"uint256"}]},{"type":"error","name":"NotAuthorised","inputs":[{"name":"labelhash","type":"bytes32","internalType":"bytes32"},{"name":"caller","type":"address","internalType":"address"}]},{"type":"error","name":"NotRegistrar","inputs":[{"name":"labelhash","type":"bytes32","internalType":"bytes32"},{"name":"caller","type":"address","internalType":"address"}]},{"type":"error","name":"ResolverAlreadyInUse","inputs":[{"name":"resolver","type":"address","internalType":"address"},{"name":"labelhash","type":"bytes32","internalType":"bytes32"}]},{"type":"error","name":"labelhashDoesNotExist","inputs":[{"name":"labelhash","type":"bytes32","internalType":"bytes32"}]},{"type":"error","name":"labelhashNotExpired","inputs":[{"name":"labelhash","type":"bytes32","internalType":"bytes32"},{"name":"expiration","type":"uint256","internalType":"uint256"}]},{"type":"error","name":"labelhashNotSet","inputs":[{"name":"labelhash","type":"bytes32","internalType":"bytes32"}]}],"bytecode":{"object":"0x608060405234801561000f575f5ffd5b506100225f5f1b3361005960201b60201c565b506100537fa49807205ce4d355092ef5a8a18f56e8913cf4a201fbe287825b095693c217753361005960201b60201c565b506101b8565b5f61006a838361014e60201b60201c565b6101445760015f5f8581526020019081526020015f205f015f8473ffffffffffffffffffffffffffffffffffffffff1673ffffffffffffffffffffffffffffffffffffffff1681526020019081526020015f205f6101000a81548160ff0219169083151502179055506100e16101b160201b60201c565b73ffffffffffffffffffffffffffffffffffffffff168273ffffffffffffffffffffffffffffffffffffffff16847f2f8788117e7eff1d82e926ec794901d17c78024a50270940304540a733656f0d60405160405180910390a460019050610148565b5f90505b92915050565b5f5f5f8481526020019081526020015f205f015f8373ffffffffffffffffffffffffffffffffffffffff1673ffffffffffffffffffffffffffffffffffffffff1681526020019081526020015f205f9054906101000a900460ff16905092915050565b5f33905090565b612506806101c55f395ff3fe608060405234801561000f575f5ffd5b506004361061018c575f3560e01c806375b238fc116100dc578063a22cb46511610095578063d547741f1161006f578063d547741f146104ee578063ef1590b81461050a578063f14fcbc81461053a578063f68e9553146105565761018c565b8063a22cb46514610472578063a32ce11e1461048e578063caf40379146104be5761018c565b806375b238fc1461039e578063839df945146103bc5780638963063e146103ec57806391d14854146104085780639d2c2f9814610438578063a217fddf146104545761018c565b80632e4f692a116101495780635330c1b5116101235780635330c1b5146103065780635b0fc9c3146103365780636903f9e3146103525780636db2feb21461036e5761018c565b80632e4f692a146102b05780632f2ff15d146102ce57806336568abe146102ea5761018c565b80630178b8bf1461019057806301ffc9a7146101c057806302571be3146101f0578063124313d91461022057806318c170f314610250578063248a9ca314610280575b5f5ffd5b6101aa60048036038101906101a591906119e6565b610574565b6040516101b79190611a50565b60405180910390f35b6101da60048036038101906101d59190611abe565b6105b0565b6040516101e79190611b03565b60405180910390f35b61020a600480360381019061020591906119e6565b6105c1565b6040516102179190611a50565b60405180910390f35b61023a60048036038101906102359190611cb5565b610601565b6040516102479190611d44565b60405180910390f35b61026a60048036038101906102659190611d5d565b6107fb565b6040516102779190611d44565b60405180910390f35b61029a600480360381019061029591906119e6565b610810565b6040516102a79190611d44565b60405180910390f35b6102b861082c565b6040516102c59190611d97565b60405180910390f35b6102e860048036038101906102e39190611db0565b610831565b005b61030460048036038101906102ff9190611db0565b610853565b005b610320600480360381019061031b91906119e6565b6108ce565b60405161032d9190611e4e565b60405180910390f35b610350600480360381019061034b9190611db0565b610972565b005b61036c60048036038101906103679190611e6e565b610b3a565b005b610388600480360381019061038391906119e6565b610c2c565b6040516103959190611b03565b60405180910390f35b6103a6610c4b565b6040516103b39190611d44565b60405180910390f35b6103d660048036038101906103d191906119e6565b610c6f565b6040516103e39190611d97565b60405180910390f35b61040660048036038101906104019190611eac565b610c84565b005b610422600480360381019061041d9190611db0565b610e0c565b60405161042f9190611b03565b60405180910390f35b610452600480360381019061044d9190611efc565b610e6f565b005b61045c6110b5565b6040516104699190611d44565b60405180910390f35b61048c60048036038101906104879190611f8a565b6110bb565b005b6104a860048036038101906104a39190611fc8565b6111b3565b6040516104b59190611b03565b60405180910390f35b6104d860048036038101906104d39190611efc565b6111dd565b6040516104e59190611d44565b60405180910390f35b61050860048036038101906105039190611db0565b611215565b005b610524600480360381019061051f91906119e6565b611237565b6040516105319190611d97565b60405180910390f35b610554600480360381019061054f91906119e6565b611254565b005b61055e6112c2565b60405161056b9190611d44565b60405180910390f35b5f60045f8381526020019081526020015f206001015f9054906101000a900473ffffffffffffffffffffffffffffffffffffffff169050919050565b5f6105ba826112e6565b9050919050565b5f5f60045f8481526020019081526020015f205f015f9054906101000a900473ffffffffffffffffffffffffffffffffffffffff16905080915050919050565b5f7fedcc084d3dcd65a1f7f23c65c46722faca6953d28e43150a467cf43e5c30923861062c8161135f565b5f8680519060200120905060045f8281526020019081526020015f20600301544210158160045f8481526020019081526020015f206003015490916106a8576040517f9f1274d500000000000000000000000000000000000000000000000000000000815260040161069f929190612006565b60405180910390fd5b50508560045f8381526020019081526020015f205f015f6101000a81548173ffffffffffffffffffffffffffffffffffffffff021916908373ffffffffffffffffffffffffffffffffffffffff1602179055508360045f8381526020019081526020015f206003018190555061071e8186611373565b807fd4735d920b0f87494915f556dd9b54c8f309026070caea5c737245152564d2668760405161074e9190611a50565b60405180910390a2866040516107649190612067565b6040518091039020817f146e3790409df1dc417f64b868c40288aa687364c5788dbc47e847eab0fdc9cf8860405161079c9190611a50565b60405180910390a35f60045f8381526020019081526020015f2060020180546107c4906120aa565b9050036107ee578660045f8381526020019081526020015f2060020190816107ec919061227a565b505b8092505050949350505050565b6002602052805f5260405f205f915090505481565b5f5f5f8381526020019081526020015f20600101549050919050565b603c81565b61083a82610810565b6108438161135f565b61084d8383611619565b50505050565b61085b611702565b73ffffffffffffffffffffffffffffffffffffffff168173ffffffffffffffffffffffffffffffffffffffff16146108bf576040517f6697b23200000000000000000000000000000000000000000000000000000000815260040160405180910390fd5b6108c98282611709565b505050565b606060045f8381526020019081526020015f2060020180546108ef906120aa565b80601f016020809104026020016040519081016040528092919081815260200182805461091b906120aa565b80156109665780601f1061093d57610100808354040283529160200191610966565b820191905f5260205f20905b81548152906001019060200180831161094957829003601f168201915b50505050509050919050565b815f60045f8381526020019081526020015f205f015f9054906101000a900473ffffffffffffffffffffffffffffffffffffffff1690503373ffffffffffffffffffffffffffffffffffffffff168173ffffffffffffffffffffffffffffffffffffffff161480610a64575060015f8273ffffffffffffffffffffffffffffffffffffffff1673ffffffffffffffffffffffffffffffffffffffff1681526020019081526020015f205f3373ffffffffffffffffffffffffffffffffffffffff1673ffffffffffffffffffffffffffffffffffffffff1681526020019081526020015f205f9054906101000a900460ff165b82339091610aa9576040517f14c417b5000000000000000000000000000000000000000000000000000000008152600401610aa0929190612349565b60405180910390fd5b50508260045f8681526020019081526020015f205f015f6101000a81548173ffffffffffffffffffffffffffffffffffffffff021916908373ffffffffffffffffffffffffffffffffffffffff160217905550837fd4735d920b0f87494915f556dd9b54c8f309026070caea5c737245152564d26684604051610b2c9190611a50565b60405180910390a250505050565b7fedcc084d3dcd65a1f7f23c65c46722faca6953d28e43150a467cf43e5c309238610b648161135f565b60045f8481526020019081526020015f2060030154821160045f8581526020019081526020015f2060030154839091610bd4576040517fb15f6d99000000000000000000000000000000000000000000000000000000008152600401610bcb929190612370565b60405180910390fd5b50508160045f8581526020019081526020015f2060030181905550827fe5e05bd62ea8b19b4a28de8e7a63d720f3eafeee49040a6a7c20cdb5b45aec4e83604051610c1f9190611d97565b60405180910390a2505050565b5f60045f8381526020019081526020015f206003015442119050919050565b7fa49807205ce4d355092ef5a8a18f56e8913cf4a201fbe287825b095693c2177581565b6003602052805f5260405f205f915090505481565b825f60045f8381526020019081526020015f205f015f9054906101000a900473ffffffffffffffffffffffffffffffffffffffff1690503373ffffffffffffffffffffffffffffffffffffffff168173ffffffffffffffffffffffffffffffffffffffff161480610d76575060015f8273ffffffffffffffffffffffffffffffffffffffff1673ffffffffffffffffffffffffffffffffffffffff1681526020019081526020015f205f3373ffffffffffffffffffffffffffffffffffffffff1673ffffffffffffffffffffffffffffffffffffffff1681526020019081526020015f205f9054906101000a900460ff165b82339091610dbb576040517f14c417b5000000000000000000000000000000000000000000000000000000008152600401610db2929190612349565b60405180910390fd5b5050610dfb8560045f8881526020019081526020015f205f015f9054906101000a900473ffffffffffffffffffffffffffffffffffffffff1686866117f2565b610e058585611373565b5050505050565b5f5f5f8481526020019081526020015f205f015f8373ffffffffffffffffffffffffffffffffffffffff1673ffffffffffffffffffffffffffffffffffffffff1681526020019081526020015f205f9054906101000a900460ff16905092915050565b835f60045f8381526020019081526020015f205f015f9054906101000a900473ffffffffffffffffffffffffffffffffffffffff1690503373ffffffffffffffffffffffffffffffffffffffff168173ffffffffffffffffffffffffffffffffffffffff161480610f61575060015f8273ffffffffffffffffffffffffffffffffffffffff1673ffffffffffffffffffffffffffffffffffffffff1681526020019081526020015f205f3373ffffffffffffffffffffffffffffffffffffffff1673ffffffffffffffffffffffffffffffffffffffff1681526020019081526020015f205f9054906101000a900460ff165b82339091610fa6576040517f14c417b5000000000000000000000000000000000000000000000000000000008152600401610f9d929190612349565b60405180910390fd5b5050610fb4868686866117f2565b5f60045f8881526020019081526020015f206002018054610fd4906120aa565b9050118690611019576040517f0909494b0000000000000000000000000000000000000000000000000000000081526004016110109190611d44565b60405180910390fd5b508460045f8881526020019081526020015f205f015f6101000a81548173ffffffffffffffffffffffffffffffffffffffff021916908373ffffffffffffffffffffffffffffffffffffffff160217905550857fd4735d920b0f87494915f556dd9b54c8f309026070caea5c737245152564d2668660405161109b9190611a50565b60405180910390a26110ad8685611373565b505050505050565b5f5f1b81565b8060015f3373ffffffffffffffffffffffffffffffffffffffff1673ffffffffffffffffffffffffffffffffffffffff1681526020019081526020015f205f8473ffffffffffffffffffffffffffffffffffffffff1673ffffffffffffffffffffffffffffffffffffffff1681526020019081526020015f205f6101000a81548160ff0219169083151502179055508173ffffffffffffffffffffffffffffffffffffffff163373ffffffffffffffffffffffffffffffffffffffff167f17307eab39ab6107e8899845ad3d59bd9653f200f220920489ca2b5937696c31836040516111a79190611b03565b60405180910390a35050565b6001602052815f5260405f20602052805f5260405f205f915091509054906101000a900460ff1681565b5f848484846040516020016111f594939291906123fc565b604051602081830303815290604052805190602001209050949350505050565b61121e82610810565b6112278161135f565b6112318383611709565b50505050565b5f60045f8381526020019081526020015f20600301549050919050565b5f60035f8381526020019081526020015f2054146112a957806040517fc5f89f050000000000000000000000000000000000000000000000000000000081526004016112a09190611d44565b60405180910390fd5b4260035f8381526020019081526020015f208190555050565b7fedcc084d3dcd65a1f7f23c65c46722faca6953d28e43150a467cf43e5c30923881565b5f7f7965db0b000000000000000000000000000000000000000000000000000000007bffffffffffffffffffffffffffffffffffffffffffffffffffffffff1916827bffffffffffffffffffffffffffffffffffffffffffffffffffffffff191614806113585750611357826118e8565b5b9050919050565b6113708161136b611702565b611951565b50565b5f60045f8481526020019081526020015f206001015f9054906101000a900473ffffffffffffffffffffffffffffffffffffffff1690508173ffffffffffffffffffffffffffffffffffffffff168173ffffffffffffffffffffffffffffffffffffffff1614611614575f73ffffffffffffffffffffffffffffffffffffffff168173ffffffffffffffffffffffffffffffffffffffff16146114515760025f8273ffffffffffffffffffffffffffffffffffffffff1673ffffffffffffffffffffffffffffffffffffffff1681526020019081526020015f205f90555b5f73ffffffffffffffffffffffffffffffffffffffff168273ffffffffffffffffffffffffffffffffffffffff1614611589575f5f1b60025f8473ffffffffffffffffffffffffffffffffffffffff1673ffffffffffffffffffffffffffffffffffffffff1681526020019081526020015f205414611546578160025f8473ffffffffffffffffffffffffffffffffffffffff1673ffffffffffffffffffffffffffffffffffffffff1681526020019081526020015f20546040517f0b7b9f4300000000000000000000000000000000000000000000000000000000815260040161153d929190612449565b60405180910390fd5b8260025f8473ffffffffffffffffffffffffffffffffffffffff1673ffffffffffffffffffffffffffffffffffffffff1681526020019081526020015f20819055505b8160045f8581526020019081526020015f206001015f6101000a81548173ffffffffffffffffffffffffffffffffffffffff021916908373ffffffffffffffffffffffffffffffffffffffff160217905550827f9536641548723c985801eef80fb38603b837722ccd8b61d42f6247c28afd33598360405161160b9190611a50565b60405180910390a25b505050565b5f6116248383610e0c565b6116f85760015f5f8581526020019081526020015f205f015f8473ffffffffffffffffffffffffffffffffffffffff1673ffffffffffffffffffffffffffffffffffffffff1681526020019081526020015f205f6101000a81548160ff021916908315150217905550611695611702565b73ffffffffffffffffffffffffffffffffffffffff168273ffffffffffffffffffffffffffffffffffffffff16847f2f8788117e7eff1d82e926ec794901d17c78024a50270940304540a733656f0d60405160405180910390a4600190506116fc565b5f90505b92915050565b5f33905090565b5f6117148383610e0c565b156117e8575f5f5f8581526020019081526020015f205f015f8473ffffffffffffffffffffffffffffffffffffffff1673ffffffffffffffffffffffffffffffffffffffff1681526020019081526020015f205f6101000a81548160ff021916908315150217905550611785611702565b73ffffffffffffffffffffffffffffffffffffffff168273ffffffffffffffffffffffffffffffffffffffff16847ff6391f5c32d9c69d2a47ea670b442974b53935d1edc7fd64eb21e047a839171b60405160405180910390a4600190506117ec565b5f90505b92915050565b5f8484848460405160200161180a94939291906123fc565b6040516020818303038152906040528051906020012090505f60035f8381526020019081526020015f205490505f810361187b57816040517f836588c90000000000000000000000000000000000000000000000000000000081526004016118729190611d44565b60405180910390fd5b603c81611888919061249d565b4210156118cc57816040517f5320bcf90000000000000000000000000000000000000000000000000000000081526004016118c39190611d44565b60405180910390fd5b60035f8381526020019081526020015f205f9055505050505050565b5f7f01ffc9a7000000000000000000000000000000000000000000000000000000007bffffffffffffffffffffffffffffffffffffffffffffffffffffffff1916827bffffffffffffffffffffffffffffffffffffffffffffffffffffffff1916149050919050565b61195b8282610e0c565b61199e5780826040517fe2517d3f000000000000000000000000000000000000000000000000000000008152600401611995929190612449565b60405180910390fd5b5050565b5f604051905090565b5f5ffd5b5f5ffd5b5f819050919050565b6119c5816119b3565b81146119cf575f5ffd5b50565b5f813590506119e0816119bc565b92915050565b5f602082840312156119fb576119fa6119ab565b5b5f611a08848285016119d2565b91505092915050565b5f73ffffffffffffffffffffffffffffffffffffffff82169050919050565b5f611a3a82611a11565b9050919050565b611a4a81611a30565b82525050565b5f602082019050611a635f830184611a41565b92915050565b5f7fffffffff0000000000000000000000000000000000000000000000000000000082169050919050565b611a9d81611a69565b8114611aa7575f5ffd5b50565b5f81359050611ab881611a94565b92915050565b5f60208284031215611ad357611ad26119ab565b5b5f611ae084828501611aaa565b91505092915050565b5f8115159050919050565b611afd81611ae9565b82525050565b5f602082019050611b165f830184611af4565b92915050565b5f5ffd5b5f5ffd5b5f601f19601f8301169050919050565b7f4e487b71000000000000000000000000000000000000000000000000000000005f52604160045260245ffd5b611b6a82611b24565b810181811067ffffffffffffffff82111715611b8957611b88611b34565b5b80604052505050565b5f611b9b6119a2565b9050611ba78282611b61565b919050565b5f67ffffffffffffffff821115611bc657611bc5611b34565b5b611bcf82611b24565b9050602081019050919050565b828183375f83830152505050565b5f611bfc611bf784611bac565b611b92565b905082815260208101848484011115611c1857611c17611b20565b5b611c23848285611bdc565b509392505050565b5f82601f830112611c3f57611c3e611b1c565b5b8135611c4f848260208601611bea565b91505092915050565b611c6181611a30565b8114611c6b575f5ffd5b50565b5f81359050611c7c81611c58565b92915050565b5f819050919050565b611c9481611c82565b8114611c9e575f5ffd5b50565b5f81359050611caf81611c8b565b92915050565b5f5f5f5f60808587031215611ccd57611ccc6119ab565b5b5f85013567ffffffffffffffff811115611cea57611ce96119af565b5b611cf687828801611c2b565b9450506020611d0787828801611c6e565b9350506040611d1887828801611c6e565b9250506060611d2987828801611ca1565b91505092959194509250565b611d3e816119b3565b82525050565b5f602082019050611d575f830184611d35565b92915050565b5f60208284031215611d7257611d716119ab565b5b5f611d7f84828501611c6e565b91505092915050565b611d9181611c82565b82525050565b5f602082019050611daa5f830184611d88565b92915050565b5f5f60408385031215611dc657611dc56119ab565b5b5f611dd3858286016119d2565b9250506020611de485828601611c6e565b9150509250929050565b5f81519050919050565b5f82825260208201905092915050565b8281835e5f83830152505050565b5f611e2082611dee565b611e2a8185611df8565b9350611e3a818560208601611e08565b611e4381611b24565b840191505092915050565b5f6020820190508181035f830152611e668184611e16565b905092915050565b5f5f60408385031215611e8457611e836119ab565b5b5f611e91858286016119d2565b9250506020611ea285828601611ca1565b9150509250929050565b5f5f5f60608486031215611ec357611ec26119ab565b5b5f611ed0868287016119d2565b9350506020611ee186828701611c6e565b9250506040611ef2868287016119d2565b9150509250925092565b5f5f5f5f60808587031215611f1457611f136119ab565b5b5f611f21878288016119d2565b9450506020611f3287828801611c6e565b9350506040611f4387828801611c6e565b9250506060611f54878288016119d2565b91505092959194509250565b611f6981611ae9565b8114611f73575f5ffd5b50565b5f81359050611f8481611f60565b92915050565b5f5f60408385031215611fa057611f9f6119ab565b5b5f611fad85828601611c6e565b9250506020611fbe85828601611f76565b9150509250929050565b5f5f60408385031215611fde57611fdd6119ab565b5b5f611feb85828601611c6e565b9250506020611ffc85828601611c6e565b9150509250929050565b5f6040820190506120195f830185611d35565b6120266020830184611d88565b9392505050565b5f81905092915050565b5f61204182611dee565b61204b818561202d565b935061205b818560208601611e08565b80840191505092915050565b5f6120728284612037565b915081905092915050565b7f4e487b71000000000000000000000000000000000000000000000000000000005f52602260045260245ffd5b5f60028204905060018216806120c157607f821691505b6020821081036120d4576120d361207d565b5b50919050565b5f819050815f5260205f209050919050565b5f6020601f8301049050919050565b5f82821b905092915050565b5f600883026121367fffffffffffffffffffffffffffffffffffffffffffffffffffffffffffffffff826120fb565b61214086836120fb565b95508019841693508086168417925050509392505050565b5f819050919050565b5f61217b61217661217184611c82565b612158565b611c82565b9050919050565b5f819050919050565b61219483612161565b6121a86121a082612182565b848454612107565b825550505050565b5f5f905090565b6121bf6121b0565b6121ca81848461218b565b505050565b5b818110156121ed576121e25f826121b7565b6001810190506121d0565b5050565b601f82111561223257612203816120da565b61220c846120ec565b8101602085101561221b578190505b61222f612227856120ec565b8301826121cf565b50505b505050565b5f82821c905092915050565b5f6122525f1984600802612237565b1980831691505092915050565b5f61226a8383612243565b9150826002028217905092915050565b61228382611dee565b67ffffffffffffffff81111561229c5761229b611b34565b5b6122a682546120aa565b6122b18282856121f1565b5f60209050601f8311600181146122e2575f84156122d0578287015190505b6122da858261225f565b865550612341565b601f1984166122f0866120da565b5f5b82811015612317578489015182556001820191506020850194506020810190506122f2565b868310156123345784890151612330601f891682612243565b8355505b6001600288020188555050505b505050505050565b5f60408201905061235c5f830185611d35565b6123696020830184611a41565b9392505050565b5f6040820190506123835f830185611d88565b6123906020830184611d88565b9392505050565b5f819050919050565b6123b16123ac826119b3565b612397565b82525050565b5f8160601b9050919050565b5f6123cd826123b7565b9050919050565b5f6123de826123c3565b9050919050565b6123f66123f182611a30565b6123d4565b82525050565b5f61240782876123a0565b60208201915061241782866123e5565b60148201915061242782856123e5565b60148201915061243782846123a0565b60208201915081905095945050505050565b5f60408201905061245c5f830185611a41565b6124696020830184611d35565b9392505050565b7f4e487b71000000000000000000000000000000000000000000000000000000005f52601160045260245ffd5b5f6124a782611c82565b91506124b283611c82565b92508282019050808211156124ca576124c9612470565b5b9291505056fea2646970667358221220f44e49052ba55bec01d424232eb2759db51ca95e20b6acce126fda3a3d3dba2064736f6c634300081e0033","linkReferences":{}},"methodIdentifiers":{"ADMIN_ROLE()":"75b238fc","DEFAULT_ADMIN_ROLE()":"a217fddf","MIN_COMMITMENT_AGE()":"2e4f692a","REGISTRAR_ROLE()":"f68e9553","approvals(address,address)":"a32ce11e","commit(bytes32)":"f14fcbc8","commitments(bytes32)":"839df945","createCommitment(bytes32,address,address,bytes32)":"caf40379","extendExpiration(bytes32,uint256)":"6903f9e3","getExpiration(bytes32)":"ef1590b8","getLabel(bytes32)":"5330c1b5","getRoleAdmin(bytes32)":"248a9ca3","grantRole(bytes32,address)":"2f2ff15d","hasRole(bytes32,address)":"91d14854","isExpired(bytes32)":"6db2feb2","owner(bytes32)":"02571be3","renounceRole(bytes32,address)":"36568abe","resolver(bytes32)":"0178b8bf","resolverToLabelhash(address)":"18c170f3","revokeRole(bytes32,address)":"d547741f","setApprovalForAll(address,bool)":"a22cb465","setLabelhashRecord(string,address,address,uint256)":"124313d9","setOwner(bytes32,address)":"5b0fc9c3","setRecord(bytes32,address,address,bytes32)":"9d2c2f98","setResolver(bytes32,address,bytes32)":"8963063e","supportsInterface(bytes4)":"01ffc9a7"},"id":34}