{"abi":[{"type":"constructor","inputs":[{"name":"_ens","type":"address","internalType":"contract ENS"},{"name":"_rootNode","type":"bytes32","internalType":"bytes32"}],"stateMutability":"nonpayable"},{"type":"function","name":"ADMIN_ROLE","inputs":[],"outputs":[{"name":"","type":"bytes32","internalType":"bytes32"}],"stateMutability":"view"},{"type":"function","name":"DEFAULT_ADMIN_ROLE","inputs":[],"outputs":[{"name":"","type":"bytes32","internalType":"bytes32"}],"stateMutability":"view"},{"type":"function","name":"MIN_COMMITMENT_AGE","inputs":[],"outputs":[{"name":"","type":"uint256","internalType":"uint256"}],"stateMutability":"view"},{"type":"function","name":"REGISTRAR_ROLE","inputs":[],"outputs":[{"name":"","type":"bytes32","internalType":"bytes32"}],"stateMutability":"view"},{"type":"function","name":"approvals","inputs":[{"name":"owner","type":"address","internalType":"address"},{"name":"approved","type":"address","internalType":"address"}],"outputs":[{"name":"","type":"bool","internalType":"bool"}],"stateMutability":"view"},{"type":"function","name":"commit","inputs":[{"name":"commitment","type":"bytes32","internalType":"bytes32"}],"outputs":[],"stateMutability":"nonpayable"},{"type":"function","name":"commitments","inputs":[{"name":"","type":"bytes32","internalType":"bytes32"}],"outputs":[{"name":"","type":"uint256","internalType":"uint256"}],"stateMutability":"view"},{"type":"function","name":"createCommitment","inputs":[{"name":"labelhash","type":"bytes32","internalType":"bytes32"},{"name":"owner","type":"address","internalType":"address"},{"name":"resolver","type":"address","internalType":"address"},{"name":"secret","type":"bytes32","internalType":"bytes32"}],"outputs":[{"name":"","type":"bytes32","internalType":"bytes32"}],"stateMutability":"pure"},{"type":"function","name":"ens","inputs":[],"outputs":[{"name":"","type":"address","internalType":"contract ENS"}],"stateMutability":"view"},{"type":"function","name":"extendExpiration","inputs":[{"name":"labelhash","type":"bytes32","internalType":"bytes32"},{"name":"newExpiration","type":"uint256","internalType":"uint256"}],"outputs":[],"stateMutability":"nonpayable"},{"type":"function","name":"getExpiration","inputs":[{"name":"labelhash","type":"bytes32","internalType":"bytes32"}],"outputs":[{"name":"","type":"uint256","internalType":"uint256"}],"stateMutability":"view"},{"type":"function","name":"getLabel","inputs":[{"name":"labelhash","type":"bytes32","internalType":"bytes32"}],"outputs":[{"name":"","type":"string","internalType":"string"}],"stateMutability":"view"},{"type":"function","name":"getLabelByResolver","inputs":[{"name":"resolver_","type":"address","internalType":"address"}],"outputs":[{"name":"","type":"string","internalType":"string"}],"stateMutability":"view"},{"type":"function","name":"getRoleAdmin","inputs":[{"name":"role","type":"bytes32","internalType":"bytes32"}],"outputs":[{"name":"","type":"bytes32","internalType":"bytes32"}],"stateMutability":"view"},{"type":"function","name":"grantRole","inputs":[{"name":"role","type":"bytes32","internalType":"bytes32"},{"name":"account","type":"address","internalType":"address"}],"outputs":[],"stateMutability":"nonpayable"},{"type":"function","name":"hasRole","inputs":[{"name":"role","type":"bytes32","internalType":"bytes32"},{"name":"account","type":"address","internalType":"address"}],"outputs":[{"name":"","type":"bool","internalType":"bool"}],"stateMutability":"view"},{"type":"function","name":"isExpired","inputs":[{"name":"labelhash","type":"bytes32","internalType":"bytes32"}],"outputs":[{"name":"","type":"bool","internalType":"bool"}],"stateMutability":"view"},{"type":"function","name":"owner","inputs":[{"name":"labelhash","type":"bytes32","internalType":"bytes32"}],"outputs":[{"name":"","type":"address","internalType":"address"}],"stateMutability":"view"},{"type":"function","name":"renounceRole","inputs":[{"name":"role","type":"bytes32","internalType":"bytes32"},{"name":"callerConfirmation","type":"address","internalType":"address"}],"outputs":[],"stateMutability":"nonpayable"},{"type":"function","name":"resolver","inputs":[{"name":"labelhash","type":"bytes32","internalType":"bytes32"}],"outputs":[{"name":"","type":"address","internalType":"address"}],"stateMutability":"view"},{"type":"function","name":"resolverToLabelhash","inputs":[{"name":"resolver","type":"address","internalType":"address"}],"outputs":[{"name":"labelhash","type":"bytes32","internalType":"bytes32"}],"stateMutability":"view"},{"type":"function","name":"revokeRole","inputs":[{"name":"role","type":"bytes32","internalType":"bytes32"},{"name":"account","type":"address","internalType":"address"}],"outputs":[],"stateMutability":"nonpayable"},{"type":"function","name":"rootNode","inputs":[],"outputs":[{"name":"","type":"bytes32","internalType":"bytes32"}],"stateMutability":"view"},{"type":"function","name":"setApprovalForAll","inputs":[{"name":"operator","type":"address","internalType":"address"},{"name":"approved","type":"bool","internalType":"bool"}],"outputs":[],"stateMutability":"nonpayable"},{"type":"function","name":"setLabelhashRecord","inputs":[{"name":"label","type":"string","internalType":"string"},{"name":"newOwner","type":"address","internalType":"address"},{"name":"resolver_","type":"address","internalType":"address"},{"name":"expiration","type":"uint256","internalType":"uint256"}],"outputs":[{"name":"","type":"bytes32","internalType":"bytes32"}],"stateMutability":"nonpayable"},{"type":"function","name":"setOwner","inputs":[{"name":"labelhash","type":"bytes32","internalType":"bytes32"},{"name":"newOwner","type":"address","internalType":"address"}],"outputs":[],"stateMutability":"nonpayable"},{"type":"function","name":"setRecord","inputs":[{"name":"labelhash","type":"bytes32","internalType":"bytes32"},{"name":"newOwner","type":"address","internalType":"address"},{"name":"resolver_","type":"address","internalType":"address"},{"name":"secret","type":"bytes32","internalType":"bytes32"}],"outputs":[],"stateMutability":"nonpayable"},{"type":"function","name":"setResolver","inputs":[{"name":"labelhash","type":"bytes32","internalType":"bytes32"},{"name":"resolver_","type":"address","internalType":"address"},{"name":"secret","type":"bytes32","internalType":"bytes32"}],"outputs":[],"stateMutability":"nonpayable"},{"type":"function","name":"supportsInterface","inputs":[{"name":"interfaceId","type":"bytes4","internalType":"bytes4"}],"outputs":[{"name":"","type":"bool","internalType":"bool"}],"stateMutability":"view"},{"type":"event","name":"ApprovalForAll","inputs":[{"name":"owner","type":"address","indexed":true,"internalType":"address"},{"name":"operator","type":"address","indexed":true,"internalType":"address"},{"name":"approved","type":"bool","indexed":false,"internalType":"bool"}],"anonymous":false},{"type":"event","name":"ExpirationExtended","inputs":[{"name":"labelhash","type":"bytes32","indexed":true,"internalType":"bytes32"},{"name":"newExpiration","type":"uint256","indexed":false,"internalType":"uint256"}],"anonymous":false},{"type":"event","name":"NewLabelhashOwner","inputs":[{"name":"labelhash","type":"bytes32","indexed":true,"internalType":"bytes32"},{"name":"label","type":"string","indexed":true,"internalType":"string"},{"name":"owner","type":"address","indexed":false,"internalType":"address"}],"anonymous":false},{"type":"event","name":"ResolverChanged","inputs":[{"name":"labelhash","type":"bytes32","indexed":true,"internalType":"bytes32"},{"name":"resolver","type":"address","indexed":false,"internalType":"address"}],"anonymous":false},{"type":"event","name":"RoleAdminChanged","inputs":[{"name":"role","type":"bytes32","indexed":true,"internalType":"bytes32"},{"name":"previousAdminRole","type":"bytes32","indexed":true,"internalType":"bytes32"},{"name":"newAdminRole","type":"bytes32","indexed":true,"internalType":"bytes32"}],"anonymous":false},{"type":"event","name":"RoleGranted","inputs":[{"name":"role","type":"bytes32","indexed":true,"internalType":"bytes32"},{"name":"account","type":"address","indexed":true,"internalType":"address"},{"name":"sender","type":"address","indexed":true,"internalType":"address"}],"anonymous":false},{"type":"event","name":"RoleRevoked","inputs":[{"name":"role","type":"bytes32","indexed":true,"internalType":"bytes32"},{"name":"account","type":"address","indexed":true,"internalType":"address"},{"name":"sender","type":"address","indexed":true,"internalType":"address"}],"anonymous":false},{"type":"event","name":"Transfer","inputs":[{"name":"labelhash","type":"bytes32","indexed":true,"internalType":"bytes32"},{"name":"owner","type":"address","indexed":false,"internalType":"address"}],"anonymous":false},{"type":"event","name":"labelhashRentalSet","inputs":[{"name":"labelhash","type":"bytes32","indexed":true,"internalType":"bytes32"},{"name":"expiration","type":"uint256","indexed":false,"internalType":"uint256"}],"anonymous":false},{"type":"error","name":"AccessControlBadConfirmation","inputs":[]},{"type":"error","name":"AccessControlUnauthorizedAccount","inputs":[{"name":"account","type":"address","internalType":"address"},{"name":"neededRole","type":"bytes32","internalType":"bytes32"}]},{"type":"error","name":"CannotReduceExpirationTime","inputs":[{"name":"currentExpiration","type":"uint256","internalType":"uint256"},{"name":"newExpiration","type":"uint256","internalType":"uint256"}]},{"type":"error","name":"CoinTypesArrayLengthMismatch","inputs":[{"name":"coinTypesLength","type":"uint256","internalType":"uint256"},{"name":"addressesLength","type":"uint256","internalType":"uint256"}]},{"type":"error","name":"CommitmentAlreadyExists","inputs":[{"name":"commitment","type":"bytes32","internalType":"bytes32"}]},{"type":"error","name":"CommitmentNotFound","inputs":[{"name":"commitment","type":"bytes32","internalType":"bytes32"}]},{"type":"error","name":"CommitmentTooNew","inputs":[{"name":"commitment","type":"bytes32","internalType":"bytes32"}]},{"type":"error","name":"KeysArrayLengthMismatch","inputs":[{"name":"keysLength","type":"uint256","internalType":"uint256"},{"name":"valuesLength","type":"uint256","internalType":"uint256"}]},{"type":"error","name":"NotAuthorised","inputs":[{"name":"labelhash","type":"bytes32","internalType":"bytes32"},{"name":"caller","type":"address","internalType":"address"}]},{"type":"error","name":"NotRegistrar","inputs":[{"name":"labelhash","type":"bytes32","internalType":"bytes32"},{"name":"caller","type":"address","internalType":"address"}]},{"type":"error","name":"ResolverAlreadyInUse","inputs":[{"name":"resolver","type":"address","internalType":"address"},{"name":"labelhash","type":"bytes32","internalType":"bytes32"}]},{"type":"error","name":"labelhashDoesNotExist","inputs":[{"name":"labelhash","type":"bytes32","internalType":"bytes32"}]},{"type":"error","name":"labelhashNotExpired","inputs":[{"name":"labelhash","type":"bytes32","internalType":"bytes32"},{"name":"expiration","type":"uint256","internalType":"uint256"}]},{"type":"error","name":"labelhashNotSet","inputs":[{"name":"labelhash","type":"bytes32","internalType":"bytes32"}]}],"bytecode":{"object":"0x60c060405234801561000f575f5ffd5b50604051612e3b380380612e3b833981810160405281019061003191906102b9565b6100435f5f1b336100b860201b60201c565b506100747fa49807205ce4d355092ef5a8a18f56e8913cf4a201fbe287825b095693c21775336100b860201b60201c565b508173ffffffffffffffffffffffffffffffffffffffff1660808173ffffffffffffffffffffffffffffffffffffffff16815250508060a0818152505050506102f7565b5f6100c983836101ad60201b60201c565b6101a35760015f5f8581526020019081526020015f205f015f8473ffffffffffffffffffffffffffffffffffffffff1673ffffffffffffffffffffffffffffffffffffffff1681526020019081526020015f205f6101000a81548160ff02191690831515021790555061014061021060201b60201c565b73ffffffffffffffffffffffffffffffffffffffff168273ffffffffffffffffffffffffffffffffffffffff16847f2f8788117e7eff1d82e926ec794901d17c78024a50270940304540a733656f0d60405160405180910390a4600190506101a7565b5f90505b92915050565b5f5f5f8481526020019081526020015f205f015f8373ffffffffffffffffffffffffffffffffffffffff1673ffffffffffffffffffffffffffffffffffffffff1681526020019081526020015f205f9054906101000a900460ff16905092915050565b5f33905090565b5f5ffd5b5f73ffffffffffffffffffffffffffffffffffffffff82169050919050565b5f6102448261021b565b9050919050565b5f6102558261023a565b9050919050565b6102658161024b565b811461026f575f5ffd5b50565b5f815190506102808161025c565b92915050565b5f819050919050565b61029881610286565b81146102a2575f5ffd5b50565b5f815190506102b38161028f565b92915050565b5f5f604083850312156102cf576102ce610217565b5b5f6102dc85828601610272565b92505060206102ed858286016102a5565b9150509250929050565b60805160a051612ae46103575f395f8181610683015281816115ae015281816116770152611a0001525f818161063b015281816106ac01528181610b72015281816116bb015281816116f70152818161198801526119c40152612ae45ff3fe608060405234801561000f575f5ffd5b50600436106101cd575f3560e01c80636db2feb211610102578063a22cb465116100a0578063ef1590b81161006f578063ef1590b814610599578063f14fcbc8146105c9578063f68e9553146105e5578063faff50a814610603576101cd565b8063a22cb46514610501578063a32ce11e1461051d578063caf403791461054d578063d547741f1461057d576101cd565b80638963063e116100dc5780638963063e1461047b57806391d14854146104975780639d2c2f98146104c7578063a217fddf146104e3576101cd565b80636db2feb2146103fd57806375b238fc1461042d578063839df9451461044b576101cd565b80632e4f692a1161016f5780633f15457f116101495780633f15457f146103775780635330c1b5146103955780635b0fc9c3146103c55780636903f9e3146103e1576101cd565b80632e4f692a146103215780632f2ff15d1461033f57806336568abe1461035b576101cd565b8063052091c3116101ab578063052091c314610261578063124313d91461029157806318c170f3146102c1578063248a9ca3146102f1576101cd565b80630178b8bf146101d157806301ffc9a71461020157806302571be314610231575b5f5ffd5b6101eb60048036038101906101e69190611e7d565b610621565b6040516101f89190611ee7565b60405180910390f35b61021b60048036038101906102169190611f55565b61074b565b6040516102289190611f9a565b60405180910390f35b61024b60048036038101906102469190611e7d565b61075c565b6040516102589190611ee7565b60405180910390f35b61027b60048036038101906102769190611fdd565b61079c565b6040516102889190612078565b60405180910390f35b6102ab60048036038101906102a691906121f7565b6108a3565b6040516102b89190612286565b60405180910390f35b6102db60048036038101906102d69190611fdd565b610a9d565b6040516102e89190612286565b60405180910390f35b61030b60048036038101906103069190611e7d565b610ab2565b6040516103189190612286565b60405180910390f35b610329610ace565b60405161033691906122ae565b60405180910390f35b610359600480360381019061035491906122c7565b610ad3565b005b610375600480360381019061037091906122c7565b610af5565b005b61037f610b70565b60405161038c9190612360565b60405180910390f35b6103af60048036038101906103aa9190611e7d565b610b94565b6040516103bc9190612078565b60405180910390f35b6103df60048036038101906103da91906122c7565b610c38565b005b6103fb60048036038101906103f69190612379565b610e00565b005b61041760048036038101906104129190611e7d565b610ef2565b6040516104249190611f9a565b60405180910390f35b610435610f11565b6040516104429190612286565b60405180910390f35b61046560048036038101906104609190611e7d565b610f35565b60405161047291906122ae565b60405180910390f35b610495600480360381019061049091906123b7565b610f4a565b005b6104b160048036038101906104ac91906122c7565b6110d2565b6040516104be9190611f9a565b60405180910390f35b6104e160048036038101906104dc9190612407565b611135565b005b6104eb61137b565b6040516104f89190612286565b60405180910390f35b61051b60048036038101906105169190612495565b611381565b005b610537600480360381019061053291906124d3565b611479565b6040516105449190611f9a565b60405180910390f35b61056760048036038101906105629190612407565b6114a3565b6040516105749190612286565b60405180910390f35b610597600480360381019061059291906122c7565b6114db565b005b6105b360048036038101906105ae9190611e7d565b6114fd565b6040516105c091906122ae565b60405180910390f35b6105e360048036038101906105de9190611e7d565b61151a565b005b6105ed611588565b6040516105fa9190612286565b60405180910390f35b61060b6115ac565b6040516106189190612286565b60405180910390f35b5f5f73ffffffffffffffffffffffffffffffffffffffff167f000000000000000000000000000000000000000000000000000000000000000073ffffffffffffffffffffffffffffffffffffffff160361067d575f9050610746565b5f6106a87f0000000000000000000000000000000000000000000000000000000000000000846115d0565b90507f000000000000000000000000000000000000000000000000000000000000000073ffffffffffffffffffffffffffffffffffffffff16630178b8bf826040518263ffffffff1660e01b81526004016107039190612286565b602060405180830381865afa15801561071e573d5f5f3e3d5ffd5b505050506040513d601f19601f820116820180604052508101906107429190612525565b9150505b919050565b5f610755826115e4565b9050919050565b5f5f60045f8481526020019081526020015f205f015f9054906101000a900473ffffffffffffffffffffffffffffffffffffffff16905080915050919050565b60605f60025f8473ffffffffffffffffffffffffffffffffffffffff1673ffffffffffffffffffffffffffffffffffffffff1681526020019081526020015f205490505f5f1b81036107ff5760405180602001604052805f81525091505061089e565b60045f8281526020019081526020015f20600101805461081e9061257d565b80601f016020809104026020016040519081016040528092919081815260200182805461084a9061257d565b80156108955780601f1061086c57610100808354040283529160200191610895565b820191905f5260205f20905b81548152906001019060200180831161087857829003601f168201915b50505050509150505b919050565b5f7fedcc084d3dcd65a1f7f23c65c46722faca6953d28e43150a467cf43e5c3092386108ce8161165d565b5f8680519060200120905060045f8281526020019081526020015f20600201544210158160045f8481526020019081526020015f2060020154909161094a576040517f9f1274d50000000000000000000000000000000000000000000000000000000081526004016109419291906125ad565b60405180910390fd5b50508560045f8381526020019081526020015f205f015f6101000a81548173ffffffffffffffffffffffffffffffffffffffff021916908373ffffffffffffffffffffffffffffffffffffffff1602179055508360045f8381526020019081526020015f20600201819055506109c08186611671565b807fd4735d920b0f87494915f556dd9b54c8f309026070caea5c737245152564d266876040516109f09190611ee7565b60405180910390a286604051610a06919061260e565b6040518091039020817f146e3790409df1dc417f64b868c40288aa687364c5788dbc47e847eab0fdc9cf88604051610a3e9190611ee7565b60405180910390a35f60045f8381526020019081526020015f206001018054610a669061257d565b905003610a90578660045f8381526020019081526020015f206001019081610a8e91906127bb565b505b8092505050949350505050565b6002602052805f5260405f205f915090505481565b5f5f5f8381526020019081526020015f20600101549050919050565b603c81565b610adc82610ab2565b610ae58161165d565b610aef8383611ab0565b50505050565b610afd611b99565b73ffffffffffffffffffffffffffffffffffffffff168173ffffffffffffffffffffffffffffffffffffffff1614610b61576040517f6697b23200000000000000000000000000000000000000000000000000000000815260040160405180910390fd5b610b6b8282611ba0565b505050565b7f000000000000000000000000000000000000000000000000000000000000000081565b606060045f8381526020019081526020015f206001018054610bb59061257d565b80601f0160208091040260200160405190810160405280929190818152602001828054610be19061257d565b8015610c2c5780601f10610c0357610100808354040283529160200191610c2c565b820191905f5260205f20905b815481529060010190602001808311610c0f57829003601f168201915b50505050509050919050565b815f60045f8381526020019081526020015f205f015f9054906101000a900473ffffffffffffffffffffffffffffffffffffffff1690503373ffffffffffffffffffffffffffffffffffffffff168173ffffffffffffffffffffffffffffffffffffffff161480610d2a575060015f8273ffffffffffffffffffffffffffffffffffffffff1673ffffffffffffffffffffffffffffffffffffffff1681526020019081526020015f205f3373ffffffffffffffffffffffffffffffffffffffff1673ffffffffffffffffffffffffffffffffffffffff1681526020019081526020015f205f9054906101000a900460ff165b82339091610d6f576040517f14c417b5000000000000000000000000000000000000000000000000000000008152600401610d6692919061288a565b60405180910390fd5b50508260045f8681526020019081526020015f205f015f6101000a81548173ffffffffffffffffffffffffffffffffffffffff021916908373ffffffffffffffffffffffffffffffffffffffff160217905550837fd4735d920b0f87494915f556dd9b54c8f309026070caea5c737245152564d26684604051610df29190611ee7565b60405180910390a250505050565b7fedcc084d3dcd65a1f7f23c65c46722faca6953d28e43150a467cf43e5c309238610e2a8161165d565b60045f8481526020019081526020015f2060020154821160045f8581526020019081526020015f2060020154839091610e9a576040517fb15f6d99000000000000000000000000000000000000000000000000000000008152600401610e919291906128b1565b60405180910390fd5b50508160045f8581526020019081526020015f2060020181905550827fe5e05bd62ea8b19b4a28de8e7a63d720f3eafeee49040a6a7c20cdb5b45aec4e83604051610ee591906122ae565b60405180910390a2505050565b5f60045f8381526020019081526020015f206002015442119050919050565b7fa49807205ce4d355092ef5a8a18f56e8913cf4a201fbe287825b095693c2177581565b6003602052805f5260405f205f915090505481565b825f60045f8381526020019081526020015f205f015f9054906101000a900473ffffffffffffffffffffffffffffffffffffffff1690503373ffffffffffffffffffffffffffffffffffffffff168173ffffffffffffffffffffffffffffffffffffffff16148061103c575060015f8273ffffffffffffffffffffffffffffffffffffffff1673ffffffffffffffffffffffffffffffffffffffff1681526020019081526020015f205f3373ffffffffffffffffffffffffffffffffffffffff1673ffffffffffffffffffffffffffffffffffffffff1681526020019081526020015f205f9054906101000a900460ff165b82339091611081576040517f14c417b500000000000000000000000000000000000000000000000000000000815260040161107892919061288a565b60405180910390fd5b50506110c18560045f8881526020019081526020015f205f015f9054906101000a900473ffffffffffffffffffffffffffffffffffffffff168686611c89565b6110cb8585611671565b5050505050565b5f5f5f8481526020019081526020015f205f015f8373ffffffffffffffffffffffffffffffffffffffff1673ffffffffffffffffffffffffffffffffffffffff1681526020019081526020015f205f9054906101000a900460ff16905092915050565b835f60045f8381526020019081526020015f205f015f9054906101000a900473ffffffffffffffffffffffffffffffffffffffff1690503373ffffffffffffffffffffffffffffffffffffffff168173ffffffffffffffffffffffffffffffffffffffff161480611227575060015f8273ffffffffffffffffffffffffffffffffffffffff1673ffffffffffffffffffffffffffffffffffffffff1681526020019081526020015f205f3373ffffffffffffffffffffffffffffffffffffffff1673ffffffffffffffffffffffffffffffffffffffff1681526020019081526020015f205f9054906101000a900460ff165b8233909161126c576040517f14c417b500000000000000000000000000000000000000000000000000000000815260040161126392919061288a565b60405180910390fd5b505061127a86868686611c89565b5f60045f8881526020019081526020015f20600101805461129a9061257d565b90501186906112df576040517f0909494b0000000000000000000000000000000000000000000000000000000081526004016112d69190612286565b60405180910390fd5b508460045f8881526020019081526020015f205f015f6101000a81548173ffffffffffffffffffffffffffffffffffffffff021916908373ffffffffffffffffffffffffffffffffffffffff160217905550857fd4735d920b0f87494915f556dd9b54c8f309026070caea5c737245152564d266866040516113619190611ee7565b60405180910390a26113738685611671565b505050505050565b5f5f1b81565b8060015f3373ffffffffffffffffffffffffffffffffffffffff1673ffffffffffffffffffffffffffffffffffffffff1681526020019081526020015f205f8473ffffffffffffffffffffffffffffffffffffffff1673ffffffffffffffffffffffffffffffffffffffff1681526020019081526020015f205f6101000a81548160ff0219169083151502179055508173ffffffffffffffffffffffffffffffffffffffff163373ffffffffffffffffffffffffffffffffffffffff167f17307eab39ab6107e8899845ad3d59bd9653f200f220920489ca2b5937696c318360405161146d9190611f9a565b60405180910390a35050565b6001602052815f5260405f20602052805f5260405f205f915091509054906101000a900460ff1681565b5f848484846040516020016114bb949392919061293d565b604051602081830303815290604052805190602001209050949350505050565b6114e482610ab2565b6114ed8161165d565b6114f78383611ba0565b50505050565b5f60045f8381526020019081526020015f20600201549050919050565b5f60035f8381526020019081526020015f20541461156f57806040517fc5f89f050000000000000000000000000000000000000000000000000000000081526004016115669190612286565b60405180910390fd5b4260035f8381526020019081526020015f208190555050565b7fedcc084d3dcd65a1f7f23c65c46722faca6953d28e43150a467cf43e5c30923881565b7f000000000000000000000000000000000000000000000000000000000000000081565b5f825f528160205260405f20905092915050565b5f7f7965db0b000000000000000000000000000000000000000000000000000000007bffffffffffffffffffffffffffffffffffffffffffffffffffffffff1916827bffffffffffffffffffffffffffffffffffffffffffffffffffffffff19161480611656575061165582611d7f565b5b9050919050565b61166e81611669611b99565b611de8565b50565b5f61169c7f0000000000000000000000000000000000000000000000000000000000000000846115d0565b90505f5f90505f73ffffffffffffffffffffffffffffffffffffffff167f000000000000000000000000000000000000000000000000000000000000000073ffffffffffffffffffffffffffffffffffffffff1614611790577f000000000000000000000000000000000000000000000000000000000000000073ffffffffffffffffffffffffffffffffffffffff16630178b8bf836040518263ffffffff1660e01b815260040161174e9190612286565b602060405180830381865afa158015611769573d5f5f3e3d5ffd5b505050506040513d601f19601f8201168201806040525081019061178d9190612525565b90505b8273ffffffffffffffffffffffffffffffffffffffff168173ffffffffffffffffffffffffffffffffffffffff1614611aaa575f73ffffffffffffffffffffffffffffffffffffffff168173ffffffffffffffffffffffffffffffffffffffff16146118375760025f8273ffffffffffffffffffffffffffffffffffffffff1673ffffffffffffffffffffffffffffffffffffffff1681526020019081526020015f205f90555b5f73ffffffffffffffffffffffffffffffffffffffff168373ffffffffffffffffffffffffffffffffffffffff161461196f575f5f1b60025f8573ffffffffffffffffffffffffffffffffffffffff1673ffffffffffffffffffffffffffffffffffffffff1681526020019081526020015f20541461192c578260025f8573ffffffffffffffffffffffffffffffffffffffff1673ffffffffffffffffffffffffffffffffffffffff1681526020019081526020015f20546040517f0b7b9f4300000000000000000000000000000000000000000000000000000000815260040161192392919061298a565b60405180910390fd5b8360025f8573ffffffffffffffffffffffffffffffffffffffff1673ffffffffffffffffffffffffffffffffffffffff1681526020019081526020015f20819055505b5f73ffffffffffffffffffffffffffffffffffffffff167f000000000000000000000000000000000000000000000000000000000000000073ffffffffffffffffffffffffffffffffffffffff1614611a71577f000000000000000000000000000000000000000000000000000000000000000073ffffffffffffffffffffffffffffffffffffffff16635ef2c7f07f00000000000000000000000000000000000000000000000000000000000000008630875f6040518663ffffffff1660e01b8152600401611a439594939291906129fd565b5f604051808303815f87803b158015611a5a575f5ffd5b505af1158015611a6c573d5f5f3e3d5ffd5b505050505b837f9536641548723c985801eef80fb38603b837722ccd8b61d42f6247c28afd335984604051611aa19190611ee7565b60405180910390a25b50505050565b5f611abb83836110d2565b611b8f5760015f5f8581526020019081526020015f205f015f8473ffffffffffffffffffffffffffffffffffffffff1673ffffffffffffffffffffffffffffffffffffffff1681526020019081526020015f205f6101000a81548160ff021916908315150217905550611b2c611b99565b73ffffffffffffffffffffffffffffffffffffffff168273ffffffffffffffffffffffffffffffffffffffff16847f2f8788117e7eff1d82e926ec794901d17c78024a50270940304540a733656f0d60405160405180910390a460019050611b93565b5f90505b92915050565b5f33905090565b5f611bab83836110d2565b15611c7f575f5f5f8581526020019081526020015f205f015f8473ffffffffffffffffffffffffffffffffffffffff1673ffffffffffffffffffffffffffffffffffffffff1681526020019081526020015f205f6101000a81548160ff021916908315150217905550611c1c611b99565b73ffffffffffffffffffffffffffffffffffffffff168273ffffffffffffffffffffffffffffffffffffffff16847ff6391f5c32d9c69d2a47ea670b442974b53935d1edc7fd64eb21e047a839171b60405160405180910390a460019050611c83565b5f90505b92915050565b5f84848484604051602001611ca1949392919061293d565b6040516020818303038152906040528051906020012090505f60035f8381526020019081526020015f205490505f8103611d1257816040517f836588c9000000000000000000000000000000000000000000000000000000008152600401611d099190612286565b60405180910390fd5b603c81611d1f9190612a7b565b421015611d6357816040517f5320bcf9000000000000000000000000000000000000000000000000000000008152600401611d5a9190612286565b60405180910390fd5b60035f8381526020019081526020015f205f9055505050505050565b5f7f01ffc9a7000000000000000000000000000000000000000000000000000000007bffffffffffffffffffffffffffffffffffffffffffffffffffffffff1916827bffffffffffffffffffffffffffffffffffffffffffffffffffffffff1916149050919050565b611df282826110d2565b611e355780826040517fe2517d3f000000000000000000000000000000000000000000000000000000008152600401611e2c92919061298a565b60405180910390fd5b5050565b5f604051905090565b5f5ffd5b5f5ffd5b5f819050919050565b611e5c81611e4a565b8114611e66575f5ffd5b50565b5f81359050611e7781611e53565b92915050565b5f60208284031215611e9257611e91611e42565b5b5f611e9f84828501611e69565b91505092915050565b5f73ffffffffffffffffffffffffffffffffffffffff82169050919050565b5f611ed182611ea8565b9050919050565b611ee181611ec7565b82525050565b5f602082019050611efa5f830184611ed8565b92915050565b5f7fffffffff0000000000000000000000000000000000000000000000000000000082169050919050565b611f3481611f00565b8114611f3e575f5ffd5b50565b5f81359050611f4f81611f2b565b92915050565b5f60208284031215611f6a57611f69611e42565b5b5f611f7784828501611f41565b91505092915050565b5f8115159050919050565b611f9481611f80565b82525050565b5f602082019050611fad5f830184611f8b565b92915050565b611fbc81611ec7565b8114611fc6575f5ffd5b50565b5f81359050611fd781611fb3565b92915050565b5f60208284031215611ff257611ff1611e42565b5b5f611fff84828501611fc9565b91505092915050565b5f81519050919050565b5f82825260208201905092915050565b8281835e5f83830152505050565b5f601f19601f8301169050919050565b5f61204a82612008565b6120548185612012565b9350612064818560208601612022565b61206d81612030565b840191505092915050565b5f6020820190508181035f8301526120908184612040565b905092915050565b5f5ffd5b5f5ffd5b7f4e487b71000000000000000000000000000000000000000000000000000000005f52604160045260245ffd5b6120d682612030565b810181811067ffffffffffffffff821117156120f5576120f46120a0565b5b80604052505050565b5f612107611e39565b905061211382826120cd565b919050565b5f67ffffffffffffffff821115612132576121316120a0565b5b61213b82612030565b9050602081019050919050565b828183375f83830152505050565b5f61216861216384612118565b6120fe565b9050828152602081018484840111156121845761218361209c565b5b61218f848285612148565b509392505050565b5f82601f8301126121ab576121aa612098565b5b81356121bb848260208601612156565b91505092915050565b5f819050919050565b6121d6816121c4565b81146121e0575f5ffd5b50565b5f813590506121f1816121cd565b92915050565b5f5f5f5f6080858703121561220f5761220e611e42565b5b5f85013567ffffffffffffffff81111561222c5761222b611e46565b5b61223887828801612197565b945050602061224987828801611fc9565b935050604061225a87828801611fc9565b925050606061226b878288016121e3565b91505092959194509250565b61228081611e4a565b82525050565b5f6020820190506122995f830184612277565b92915050565b6122a8816121c4565b82525050565b5f6020820190506122c15f83018461229f565b92915050565b5f5f604083850312156122dd576122dc611e42565b5b5f6122ea85828601611e69565b92505060206122fb85828601611fc9565b9150509250929050565b5f819050919050565b5f61232861232361231e84611ea8565b612305565b611ea8565b9050919050565b5f6123398261230e565b9050919050565b5f61234a8261232f565b9050919050565b61235a81612340565b82525050565b5f6020820190506123735f830184612351565b92915050565b5f5f6040838503121561238f5761238e611e42565b5b5f61239c85828601611e69565b92505060206123ad858286016121e3565b9150509250929050565b5f5f5f606084860312156123ce576123cd611e42565b5b5f6123db86828701611e69565b93505060206123ec86828701611fc9565b92505060406123fd86828701611e69565b9150509250925092565b5f5f5f5f6080858703121561241f5761241e611e42565b5b5f61242c87828801611e69565b945050602061243d87828801611fc9565b935050604061244e87828801611fc9565b925050606061245f87828801611e69565b91505092959194509250565b61247481611f80565b811461247e575f5ffd5b50565b5f8135905061248f8161246b565b92915050565b5f5f604083850312156124ab576124aa611e42565b5b5f6124b885828601611fc9565b92505060206124c985828601612481565b9150509250929050565b5f5f604083850312156124e9576124e8611e42565b5b5f6124f685828601611fc9565b925050602061250785828601611fc9565b9150509250929050565b5f8151905061251f81611fb3565b92915050565b5f6020828403121561253a57612539611e42565b5b5f61254784828501612511565b91505092915050565b7f4e487b71000000000000000000000000000000000000000000000000000000005f52602260045260245ffd5b5f600282049050600182168061259457607f821691505b6020821081036125a7576125a6612550565b5b50919050565b5f6040820190506125c05f830185612277565b6125cd602083018461229f565b9392505050565b5f81905092915050565b5f6125e882612008565b6125f281856125d4565b9350612602818560208601612022565b80840191505092915050565b5f61261982846125de565b915081905092915050565b5f819050815f5260205f209050919050565b5f6020601f8301049050919050565b5f82821b905092915050565b5f600883026126807fffffffffffffffffffffffffffffffffffffffffffffffffffffffffffffffff82612645565b61268a8683612645565b95508019841693508086168417925050509392505050565b5f6126bc6126b76126b2846121c4565b612305565b6121c4565b9050919050565b5f819050919050565b6126d5836126a2565b6126e96126e1826126c3565b848454612651565b825550505050565b5f5f905090565b6127006126f1565b61270b8184846126cc565b505050565b5b8181101561272e576127235f826126f8565b600181019050612711565b5050565b601f8211156127735761274481612624565b61274d84612636565b8101602085101561275c578190505b61277061276885612636565b830182612710565b50505b505050565b5f82821c905092915050565b5f6127935f1984600802612778565b1980831691505092915050565b5f6127ab8383612784565b9150826002028217905092915050565b6127c482612008565b67ffffffffffffffff8111156127dd576127dc6120a0565b5b6127e7825461257d565b6127f2828285612732565b5f60209050601f831160018114612823575f8415612811578287015190505b61281b85826127a0565b865550612882565b601f19841661283186612624565b5f5b8281101561285857848901518255600182019150602085019450602081019050612833565b868310156128755784890151612871601f891682612784565b8355505b6001600288020188555050505b505050505050565b5f60408201905061289d5f830185612277565b6128aa6020830184611ed8565b9392505050565b5f6040820190506128c45f83018561229f565b6128d1602083018461229f565b9392505050565b5f819050919050565b6128f26128ed82611e4a565b6128d8565b82525050565b5f8160601b9050919050565b5f61290e826128f8565b9050919050565b5f61291f82612904565b9050919050565b61293761293282611ec7565b612915565b82525050565b5f61294882876128e1565b6020820191506129588286612926565b6014820191506129688285612926565b60148201915061297882846128e1565b60208201915081905095945050505050565b5f60408201905061299d5f830185611ed8565b6129aa6020830184612277565b9392505050565b5f819050919050565b5f67ffffffffffffffff82169050919050565b5f6129e76129e26129dd846129b1565b612305565b6129ba565b9050919050565b6129f7816129cd565b82525050565b5f60a082019050612a105f830188612277565b612a1d6020830187612277565b612a2a6040830186611ed8565b612a376060830185611ed8565b612a4460808301846129ee565b9695505050505050565b7f4e487b71000000000000000000000000000000000000000000000000000000005f52601160045260245ffd5b5f612a85826121c4565b9150612a90836121c4565b9250828201905080821115612aa857612aa7612a4e565b5b9291505056fea26469706673582212209007189f79323a4c422cb31f30b4eee9cf4d8bb904e454028043323abab7e7d064736f6c634300081e0033","linkReferences":{}},"methodIdentifiers":{"ADMIN_ROLE()":"75b238fc","DEFAULT_ADMIN_ROLE()":"a217fddf","MIN_COMMITMENT_AGE()":"2e4f692a","REGISTRAR_ROLE()":"f68e9553","approvals(address,address)":"a32ce11e","commit(bytes32)":"f14fcbc8","commitments(bytes32)":"839df945","createCommitment(bytes32,address,address,bytes32)":"caf40379","ens()":"3f15457f","extendExpiration(bytes32,uint256)":"6903f9e3","getExpiration(bytes32)":"ef1590b8","getLabel(bytes32)":"5330c1b5","getLabelByResolver(address)":"052091c3","getRoleAdmin(bytes32)":"248a9ca3","grantRole(bytes32,address)":"2f2ff15d","hasRole(bytes32,address)":"91d14854","isExpired(bytes32)":"6db2feb2","owner(bytes32)":"02571be3","renounceRole(bytes32,address)":"36568abe","resolver(bytes32)":"0178b8bf","resolverToLabelhash(address)":"18c170f3","revokeRole(bytes32,address)":"d547741f","rootNode()":"faff50a8","setApprovalForAll(address,bool)":"a22cb465","setLabelhashRecord(string,address,address,uint256)":"124313d9","setOwner(bytes32,address)":"5b0fc9c3","setRecord(bytes32,address,address,bytes32)":"9d2c2f98","setResolver(bytes32,address,bytes32)":"8963063e","supportsInterface(bytes4)":"01ffc9a7"},"id":28}